:020000022000DC
:1070000000000420757302005D7302005F730200CC
:1070100061730200637302006573020000000000E8
:107020000000000000000000000000006773020084
:1070300069730200000000006B7302006D730200B0
:1070400029DE02006F730200FDE30200211103003C
:107050006F7302006F730200F5E202006F730200AB
:107060006F7302006F7302006F7302006F73020090
:107070006F7302006F7302006F7302006F73020080
:107080006F730200099902006F7302006F730200B0
:107090006F7302006F73020065B103006F7302002B
:1070A0006F7302006F7302006F7302006F73020050
:1070B0006F7302006F730200000000000000000008
:1070C0006F7302006F7302006F7302006F73020030
:1070D0006F7302006F7302006F7302006F73020020
:1070E0006F7302006F7302006F73020000000000F4
:1070F000000000006F730200000000006F730200C8
:10710000000000000000000000000000000000007F
:10711000000000000000000000000000000000006F
:10712000000000000000000000000000000000005F
:10713000000000000000000000000000000000004F
:10714000000000000000000000000000000000003F
:10715000000000000000000000000000000000002F
:10716000000000000000000000000000000000001F
:10717000000000000000000000000000000000000F
:1071800000000000000000000000000000000000FF
:1071900000000000000000000000000000000000EF
:1071A00000000000000000000000000000000000DF
:1071B00000000000000000000000000000000000CF
:1071C00000000000000000000000000000000000BF
:1071D00000000000000000000000000000000000AF
:1071E000000000000000000000000000000000009F
:1071F000000000000000000000000000000000008F
:10720000354936480A1A02D0072291438D4634493F
:1072100034480A1A06D00722914381F309880222D2
:1072200082F3148830483149314A00F044F831483B
:107230003149324A00F03FF831483249324A00F0D1
:107240003AF832483249334A00F035F83248334987
:10725000334A00F030F833483349344A00F02BF811
:1072600033483449344A00F026F83448344900227F
:1072700000F02CF833483449002200F027F8334856
:107280003349091A082902DB002202604160314AB1
:1072900090471F481F49884205D00268043003B454
:1072A000904703BCF7E700208646EC46002000210B
:1072B000294A9047FEE7884207D0521A05D0037842
:1072C00001300B700131013AF9D17047884202D088
:1072D00002700130FAE770470000042000E003204C
:1072E000000004200000042018FA0300742200208B
:1072F00030230020D0730200D0730200D8BD0300F9
:1073000018FA03007422002074220020A8BF030092
:10731000A8BF0300A8BF0300A8BF0300A8BF0300C5
:10732000A8BF0300A8BF0300A8BF030016FA03000C
:10733000D4FA030030230020302300203023002023
:107340003835002038350020383500203835002009
:10735000385500209D73020011200300FEE7FEE770
:10736000FEE7FEE7FEE7FEE7FEE7FEE7FEE7FEE7F5
:1073700000F002B8FFF7FCBF0F484FF00701884349
:1073800085460E4880470E48016841F4700101604F
:10739000BFF34F8FBFF36F8FFFF732BF09480A4922
:1073A0000A4A884207D0521A05D0037801300B7080
:1073B0000131013AF9D17047000004206DD4020078
:1073C00088ED00E094BF03006022002074220020BA
:1073D00000B5A1B00590049103920293049805F0C2
:1073E000B9F9039B1593029B16930023179300236F
:1073F0008DF8603000231993229B1A9300231F936A
:107400000FA91F9B0822049805F07EFA08231F93FA
:10741000119B1293BDF84030ADF84C30BDF84230AE
:10742000ADF84E3000238DF851309DF83C3003F01C
:107430000303DBB2012B26D10F9BC3F395231C93CF
:107440009DF83C30C3F3C203DBB28DF85030BDF879
:107450003C30C3F38313DBB21B931B9B9A0009A937
:107460001F9B049805F050FA1B9B9B001F9A134426
:107470001F9312AA09A915AB009313461B9A1C98D7
:1074800000F0F2FF2FE09DF83C3003F00303DBB285
:10749000022B28D1BDF83E30C3F389139BB21E9353
:1074A0009DF83C30C3F3C203DBB28DF850301E9B15
:1074B000082B28BF08231D9307A91F9B1D9A04981A
:1074C00005F022FA1F9A1D9B13441F931E9A1D9BC1
:1074D000D31A1E9315AB12AA07A81D9901F066F8DE
:1074E0001E9B002BE3D1049805F043F900BF21B0A7
:1074F0005DF804FB00B583B00190019B1B781A4630
:107500000C4B9B5C002B05D0019B0433184608F004
:107510006DFA0BE0019B1B781A46064B9B5C002B17
:1075200004D1019B0C33184607F0DCFB00BF03B00D
:107530005DF804FBAC2A002000B587B003900291EF
:1075400013468DF8073000230593039B1B781A46DA
:10755000114B9B5C002B09D0039B04339DF8072043
:107560000299184608F0A4FA05900FE0039B1B78D7
:107570001A46094B9B5C002B08D1039B0C339DF8EA
:1075800007200299184607F025FC0590059B184630
:1075900007B05DF804FB00BFAC2A002082B0019068
:1075A0000091034B01221A7000BF02B0704700BF68
:1075B0007023002030B58DB003468DF807301A4B8C
:1075C00002AC1D460FCD0FC495E80F0084E80F00F4
:1075D000062302934FF0FF3303934FF0FF330493DE
:1075E0004FF0FF3305934FF0EB7308939DF807308E
:1075F000002B01D00D4A00E0002202AB19460C48D6
:1076000006F020FA0B900B9B0A930A9B002B04D0E8
:10761000084A43210A9801F08DF8074A9DF807307F
:10762000137000BF0DB030BDF8BF03009D750200A0
:1076300074220020A8BF03007123002000B583B08E
:1076400001238DF807309DF807301846FFF7B2FF89
:1076500000BF03B05DF804FB00B589B00390029150
:107660000192019B8DF81F30124B00221A709DF879
:107670001F301A4602991048FFF75EFF0690069BDE
:107680000593059B002B04D00C4A5321059801F06B
:1076900051F800BF0A4B1B78002B07D0054B1B7815
:1076A000DBB283F00103DBB2002BF3D100BF09B0E2
:1076B0005DF804FB7023002074220020A8BF0300A3
:1076C0007123002000B585B003900291054B009313
:1076D0004023054A02990398FFF77AFE00BF05B0E0
:1076E0005DF804FB597602003023002082B001903F
:1076F00000BF02B07047000000B583B0019005489C
:10770000FFF7F8FE0020FFF755FF00BF03B05DF85C
:1077100004FB00BF7422002082B00190019BDB6853
:1077200001225A7100BF02B07047000000B583B05B
:107730004FF0FF330193FFF781FF0421084800F069
:10774000AFFD0190019B002B03DA0649482009F0A8
:107750005BFE0348FFF7E0FF00BF03B05DF804FBEA
:1077600084BF030038C0030000B583B001900091CE
:10777000019B1B681B6800990198984700BF03B0E4
:107780005DF804FB00B583B00190019B1B685B684A
:107790000198984700BF03B05DF804FB00B583B0C3
:1077A0000190019B1B689B680198984700BF03B03C
:1077B0005DF804FB82B001900B468DF80330019B0D
:1077C000DB689DF803201A7100BF02B0704782B0D9
:1077D0000190019BDB681B79184602B0704782B0AC
:1077E0000190019BDB6801225A7100BF02B0704713
:1077F00082B00190019BDB685B79184602B070474C
:1078000000B585B0019000910C4B00221A700C4815
:1078100004F004FF0390039B002B01D0039B08E0BE
:10782000084805F00BFB084A084BD31ADB08029303
:107830000023184605B05DF804FB00BFDC240020DF
:107840007CBE03008CC0030084BF0300A4BE030001
:10785000024A034BD31ADB081846704784BF030063
:10786000A4BE030000B587B001900B468DF803302D
:107870009DF80330002B1FD0FFF7EAFF0490002390
:10788000059313E0059B9B000E4A13440393039B4F
:107890001B881A46019B1B689A4204D1019B059ADA
:1078A0001A60002309E0059B01330593059A049BA8
:1078B0009A42E7D3052300E00023184607B05DF89D
:1078C00004FB00BF7422002000B585B001900B4678
:1078D0008DF803309DF8032001AB11461846FFF7E1
:1078E000C1FF0346002B07D1019BDB00054A13446F
:1078F0000393039B1B6800E00023184605B05DF866
:1079000004FB00BFA4BE030084B001900B468DF8B9
:107910000330019BDB00174A134402939DF80330A8
:10792000013B032B1CD801A252F823F03D79020041
:10793000457902004D7902005779020002238DF843
:107940000F3011E004238DF80F300DE0029B1B79FE
:107950008DF80F3008E0029B5B798DF80F3003E063
:1079600000238DF80F3000BF9DF80F30184604B08B
:10797000704700BFA4BE030084B0019000910023B3
:107980008DF80F30019B1B7803F00403DBB2002B52
:1079900024D0019B1B78C3F30103DBB2012B02D07F
:1079A000022B0CD017E0009B1B68019A1288C2F3CF
:1079B0008312D2B213449A1C009B1A600BE0009B06
:1079C0001B68019A5288C2F3891292B213449A1C1E
:1079D000009B1A6000BF01238DF80F309DF80F3017
:1079E000184604B07047000000B58BB00023ADF816
:1079F00026303E4803F07DFD3D4803F07AFD3D4BC7
:107A00009B6804933C4B1B680693049A069B1340A7
:107A100002339B00374A13440433089304AB1946DE
:107A20000898FFF7A9FF0346002B09D0049A069B8C
:107A3000134002339B002F4A134404330893EDE7AD
:107A400000BF0023079311E0049B5A1C0492069A7E
:107A50001340079A920001A90A44264902339B0069
:107A60000B445B681360079B01330793079B012B53
:107A7000EAD99DF80430C3F30103DBB2012B10D027
:107A8000022B1CD1BDF80A30ADF82630BDF8063007
:107A9000C3F389139BB203339A08049B13440493E2
:107AA00013E0BDF80A30ADF82630BDF80430C3F35A
:107AB0008313DBB21A46049B1344049305E00F4979
:107AC0004FF4C27009F0A0FC00BF094803F01DFD8F
:107AD0000590059B002B02D0049B064A9360BDF8DD
:107AE000263018460BB05DF804FB00BFF4280020D8
:107AF000F0280020DC240020902200209CC00300FD
:107B000000B585B00021074803F034FC0390039BC7
:107B10000293029B83F310030193019B184605B067
:107B20005DF804FBF828002000B589B003900291AD
:107B300001920093039B1B0C0793FFF7E1FF069054
:107B4000FFF786FE0246079B934204D3214940F289
:107B5000A91009F059FC069B1904009B5A1C0A9BAA
:107B60001340079A0A431C4902339B000B445A6096
:107B7000009A0A9B134002339B00174A13440433B4
:107B80000593039B03F00703D9B2059A137861F3B9
:107B9000C5031370019B03F00F03D9B2059A138834
:107BA00061F389131380029BC3F31501059A1368CF
:107BB00061F39F231360059A1378012161F3010398
:107BC0001370059A13786FF38203137000BF09B026
:107BD0005DF804FB9CC00300DC24002000B58DB0E0
:107BE0000390029113468DF80730039B02330A93EA
:107BF00001238DF8273000238DF81B300DF11B0376
:107C0000184601F055FA404B5A68029B1A603F4BE8
:107C10001A683D4B99683C4B5B68CB1A134401339F
:107C20000B9314E001213A4803F033FCFFF7DCFE2C
:107C300007900799364803F02CFC344B1A68324BF6
:107C40009968314B5B68CB1A134401330B930A9A42
:107C50000B9B9A42E6D89DF82730002B48D0002392
:107C600005939DF80730002B17D09DF814300122A2
:107C700062F301038DF814309DF8143043F00403CF
:107C80008DF81430039B03F00F03DAB2BDF8143003
:107C900062F38913ADF8143016E09DF81430022217
:107CA00062F301038DF814309DF8143043F004039F
:107CB0008DF81430039BC3F309039AB2BDF8163054
:107CC00062F38F13ADF816300F4B5A680F4B1B68D9
:107CD000134002339B000C4A134404330893059A63
:107CE000089B1A60084B5A680A9B1344064A536063
:107CF0009DF81B30184601F0F1F99DF82730184621
:107D00000DB05DF804FB00BFDC24002090220020B1
:107D1000F828002000B58BB00590049103920293DF
:107D20001F4B1B68079306AB012219460298FFF709
:107D300055FF0346002B24D0069B023309930023F2
:107D4000089311E0089B9B00039A1A44099B591C55
:107D5000099107990B401268124902339B000B44AA
:107D60005A60089B01330893089A029B9A42E9D310
:107D7000069A079B00931346029A04990598FFF709
:107D8000D3FE084B1B78002B05D000BF00F07EF817
:107D90000346002BFAD100BF0BB05DF804FB00BF17
:107DA00090220020DC24002000B583B001900091D7
:107DB0000023002200990198FFF7ACFF00BF03B039
:107DC0005DF804FB00B587B0039002910192019B1E
:107DD000059305AA012302990398FFF79BFF00BFB3
:107DE00007B05DF804FB00B587B0039002910192E3
:107DF0000093019B0493009B059304AA022302991C
:107E00000398FFF787FF00BF07B05DF804FB00B5DC
:107E100089B00390029101920093019B0593009B0E
:107E200006930A9B079305AA032302990398FFF779
:107E300071FF00BF09B05DF804FB00B58BB0039083
:107E4000029101920093019B0593009B06930C9B6A
:107E500007930D9B08930E9B099305AA052302998E
:107E60000398FFF757FF00BF0BB05DF804FB00005D
:107E7000054B9A68044B5B689A420CBF01230023B0
:107E8000DBB21846704700BFDC24002000B599B073
:107E9000FFF7EEFF0346002B01D00023C0E19B4B10
:107EA0000022C3F81824BFF34F8F00BF974B9B6885
:107EB0000493974B1B681093049A109B1340023352
:107EC0009B00924A13440433119300231793002319
:107ED000169300230F9304AB19461198FFF74CFD3E
:107EE0000346002B19D0894BD3F81834002B14D13A
:107EF000864B5A68049B9A4205D8844B5B68834A38
:107F0000936000238CE1049A109B134002339B0082
:107F10007E4A134404331193DDE70023159311E0E7
:107F2000049B5A1C0492109A1340159A920001A9BE
:107F30000A44764902339B000B445B681360159B2F
:107F400001331593159B012BEAD99DF8043003F0FA
:107F50000303DBB2022B40F09C80BDF80630C3F374
:107F600089139BB20D93BDF80630C3F389139BB2FE
:107F7000502B28BF50239BB20C930C9BC3F30903D7
:107F80009AB2BDF8063062F38F13ADF806300C9B41
:107F900008330B939DF80430C3F3C203DBB20F9395
:107FA0000B995C4804F045FB1790179B002B00F0E1
:107FB000D380179804F0CEFB01A9169B08221798CE
:107FC00004F084FC169B08331693049BDA43109B41
:107FD000134001339B000A930C9A0A9B9A4242D9A0
:107FE0000A9B002B08D0049A109B134002339B007D
:107FF000464A1344043300E0474B08930A9B002B86
:1080000002D00A9BDBB201E00C9BDBB28DF81F3083
:108010000A9B002B01D0404B00E0002306930A9BF3
:10802000002B06D00C9BDAB20A9BDBB2D31ADBB270
:1080300000E000238DF817309DF81F20169B08994B
:10804000179804F043FC9DF81F30169A13441693BA
:10805000069B002B16D09DF81720169B06991798A3
:1080600004F034FC0EE0049A109B134002339B0092
:10807000264A134404330993169B0C9A09991798BE
:1080800004F024FC0D9B03339A08049B13440493CF
:1080900062E09DF8043003F00303DBB2012B5BD1F7
:1080A000BDF80430C3F38313DBB2062B28BF0623CD
:1080B000DAB2BDF8043062F38913ADF80430BDF8CC
:1080C0000430C3F38313DBB202330E939DF8043004
:1080D000C3F3C203DBB20F930E9B9B0019460D48FE
:1080E00004F0A7FA1790179B002B35D0179804F0CF
:1080F00031FB01A9169B0822179804F0E7FB169B99
:1081000008331693002315931DE000BFDC240020E4
:10811000902200207CBE0300E8240020049B5A1C0F
:108120000492109A134002339B003F4A1344191DD6
:10813000169B0422179804F0C9FB169B0433169370
:10814000159B01331593BDF80430C3F38313DBB2E1
:108150001A46159B9342E1D3179B002B40D0324B1C
:10816000D3F810341493304BD3F81834002B1BD0B1
:10817000179804F0FEFA4DE000238DF84F30149864
:10818000FFF736FB0346002B02D001238DF84F305A
:108190009DF84F30002B03D017991498FFF7E4FA9D
:1081A000149BDB681B681493149B002BE4D1179875
:1081B00004F0DFFA00238DF803300DF103031846B5
:1081C00000F076FF184BD3F81834002B02D1049B33
:1081D000154A93609DF80330184600F07FFF19E0C0
:1081E000114BD3F81034129306E01298FFF7D6FA29
:1081F000129BDB681B681293129B002BF5D10B4A74
:108200000B4BD31ADB081B0443F002030949184641
:10821000FFF7CAFDFFF72CFE034683F00103DBB234
:10822000184619B05DF804FBDC240020D4BE03001E
:10823000A4BE0300E8C0030000B585B0002303938B
:1082400023E0164BD3F81034029301238DF8073046
:108250000FE00298FFF7BBFA03461A46039B9342CE
:1082600003D100238DF8073006E0029BDB681B6812
:108270000293029B002BECD19DF80730002B01D01C
:10828000039B07E0039B01330393039B092BD8DD7A
:108290004FF0FF33184605B05DF804FBDC240020E6
:1082A00000B585B001900B468DF80330FFF7C4FF91
:1082B0000390039BB3F1FF3F01D1039B22E0039B9B
:1082C000DBB219460198FFF775FA104BD3F810345A
:1082D000002B08D10D4A019BC2F81034019BDB68CA
:1082E00000221A600DE0094BD3F81034DA68019BC4
:1082F000DB6812681A60054BD3F81034DB68019A0A
:108300001A60039B184605B05DF804FBDC240020CE
:1083100000B583B00C4BD3F8103401930A4B012203
:108320001A7009E00198FFF75AFA0198FFF72AFA44
:10833000019BDB681B680193019B002BF2D100BFFE
:1083400000BF03B05DF804FBDC24002082B0019084
:10835000009100BF02B0704710B584B00390029145
:10836000039BDB88002B0AD0039BDB881A461F4B3C
:10837000009313461E4A1F49029803F003FA039B19
:108380001B7A052B2ED0039B5B7A002B12D0039B0C
:108390009B881A46039B1B7A19461046FFF7B4FACE
:1083A00003461A46144B53F822301A4613490298D2
:1083B00003F0E8F9039B1B6819460298FFF7C6FF14
:1083C000039B1B7A1A460E4B53F82240039B9B8853
:1083D00000211846FFF778FA034622460949029819
:1083E00003F0D0F900BF04B010BD00BF1CC10300F2
:1083F0002CC1030064C10300A82200207CC103003B
:108400009422002080C1030000B585B00390029142
:1084100013468DF80730039B1B7A052B0FD0039B67
:108420005B7A002B06D00D4B1B681A460C4902984C
:1084300003F0A8F90B49029803F0A4F907E09DF8AE
:108440000730002B03D00749029803F09BF90298EC
:1084500003F076F900BF05B05DF804FBA822002008
:108460007CC103008CC1030030B58BB0079006912E
:10847000059204930E9B1B7B8DF827300E9B0022E8
:108480001A730E990498FFF767FF059B062B7FD898
:1084900001A252F823F000BFB5840200BF8402009D
:1084A000CF840200E38402000185020029850200D6
:1084B0005985020007990E9803F064F969E0069B5C
:1084C0001B681A4607990E9803F05CF961E0069B59
:1084D0001A68069B04331B6807990E9803F052F93B
:1084E00057E0069B1A68069B04331968069B0833FD
:1084F0001B6800930B4607990E9803F043F948E078
:10850000069B1968069B04331868069B08331B6892
:10851000069A0C3212680192009303460A460799A4
:108520000E9803F02FF934E0069B1868069B04337D
:108530001C68069B08331B68069A0C321268069961
:10854000103109680291019200932346024607996F
:108550000E9803F017F91CE0069B1C68069B043379
:108560001D68069B08331B68069A0C321268069930
:108570001031096806981430006803900291019246
:1085800000932B46224607990E9803F0FBF800E073
:1085900000BF00220E990498FFF736FF0E9B9DF84E
:1085A00027201A7300BF0BB030BD00BF00B587B0E5
:1085B0000390029101920093029B082B60D8009BCC
:1085C0001B7B8DF81330009B00221A7300990198D1
:1085D000FFF7C2FE0023059314E0059A029B9A421E
:1085E00009D2039A059B13441B781A462649009822
:1085F00003F0C8F803E02549009803F0C3F8059B91
:1086000001330593059B072BE7D92149009803F017
:10861000B9F80023059326E0059A029B9A421BD2E3
:10862000039A059B13441B788DF812309DF8123085
:108630007E2B0AD89DF81230184613F005FB03462E
:10864000002B02D09DF8123000E02E231A4611496B
:10865000009803F097F803E00F49009803F092F8B0
:10866000059B01330593059B072BD5D90122009962
:108670000198FFF7C9FE009B9DF813201A7300E0D4
:1086800000BF07B05DF804FB90C1030098C1030070
:108690009CC10300A0C10300A4C1030086B00390E5
:1086A0000291019201238DF817309DF81730204A6E
:1086B000039B13601E4A029B53601D4A019B9360FB
:1086C000039B44F20102934212D0039B44F2020244
:1086D000934220D1019B164AD360154BDB681B687F
:1086E000134A9361124BDB685B68114AD36112E055
:1086F000019B0F4A13610E4B1B699B680C4A536127
:108700000B4B1B691B680A4A9361094B1B695B6829
:10871000074AD36100BF72B600BF00BF9DF8173093
:10872000DBB2002BFAD162B600BF00BF06B07047C3
:10873000FC28002000B583B002900091019244F221
:10874000010071466A4600F003F803B000BD00BFA7
:1087500030B58BB007900691059272B600BFFFF757
:10876000D7FD00BFFFF792FB0346002BFAD1079B12
:1087700044F2020293422FD0079B44F2020293423A
:1087800069D8079B44F20102934237D0079B44F219
:10879000010293425FD8079B012B05D0079B41F252
:1087A000010293420CD056E0394A3A4BD31ADB0807
:1087B0001B0443F0010338491846FFF7F5FA57E068
:1087C000334A344BD31ADB081B0443F0010333490B
:1087D0001846FFF7E9FA4BE0059B09932C4A2D4B0D
:1087E000D31ADB081B0443F00100099B5B681A469F
:1087F000099B1B682A49FFF7F6FA39E0059B0893A5
:10880000234A244BD31ADB081B0443F00104089BC2
:108810009D68089B9B68184604F030FC0346184688
:10882000089B5B681946089B1B68069A0292019395
:10883000009103462A461B492046FFF7FEFA144AD8
:10884000144BD31ADB081B0443F0010316491846E6
:10885000FFF7AAFA0CE00E4A0E4BD31ADB081B04F2
:1088600043F00103069A11491846FFF7ABFA00BF1F
:108870000F4B1B6803F00103002B00D000BE059ACC
:1088800006990798FFF70AFF00BF0BB030BD00BF85
:10889000D4BE0300A4BE0300F8C1030018C2030045
:1088A0003CC2030058C2030080C2030094C203000C
:1088B000F0ED00E02DE9F04383B0144801F009F831
:1088C000034600221C461546114BD3E9002314EB46
:1088D000020845EB0309CDE900890E4BD3E90023DB
:1088E000DDE90001904271EB030307D2DDE90023CB
:1088F00012F1807643F10007CDE90067DDE900233E
:108900001046194603B0BDE8F08300BFCC2200201A
:10891000282900203029002088B001900091019B77
:108920000793009B0693079BD3E90223CDE9042319
:10893000069BD3E90223CDE90223DDE90423DDE927
:108940000201904271EB03032CBF01230023DBB231
:10895000184608B070470000F0B585B00190019B43
:108960005B69002B03D12B49A22008F04DFD0023A9
:108970008DF80F30284B1B78002B45D0019B002B26
:1089800042D0019B1B7FDBB2002B3DD0FFF792FF53
:10899000019BD3E90223904271EB03032CD3019B8B
:1089A0001B69002B02D1019B00221A77019B5B6996
:1089B000019A926910469847019B1B69002B23D0AE
:1089C000019B1B7FDBB2002B1ED0019BD3E902234E
:1089D0000199096900200C460546161943EB050765
:1089E000019BC3E90267019B19460C4804F0A0FAF9
:1089F00001238DF80F3007E0019B1946074804F06A
:108A000097FA01238DF80F309DF80F30184605B006
:108A1000F0BD00BFB8C203002029002000C303003E
:108A2000F0B589B0019000910D230793009B0022BF
:108A30001A70019BD3E90245FFF73CFF02460B4643
:108A4000A61A65EB0307CDE90467DDE90423012AD3
:108A500073F100031BDB049BB3F5350F05D300F066
:108A6000A9FA0246154B134403E0019BD3E9022304
:108A7000134603934FF49603039A0021104800F025
:108A80001BFE0790079B002B05D1012313E000215B
:108A90000B4800F0E9FE079B0D2B07D10198FFF76B
:108AA0005BFF03461A46009B1A7003E00549F52058
:108AB00008F0AAFC0023184609B0F0BDFFFFB4007F
:108AC000CC220020B8C2030000B583B0044804F0F3
:108AD00069FA0190019B184603B05DF804FB00BFE2
:108AE00000C3030000B583B0044804F07DFA019090
:108AF000019B184603B05DF804FB00BF00C30300F0
:108B000000B583B0FFF7E0FF0190019B002B02D07E
:108B1000019B00221A77019B002BF3D100BF00BFFD
:108B200003B05DF804FB0000054BD3E9002312F10C
:108B3000807043F10001024BC3E9000100BF7047A0
:108B40002829002010B582B00190124B1B68002B21
:108B50001DD0019800F0BDFE04460021019800F0F0
:108B6000A9FE03461946204600F018FA0346B3F55D
:108B7000960F04D308494FF4957008F045FC054B57
:108B80001B681846FFF7E8FE024B00221A6000BF80
:108B900002B010BD1C290020B8C2030000B583B08C
:108BA0000190FFF787FE02460B460349C1E9002307
:108BB00000BF03B05DF804FB3029002000B585B08C
:108BC0000190FFF78FFF039000238DF80B30039B7C
:108BD000002B48D02B4B1B68002B03D101238DF8B1
:108BE0000B3019E0039BD3E90201264B1B68D3E944
:108BF0000223904271EB03030ED201238DF80B3058
:108C0000204B1B681B7FDBB2002B05D01D4B1B6864
:108C100019461D4804F08CF99DF80B30002B2AD022
:108C2000FFF752FF03900DF10A0319460398FFF76F
:108C3000F7FE0346002B12D0124B1B68002B02D10B
:108C4000019800F045FC0F4A039B13609DF80A3021
:108C500083F00103DBB2002BB3D000BF0EE0094B61
:108C600000221A60ADE7074B1B68002B05D1019865
:108C700000F044FC01E000BF00E000BF00BF05B011
:108C80005DF804FB1C29002000C3030000B587B079
:108C900001902C4A03AB1946104602F072FA059077
:108CA00048E0059B1B78022B2ED0022B32DC002BD8
:108CB00002D0012B14D02DE0059B5B681B7FDBB23B
:108CC00083F00103DBB2002B26D0059B5B680122F9
:108CD0001A77059B5B6819461B4804F029F91BE0CD
:108CE000059B5A68194B1B689A4203D1174B002207
:108CF0001A6012E0059B5B681946134804F088F976
:108D000003468DF8133008E0FFF7FAFE104B0122FE
:108D10001A7002E000BF00E000BF0A4A03AB194628
:108D2000104602F047FA074A03AB1946104602F014
:108D300028FA0590059B002BB3D100BF00BF07B0F8
:108D40005DF804FB9029002000C303001C290020CB
:108D50002029002000B583B00190019800F077FD34
:108D60000346002B01D0FFF7DFFE0021019800F041
:108D70008CFD0346002B02D00198FFF7E3FE012192
:108D8000019800F082FD0346002B02D00198FFF706
:108D900005FF0198FFF77AFF0198FFF70FFF00BF6B
:108DA00003B05DF804FB000008B5024800F09EFD2A
:108DB00000BF08BDCC22002000B585B0034600915D
:108DC0008DF80730114A02AB1946104602F0ACF993
:108DD0000390039B002B13D0039B9DF807201A7070
:108DE000039B009A5A60094A02AB1946104602F0EA
:108DF000B4F90346002B01D0FFF7D6FF002300E0B3
:108E00000423184605B05DF804FB00BF902900203C
:108E100000B583B0164B1B680093164808235822F0
:108E2000154902F04EF90190019B002B01D0019BE6
:108E300019E06B46114A1946114800F0CBFA01902F
:108E4000019B002B01D0019B0DE001210C4800F09B
:108E5000EDFC01230B4A0121094800F065FB0A4B98
:108E600001221A70019B184603B05DF804FB00BF95
:108E7000FCC203009029002038290020558D0200F3
:108E8000CC220020FFFF7F002029002000B587B002
:108E900003900B4601928DF80B30039B002B04D1FD
:108EA000134940F22E2008F0AFFA019B002B04D1A9
:108EB0000F4940F22F2008F0A7FA019B002B01D1A7
:108EC000072310E0039B1B680593059B019A5A61D9
:108ED0009DF80B30012B0CBF01230023DBB21A4697
:108EE000059B1A610023184607B05DF804FB00BF1C
:108EF000B8C20300F0B587B0039002910192039BC2
:108F0000002B04D1164940F23E2008F07DFA039B65
:108F10000593059B1B7FDBB2002B01D000231CE0D7
:108F2000059B019A9A61FFF7C5FC02460B46029920
:108F300000200C460546161943EB0507059BC3E9BF
:108F40000267059B1B69002B02D0059B029A1A61E0
:108F500005990020FFF730FF0346184607B0F0BD23
:108F6000B8C2030000B585B00190019B002B04D16D
:108F700009494FF4157008F047FA019B0393039BCE
:108F800000221A7703990120FFF716FF03461846BF
:108F900005B05DF804FB00BFB8C2030082B00190C9
:108FA0000091019A009BD31A23F07F43184602B028
:108FB0007047000008B5034800F08BFC03461846D4
:108FC00008BD00BFCC22002082B0EFF310830093D5
:108FD000009B019372B600BF019B184602B0704718
:108FE00062B600BF00BF704700B585B00190FFF7C3
:108FF000EBFF0390164B9B68002B1BD1144B0122F7
:109000009A60144BD3F88020134B1340104A13601E
:10901000104B114AC3F880200E4BD3F884300C4A11
:1090200053600C4B4FF0FF32C3F88420019B0022A9
:109030001A7002E0019B01221A70039B002B01D1E0
:10904000FFF7CEFF0023184605B05DF804FB00BF14
:10905000A429002000E100E0FC06FFBD00B585B0BA
:1090600003468DF80730104B9B68002B16D09DF8F7
:109070000730002B12D1FFF7A7FF03900B4A0A4BD2
:109080001B681360094A084B5B685360064B00225B
:109090009A60039B002B01D1FFF7A2FF0023184623
:1090A00005B05DF804FB00BFA429002000E100E04A
:1090B00000B583B0019000F02BF80346012B03D0DC
:1090C0000549432008F0A0F90198FFF78DFF00BF84
:1090D00003B05DF804FB00BF0CC3030000B583B010
:1090E00003468DF8073000F013F80346012B03D038
:1090F0000649512008F088F99DF807301846FFF717
:10910000ADFF00BF03B05DF804FB00BF0CC303005C
:1091100084B0EFF305830193019BC3F3080303932A
:10912000039B002B0DD1EFF314830093009B02935C
:10913000029B03F00103002B0CBF01230023DBB2D1
:1091400000E00123184604B07047000082B00346D7
:109150008DF807309DF90730002B0CDB9DF80730A8
:1091600003F01F0205499DF907305B09012000FA51
:1091700002F241F8232000BF02B0704700E100E096
:1091800082B003468DF807309DF90730002B0DDBC8
:109190009DF8073003F01F0206499DF907305B096F
:1091A000012000FA02F2403341F8232000BF02B050
:1091B000704700BF00E100E082B0034600918DF8E7
:1091C00007309DF90730002B0ADB009BDAB20C490F
:1091D0009DF907305201D2B20B4483F800230BE013
:1091E000009BDAB207499DF8073003F00F03043BF8
:1091F0005201D2B20B441A7600BF02B0704700BFD2
:1092000000E100E000ED00E000B583B003460A464F
:109210008DF8073013468DF806309DF80630012B87
:1092200003D99DF80630032B0BD99DF80630042B8B
:1092300003D99DF80630072B03D908496B2008F0A5
:10924000E3F89DF806209DF9073011461846FFF710
:10925000B3FF00BF03B05DF804FB00BF58C30300B9
:1092600000B583B003468DF807309DF907301846E6
:10927000FFF76CFF00BF03B05DF804FB00B585B0DD
:109280000190019B002B0AD0074B43F0010303938D
:10929000019B9B010293039B0298984700E000BF4B
:1092A00005B05DF804FB00BF50C4030084B0039018
:1092B00002910192039B029A02F5A872019943F868
:1092C000221000BF04B0704782B001900091019B52
:1092D000009A02F5A87253F82230184602B070477F
:1092E00082B001900091019B009AC3F8042300BF53
:1092F00002B0704782B001900091019B009AC3F8C0
:10930000082300BF02B0704782B001900B46ADF851
:109310000230BDF80230019A13441B68184602B0AF
:10932000704784B001900B46ADF80230BDF80230B2
:10933000019A134400221A60BDF80230019A1344C6
:109340001B680393039B00BF04B0704782B0019079
:10935000019BD3F80435184602B0704700B583B0BE
:1093600001900091009BB3F5805F04D306494FF450
:10937000BE7008F049F8019B009AC3F8082500BFA9
:1093800003B05DF804FB00BF88C3030082B0019006
:109390000B468DF803309DF80320019B13441A46B9
:1093A0000123136000BF02B0704782B001900091AA
:1093B000019B009AC3F8442300BF02B0704782B0FB
:1093C00001900091019B009AC3F8482300BF02B0AE
:1093D0007047000000B587B0039002910192039B93
:1093E000002B03D13349552008F00EF8029B002BC7
:1093F00003D13049562008F007F8019B002B03D118
:109400002C49572008F000F8039B5B7919462A4A3B
:10941000019B42F82130039B5B79284ADB0013440F
:109420001B79002B0ED008230593254A254BD31A10
:10943000DB081B0443F0020323491846FEF7B4FC83
:10944000059B32E0039B1A68029B1B881946104655
:10945000FFF784FF039B93F90420029B9B78194636
:109460001046FFF7D1FE039B93F904301846FFF72F
:10947000F7FE039B5B79114ADB00134401221A714A
:10948000039B5B7919460D4A039B42F83130002358
:1094900005930B4A0B4BD31ADB081B0443F0030361
:1094A0000A491846FEF780FC059B184607B05DF890
:1094B00004FB00BFB8C30300B0290020B42900207A
:1094C000E4BE0300A4BE0300F8C303001CC40300F1
:1094D00000B583B00190019B002B03D10649872082
:1094E00007F092FF019B1B6800211846FFF74EFF13
:1094F00000BF03B05DF804FBB8C3030000B583B040
:109500000190019B002B03D106498D2007F07CFFC1
:10951000019B1B6804211846FFF738FF00BF03B00A
:109520005DF804FBB8C3030000B587B00390029157
:1095300001928DF80330039B002B03D12149962023
:1095400007F062FF4FF48032029B02FA03F30593A7
:10955000029B50339BB29B00ADF81230019B23F06D
:109560007F430193039B1B6805991846FFF7C2FED2
:10957000039B1B6805991846FFF721FF039B1B6897
:10958000BDF8122011461846FFF7CBFE039B1B685F
:10959000019A02991846FFF789FE039B1B680599FB
:1095A0001846FFF702FF9DF80330002B05D0039B00
:1095B0001B6805991846FFF793FE00BF07B05DF8DA
:1095C00004FB00BFB8C3030000B585B0039002914F
:1095D00013468DF80730039B002B03D10B49A920BC
:1095E00007F012FF039B1B6802991846FFF7DDFE88
:1095F0009DF80730002B05D0039B1B680299184685
:10960000FFF76EFE00BF05B05DF804FBB8C30300B2
:1096100000B583B001900091019B002B03D10A4952
:10962000B32007F0F1FE019B1B6800991846FFF775
:10963000C6FE019B1B6800991846FFF75BFE00BF42
:1096400003B05DF804FB00BFB8C3030000B583B0EE
:1096500001900B46ADF80230019B002B03D10F495E
:10966000BA2007F0D1FE019B1B68BDF8022011460D
:109670001846FFF749FE0346002B09D0019B1B68E3
:10968000BDF8022011461846FFF74BFE012300E00B
:109690000023184603B05DF804FB00BFB8C3030005
:1096A00082B001900091019A009BD31A23F07F436E
:1096B000184602B07047000000B58BB003900291CD
:1096C00001920093039B002B03D15749CD2007F053
:1096D0009BFE4FF48032029B02FA03F30993029B34
:1096E00050339BB29B00ADF82230019B23F07F43A7
:1096F000019309990398FFF78BFF039B1B6818469A
:10970000FFF724FE0790039B1B6802991846FFF79A
:10971000DBFD0690039B1B68079A02991846FFF72A
:10972000C5FD039B1B68BDF8222011461846FFF7B4
:10973000F8FD07990698FFF7B3FF0346012B0AD1FE
:109740001020FFF79BFD039B1B68BDF822201146EC
:109750001846FFF7E6FD039B1B681846FFF7F6FD6A
:10976000079007990198FFF79BFF0590039B1B68E3
:1097700009991846FFF719FE059B012B15D1039B8C
:109780001868019B01331A460299FFF78FFD1020DC
:10979000FFF774FD039B1B681846FFF7D7FD0246D1
:1097A000079B934235D00D2339E0039B1B68019A38
:1097B00002991846FFF77AFD039B1B681846FFF7CE
:1097C000C5FD0790019B013B07991846FFF768FF0D
:1097D0000590009BC3F1FF1303F57F43059A9A425E
:1097E00001D90D231BE0059B002B12D1039B1868A8
:1097F000019B01331A460299FFF758FD039B1B6832
:109800001846FFF7A3FD0246079B934201D00D23A4
:1098100005E0012209990398FFF7D6FE00231846B8
:109820000BB05DF804FB00BFB8C3030000B583B004
:1098300001900B468DF803309DF803301A46022143
:109840000198FFF7C1FE00BF03B05DF804FB00B54F
:1098500083B001904FF482710198FFF7F7FE034641
:10986000184603B05DF804FB00B583B00190009189
:109870004FF48032009B02FA03F319460198FFF778
:10988000C7FE00BF03B05DF804FB00B585B00190D2
:109890000091009B50339BB29B00ADF80E30BDF899
:1098A0000E3019460198FFF7D1FE0346184605B061
:1098B0005DF804FB00B583B001900091019B1B682B
:1098C00000991846FFF700FD0346184603B05DF8FF
:1098D00004FB00B583B00190019B1B681846FFF79D
:1098E00035FD0346184603B05DF804FB00B583B0B0
:1098F0000190019B93F904301846FFF741FC00BF2B
:1099000003B05DF804FB000008B5044B1B68044A73
:1099100012681046984700BF08BD00BFB02900205C
:10992000B429002082B00190019B03F00303002BB7
:109930000CBF01230023DBB2184602B070470000C1
:1099400000B585B00190002303930EE00B4A039B02
:1099500052F82330002B05D0084A039B52F82330DD
:1099600001989847039B01330393039B032BEDD985
:1099700000BF00BF05B05DF804FB00BFC829002090
:1099800082B001900091019B1B78013B052B61D8AF
:1099900001A252F823F000BFB1990200B999020068
:1099A000DF990200119A0200319A02004D9A0200DA
:1099B000009B00221A704EE0009B01221A70019B4E
:1099C0001A89009B9A81019B9A88009BDA81019BEE
:1099D000DA68009B9A60009B00221A743BE0009BAF
:1099E00002221A70019B1A89009B9A81019B9A8816
:1099F000009BDA81019BDA68009B9A60019B9B7D4A
:109A0000062B0CBF01230023DAB2009B1A7422E05C
:109A1000009B03221A70019BDA88009B9A81019BAC
:109A20001A89009BDA81019BDA68009B9A6012E038
:109A3000009B04221A70019BDA88009B9A81009B8C
:109A40000022DA81009B00229A6004E0009B05223C
:109A50001A7000E000BF00BF02B0704784B00190F0
:109A60000091019B0393039A009B9A4206D2039BA9
:109A70001B68B3F1FF3F01D0012300E0002303F096
:109A80000103DBB2184604B0704782B00190019B1D
:109A90005B8803339B00019A1344184602B0704759
:109AA00000B583B0019000910198FFF7EEFF0246E8
:109AB000009B934201D2022311E0019B9B884FF649
:109AC000FF72934208D0019B1B88002B04D0019B9E
:109AD0009B68B3F1FF3F01D1012300E0002318464A
:109AE00003B05DF804FB000000B583B00190019B5A
:109AF000002B13D00D4BDB681A46019B93420DD30C
:109B00000A4B1B691A46019B934207D80198FFF73D
:109B100009FF0346002B01D0012300E0002303F0DE
:109B20000103DBB2184603B05DF804FB602200209D
:109B300082B003460A46ADF806301346ADF804304D
:109B4000BDF80620134913469B0013449B000B44A9
:109B500008331A88BDF804301344ADF80430BDF85A
:109B600006200C4913469B0013449B000B440A3308
:109B70001A88BDF804301344ADF80430BDF8043041
:109B8000B3F5806F94BF01230023DBB2184602B007
:109B9000704700BFEC29002084B00190009148F28A
:109BA000096303930023ADF80A3027E0BDF80A20CB
:109BB000164913469B0013449B000B4404331B6857
:109BC000009A9A4215D9BDF80A20104913469B0005
:109BD00013449B000B4404331B6803F58053009A25
:109BE0009A4206D200230393019BBDF80A201A80F3
:109BF00008E0BDF80A300133ADF80A30BDF80A308C
:109C0000012BD3D9039B184604B07047EC290020E0
:109C100082B001900091009B9B7D022B09D9019B92
:109C20001A89009BDB8813449BB203339AB2019BD1
:109C30001A81019B5A89009BDB88D31A9BB2033B94
:109C40009AB2019B5A8100BF02B0704700B583B041
:109C5000074B1B681946002300930823054A064852
:109C600002F03CF90346184603B05DF804FB00BF60
:109C7000142A002094C403006022002000B585B09F
:109C800003900399002300930823044A044802F038
:109C900025F90346184605B05DF804FB9CC4030093
:109CA0006022002000B585B003460091ADF8063073
:109CB00000238DF80F30BDF806300333ADF80A30BD
:109CC000BDF80A3040F2FE32934202D948F20863EE
:109CD0004BE00023ADF80C303BE0BDF80C202549EB
:109CE00013469B0013449B000B441B78002B2BD185
:109CF000BDF80A20BDF80C3011461846FFF718FFD2
:109D00000346002B20D001238DF80F30009BBDF8B7
:109D10000C201A80BDF80C20164913469B001344F2
:109D20009B000B440A331988BDF80C20BDF80A309B
:109D30000B4498B20F4913469B0013449B000B44FD
:109D40000A3302461A8008E0BDF80C300133ADF842
:109D50000C30BDF80C30012BBFD99DF80F30002B13
:109D600001D0002301E048F20663184605B05DF813
:109D700004FB00BFEC29002082B003460A46ADF880
:109D800006301346ADF80430BDF804200D491346E3
:109D90009B0013449B000B440A331A88BDF806301D
:109DA000D31A9BB2BDF80420033B98B20549134671
:109DB0009B0013449B000B440A3302461A8000BFE9
:109DC00002B07047EC29002008B50121024801F0DB
:109DD00060FB0346184608BDD829002000B585B0B1
:109DE00003460091ADF80630BDF80620244913461D
:109DF0009B0013449B000B4404331B6803F5805302
:109E00000293009B1B680393039B002B04D00398D1
:109E1000FFF73BFE039026E0BDF8062018491346E5
:109E20009B0013449B000B4404331B6808330393CB
:109E300019E002990398FFF733FE0346022B10D076
:109E4000022B10DC002B02D0012B05D00BE0009B75
:109E5000039A1A6001230EE00398FFF716FE0390A1
:109E600001E0002307E002990398FFF7F7FD03469E
:109E7000002BDED10023184605B05DF804FB00BFBF
:109E8000EC29002000B585B001900091019B5B6832
:109E90001846FFF729FE0346002B19D0019B1A89AB
:109EA000244B1B899A4213D1019B1A68019B5B6862
:109EB0009B689A420CD1019B5B6819460098FFF79A
:109EC0006BFE0346002B0CBF01230023DBB22CE00A
:109ED000009B00221A8023E00023029310E0029BE3
:109EE0000393039B9A68019B1B689A4208D1029ACC
:109EF000019B5A600F4B1A89019B1A81012314E0C0
:109F0000009B1B8802AA11461846FFF767FF03460D
:109F1000002BE4D1009B1B8801339AB2009B1A806E
:109F2000009B1B88012BD7D90023184605B05DF88C
:109F300004FB00BF1C2A002000B587B003900291EB
:109F400001920093324B1B78DBB283F00103DBB24A
:109F5000002B02D048F2016355E0019B002B02D098
:109F6000009B002B49D148F204634CE0009B9B8886
:109F70001946284A0B469B000B449B0013441B7850
:109F8000002B33D124E0009B1B680593039B002B1F
:109F900006D0059B9A88039B1B889A4200D017E045
:109FA000029B002B06D0059B1A88029B1B889A42B5
:109FB00000D00DE0059B9A68019B1A60009B1A680F
:109FC000019B5A60144B1A89019B1A8100231AE0E5
:109FD000009B9B88009A11461846FFF7FFFE034638
:109FE000002BD0D1009B00221A6000E000BF009B34
:109FF0009B8801339AB2009B9A80009B9B88012B1F
:10A00000B4D948F20963184607B05DF804FB00BFF5
:10A01000BC290020EC2900201C2A002000B585B0B6
:10A020000190084B0199184601F07EF803901C221C
:10A030000021039811F06DFE039B184605B05DF8F2
:10A0400004FB00BFDC29002000B583B00190044B65
:10A050000199184601F081F800BF03B05DF804FBD8
:10A06000DC29002000B583B00190054B019918460A
:10A0700001F087F80346184603B05DF804FB00BF03
:10A08000DC29002000B583B00190044B01991846EB
:10A0900001F090F800BF03B05DF804FBDC2900205C
:10A0A00008B50A4B1B68002B04D109494FF42470F2
:10A0B00007F0AAF90121054801F003FA0346002B35
:10A0C00014BF01230023DBB2184608BDC4290020B9
:10A0D00058C4030000B587B003900291039B02228D
:10A0E0009A750299039B1A1D0023009304230748C5
:10A0F00001F0F4FE0590059B002B01D1002301E047
:10A1000048F20D63184607B05DF804FB602200209A
:10A1100000B587B003900291039B1B69002B01D00F
:10A12000032200E00122039B9A75029B0833194623
:10A13000039B03F10C02002300930423074801F062
:10A14000CDFE0590059B002B01D1002301E048F2D4
:10A150000D63184607B05DF804FB00BF60220020C5
:10A1600000B587B003900291039B1B78032B01D1AC
:10A17000052200E00622039B9A75029B04331946D0
:10A18000039B03F10802002300930423074801F016
:10A19000A5FE0590059B002B01D1002301E048F2AC
:10A1A0000D63184607B05DF804FB00BF6022002075
:10A1B00000B587B003900B46ADF80A300399002331
:10A1C000009304230D4A0E4801F088FE0590059B7C
:10A1D000002B02D048F20D630BE0BDF80A200949BC
:10A1E00013469B0013449B000B44103301221A704A
:10A1F0000023184607B05DF804FB00BFA4C40300A9
:10A2000060220020EC29002000B589B0019002AB4B
:10A2100000221A605A609A60019BDB6802930DF17C
:10A22000160202AB11461846FFF72CFE0346002B20
:10A2300012D0039B0693069B9A88019BDA80069BAB
:10A240001A88019B1A81039BBDF8162011461846F7
:10A25000FFF7AEFF079002E048F209630793079B00
:10A26000184609B05DF804FB00B587B00190019B6A
:10A27000981D02AA0D4B0021FFF75EFE0590059B7D
:10A28000002B08D1039B094A928811461846FFF714
:10A290008FFF059004E008220021044811F039FDE9
:10A2A000059B184607B05DF804FB00BF2C2A002070
:10A2B00000B587B003900291039B01229A75029B1F
:10A2C0000C331846039B1A69039BDB889B00002113
:10A2D00000910146074801F001FE0590059B002B07
:10A2E00001D1002301E048F20D63184607B05DF884
:10A2F00004FB00BF6022002082B0184B1B89013391
:10A300009AB2164B1A81154B00225A80134B002229
:10A310001A730023ADF8063018E0BDF80620104986
:10A3200013469B0013449B000B441A78BDF806307B
:10A33000002A0CBF01220022D1B2084A13440A4667
:10A340009A72BDF806300133ADF80630BDF806301C
:10A35000012BE2D900BF00BF02B070471C2A0020C9
:10A36000EC29002084B0019000238DF80F300023E9
:10A37000ADF80C3031E0BDF80C301C4A13449B7A28
:10A38000002B25D0BDF80C30184A134400229A72D5
:10A39000BDF80C20164913469B0013449B000B4448
:10A3A0000C331B68002B13D1BDF80C201049134649
:10A3B0009B0013449B000B4410331B78002B07D0E9
:10A3C000019BBDF80C201A8001238DF80F3008E0A6
:10A3D000BDF80C300133ADF80C30BDF80C30012B5A
:10A3E000C9D99DF80F30184604B070471C2A0020C8
:10A3F000EC29002008B5084B05221A70074B0222F1
:10A400009A80064B1B68194600230122044801F07C
:10A4100047FE0346184608BD1C2A0020142A0020C7
:10A420006022002000B583B0164B5B88ADF8023087
:10A43000BDF80220144913469B0013449B000B44B3
:10A440000C331B68002B14D10E4B04221A70BDF87C
:10A4500002200D4913469B0013449B000B44043318
:10A460001B68194600230122084801F019FE0190DB
:10A4700002E0FFF7BFFF0190019B184603B05DF8B3
:10A4800004FB00BF1C2A0020EC29002060220020D1
:10A4900000B587B0104B5B680593104B1A680F4BE3
:10A4A0009B889B0013440493059B5B880333ADF8A2
:10A4B0000E30094B03221A700499074B5A68BDF8F5
:10A4C0000E309B0000200090054801F007FD034678
:10A4D000184607B05DF804FB1C2A0020142A00204F
:10A4E0006022002000B583B00A4B5B880A491846F9
:10A4F000FFF774FC0346002B03D0FFF7C9FF019060
:10A5000002E0FFF78FFF0190019B184603B05DF852
:10A5100004FB00BF1C2A0020202A002008B50A4B9B
:10A5200006221A70084B5B881946084A0B469B00A6
:10A530000B449B00134404331B681846FFF79EFB33
:10A540000346184608BD00BF1C2A0020EC29002045
:10A5500008B5054B07221A70034B00225A60FFF71B
:10A5600075FB0346184608BD1C2A002008B50D4897
:10A57000FFF7F8FE034683F00103DBB2002B0BD09C
:10A58000094B00221A70084B00225A80064B002209
:10A590005A6041F61D5302E0FFF7A4FF0346184638
:10A5A00008BD00BF1E2A00201C2A002082B0094BD3
:10A5B0005B680193019B5B880333ADF80230064B67
:10A5C0009A88BDF8023013449AB2034B9A8000BFB8
:10A5D00002B070471C2A0020142A002082B01E4BB3
:10A5E0001B6801931D4B5B8819461D4A0B469B0057
:10A5F0000B449B00134404331B68174A1360174B2A
:10A600005B881946164A0B469B000B449B0013447B
:10A610000433019A1A60114B5B8819460E4B9888D7
:10A620000F4A0B469B000B449B0013440833024621
:10A630001A80094B02229A80084B5B881946084A07
:10A640000B469B000B449B001344103300221A70EE
:10A6500000BF02B0704700BF142A00201C2A00204F
:10A66000EC29002008B51A4B1B78072B2CD801A227
:10A6700052F823F095A60200C9A60200C9A602005E
:10A68000A1A60200ADA60200B9A60200B9A602006A
:10A69000C1A60200FFF730FE0D4B01221A7014E034
:10A6A000FFF784FF0A4B02221A700EE0FFF796FFB5
:10A6B000074B06221A7008E0054B07221A7004E0C7
:10A6C000034B01221A7000E000BF00BF08BD00BFAD
:10A6D0001C2A002000B587B00190009148F20E635B
:10A6E0000593019B002B05D0634B00225A604FF469
:10A6F0000643BCE0009B1B79032B00F2AB8001A258
:10A7000052F823F015A7020023A70200B1A7020008
:10A71000D1A70200009B01221A71FFF797FA05905A
:10A720009BE000238DF813300023ADF810302BE0B0
:10A73000BDF81020514913469B0013449B000B4465
:10A740001B78022B1BD1BDF810204C4913469B00EF
:10A7500013449B000B4400221A7001238DF8133020
:10A76000BDF81020454913469B0013449B000B4441
:10A7700004331B681846FFF781FA059008E0BDF81E
:10A7800010300133ADF81030BDF81030012BCFD9A7
:10A790009DF8133083F00103DBB2002B5CD0364B05
:10A7A00001221A70344B00225A6041F61D535EE0BC
:10A7B000009B00221A71324B02229A80304B1B6898
:10A7C0001946002301222F4801F06AFC059044E05D
:10A7D000009B00221A712A4B1B681846FFF74EFA9D
:10A7E0000590294B5B88ADF80E30254B1B68029312
:10A7F000BDF80E20214913469B0013449B000B44D7
:10A8000004331B681E4A1360BDF80E201B49134613
:10A810009B0013449B000B440433029A1A60BDF85A
:10A820000E20174B9888154913469B0013449B0034
:10A830000B44083302461A80114B02229A80BDF85D
:10A840000E200E4913469B0013449B000B4400222C
:10A850001A7002E000BF00E000BF059B002B05D08E
:10A86000054B00225A6048F20D6300E000231846B1
:10A8700007B05DF804FB00BFBC290020EC290020D4
:10A88000142A0020602200201C2A002000B587B076
:10A8900001900091009B9B8A1A4613469B0013442B
:10A8A0009B003B4A13440493019B002B06D0009964
:10A8B0000498FFF7ADF94FF4064364E0049B5A682F
:10A8C000049B1B899B0013440393009B9B7D062BD9
:10A8D0004DD801A252F823F01DA9020041A902009F
:10A8E00029A9020035A90200F5A802004DA902001D
:10A8F00067A90200274B00225A60009B9B69254AEA
:10A90000136025492348FFF7BDFA034683F001038E
:10A91000DBB2002B02D048F2096334E003990098BF
:10A92000FFF7D8FB059026E003990098FFF7F0FBAE
:10A93000059020E003990098FFF7BAFC05901AE013
:10A9400003990098FFF70CFC059014E0009B062289
:10A950009A75104B5B68104A128811461846FFF72B
:10A9600027FC059007E041F61D53059303E048F2EC
:10A970000E63059300BF059B002B03D0009904983C
:10A98000FFF746F9059B184607B05DF804FB00BFCA
:10A99000EC290020342A0020402A002000B585B090
:10A9A00001900091019B002B02D04FF4064329E057
:10A9B000009B1B79022B1BD0022B1DDC002B02D02D
:10A9C000012B08D018E0009B02221A710098FFF7B3
:10A9D0001BFC039015E00098FFF746FC0390039BD7
:10A9E00048F2096293420BD141F61D53039307E0ED
:10A9F00041F61D53039304E048F20E63039300E015
:10AA000000BF039B184605B05DF804FB00B585B098
:10AA10000190019B002B02D04FF406433DE0214BF7
:10AA20001B7B002B03D01F4B00221A7301E0FFF7A2
:10AA300019FE1C4B1B78013B062B29D801A252F8AA
:10AA400023F000BF61AA020069AA020071AA0200F5
:10AA500079AA020091AA020081AA020089AA020032
:10AA6000FFF784FD039017E0FFF73CFD039013E030
:10AA7000FFF70EFD03900FE0FFF7D4FC03900BE00F
:10AA8000FFF74CFD039007E0FFF762FD039003E042
:10AA900048F20E63039300BF039B184605B05DF8B0
:10AAA00004FB00BF1C2A002000B589B00190404B78
:10AAB0001B68002B05D13F48FFF7D4FA03463C4AF8
:10AAC00013603B4B1B68002B04D13B4940F29E5066
:10AAD00006F09AFC364B1B681B78013B052B2CD8E3
:10AAE00001A252F823F000BF01AB020011AB02003B
:10AAF00011AB020021AB020021AB020031AB02001E
:10AB00002B4B1B6819460198FFF7E4FD019018E0F4
:10AB1000274B1B6819460198FFF7B8FE019010E01B
:10AB2000234B1B6819460198FFF738FF019008E096
:10AB30000198FFF76BFF019003E048F20E63019369
:10AB400000BF019B002B2BD003AB00221A605A6080
:10AB50009A60DA601A61019B41F61D52934201D05E
:10AB6000019B00E000230493114B1B6803AA1146CC
:10AB70001846FEF705FF03AB1846FEF7E1FE0C4B47
:10AB800000221A60002301930A48FFF77BFAFFF7BF
:10AB900087FA034683F00103DBB2002B02D186E77C
:10ABA00000BF00E000BF00BF09B05DF804FB00BFBC
:10ABB000442A0020482A002058C4030008B5012177
:10ABC000054800F04EFC0346002B02D10020FFF7A1
:10ABD0006BFF00BF08BD00BFC429002000B583B0D3
:10ABE0000190019B5B681846FFF75EFF00BF03B052
:10ABF0005DF804FB00B58BB00390029101928DF8D3
:10AC000003300023ADF824300023ADF82630534B39
:10AC10001B78DBB283F00103DBB2002B02D048F2D9
:10AC2000016397E0029B002B02D148F2046391E09C
:10AC3000029B1B884FF6FF72934203D0029B5B88F6
:10AC4000002B02D148F2036384E0029B5B68184644
:10AC5000FEF768FE034683F00103DBB2002B02D04F
:10AC600048F2026376E0019B002B11D1029B9B68A6
:10AC7000ADF826300DF11A02BDF8263011461846FF
:10AC8000FFF710F80890089B002B09D0089B61E0A3
:10AC9000019B1B88ADF81A30019B5B88ADF826300C
:10ACA00005AB1846FFF7BAF90790079B002B0AD1AE
:10ACB000BDF81A20BDF8263011461846FFF75CF89B
:10ACC00048F2076346E0079B9DF803201A70079B34
:10ACD00000229A75BDF81A20079B9A82029B5A6837
:10ACE000079B1A61FFF770F80246079BDA60029B28
:10ACF0001A88079B1A81029B5A88079B9A80079B98
:10AD0000BDF82620DA809DF80330032B06D1079B7F
:10AD100004229A75039B1A68079B9A61079BBDF8EA
:10AD200024205A8105AB1846FFF78EF9039B002BB0
:10AD30000DD0039B00225A60079BDA68039B1A60C0
:10AD4000039B00229A72064B1A89039B1A81FFF714
:10AD500035FF002318460BB05DF804FBBC2900202A
:10AD60001C2A002000B585B001900091019B002BAA
:10AD700002D0009B002B02D148F204632AE00DF1BF
:10AD80000A0319460198FFF77DF80346002B1FD0F0
:10AD9000019B5B680393BDF80A301A4613469B007B
:10ADA00013449B0008330D4A134404330121184611
:10ADB00000F06FFB009B039A1A60019B5B6803F134
:10ADC0000C02009B5A60019B01229A72002301E051
:10ADD00048F20963184605B05DF804FBEC29002031
:10ADE00000B585B00190019B002B02D148F20463AD
:10ADF0003BE00DF10A0319460198FFF743F80346BB
:10AE0000002B2ED0BDF80A3019461A4A0B469B007B
:10AE10000B449B0013440C331B68002B1DD0019B7B
:10AE20009B7A002B19D0BDF80A301A4611491346F7
:10AE30009B0013449B000B440C331B68591E0D48A8
:10AE400013469B0013449B0003440C331960019B81
:10AE500000229A720023039306E048F205630393ED
:10AE600002E048F209630393039B184605B05DF8BE
:10AE700004FB00BFEC29002000B583B001900091D5
:10AE80000223002200990198FFF7B4FE03461846FA
:10AE900003B05DF804FB00B583B001900091019B05
:10AEA000002B02D148F2046306E00323002200993C
:10AEB0000198FFF79FFE0346184603B05DF804FBB8
:10AEC00000B585B00346ADF806301A4B1B78DBB2EF
:10AED00083F00103DBB2002B02D048F2016324E0CF
:10AEE000BDF806304FF6FF72934202D148F2036379
:10AEF0001BE002AB1846FFF791F80390039B002B71
:10AF000002D148F2076310E0039B05221A70039BED
:10AF100001221A71039BBDF80620DA8002AB1846A5
:10AF2000FFF792F8FFF74AFE0023184605B05DF8D8
:10AF300004FB00BFBC29002000B585B0029201933C
:10AF40000346ADF80E300B46ADF80C3003A90DF1F9
:10AF50000E00019B029AFEF7EFFF0346184605B06C
:10AF60005DF804FB00B585B0034602910192ADF88F
:10AF70000E300DF10E01019B029A0020FEF7DCFF5E
:10AF80000346184605B05DF804FB00B585B00346DE
:10AF900002910192ADF80E300DF10E00019B029A64
:10AFA0000021FEF7C9FF0346184605B05DF804FB13
:10AFB00082B001900091019B002B02D0009B002BDE
:10AFC00002D148F2046304E0019B1A68009B1A60F6
:10AFD0000023184602B0704786B001900091019B93
:10AFE00053E8011F8AB2D88902449889824228BF57
:10AFF000121A1889824202BFBFF32F8F002307E085
:10B00000C2EA010243E801200028E9D14FF0010320
:10B010008DF80F30059002910492029A009B1A60FD
:10B020009DF80F30DBB2184606B0704784B001902F
:10B03000019951E8013FC3EA034341E80132002A84
:10B04000F7D10392029300BF04B0704786B001901D
:10B050000091019B53E8021F1FFAA1F2D888824297
:10B0600002BFBFF32F8F00230DE0D88902449889D7
:10B07000824228BF121AC1EA024243E80220002895
:10B08000E8D14FF001038DF80F3005900291049242
:10B09000029A009B1A609DF80F30DBB2184606B08A
:10B0A000704784B00190019951E8023FC3EA2343FD
:10B0B00041E80232002AF7D10392029300BF04B0A4
:10B0C000704784B00390029111461A460B46ADF8C2
:10B0D00006301346ADF80430029B002B01D10E233D
:10B0E0001FE0BDF80630BDF80420B3FBF2F101FB10
:10B0F00002F29B1A9BB2002B01D0092311E0039BA3
:10B10000029A1A60039B00225A60039B00229A60F5
:10B11000039BBDF806209A81039BBDF80420DA81C9
:10B120000023184604B0704700B585B00190009127
:10B13000009B19460198FFF74FFF0346002B07D0ED
:10B14000019B1B68009A128813440393039B00E041
:10B150000023184605B05DF804FB00B583B00190EC
:10B160000091009B1A88009B5B889A4204D1019849
:10B17000FFF75CFF012300E00023184603B05DF8F1
:10B1800004FB00B585B001900091009B1946019821
:10B19000FFF75CFF0346002B07D0019B1B68009A5A
:10B1A000528813440393039B00E00023184605B024
:10B1B0005DF804FB00B583B001900091009B1A88F4
:10B1C000009B5B889A4204D10198FFF76AFF012334
:10B1D00000E00023184603B05DF804FB00B585B01D
:10B1E00001900091009B5B099B00019A1A44009B0F
:10B1F00003F01F03012101FA03F31946104600F082
:10B20000E8F8039000BF05B05DF804FB00B583B01B
:10B2100001900091009B5B099B00019A1A44009BDE
:10B2200003F01F03012101FA03F31946104600F051
:10B23000B8F80246009B03F01F0322FA03F303F061
:10B240000103002B14BF01230023DBB2184603B017
:10B250005DF804FB00B585B001900091009B5B098F
:10B260009B00019A1A44009B03F01F03012101FA7D
:10B2700003F3DB431946104600F0DBF8039000BFF0
:10B2800005B05DF804FB82B001900091009B5B0962
:10B290009B00019A13441A68009B03F01F0322FAD3
:10B2A00003F303F00103002B14BF01230023DBB2DF
:10B2B000184602B0704700B58DB001900091002390
:10B2C0000B934BE00B9B9B00019A13441B68DB43E1
:10B2D0000793079B93FAA3F30693069B0893089B97
:10B2E000002B01D1202303E0089BB3FA83F3DBB2E8
:10B2F0000A932BE00B9B5B010A9A13440993099A6A
:10B30000009B9A4226D209990198FFF77FFF0346D6
:10B3100083F00103DBB2002B01D0099B26E00B9BDD
:10B320009B00019A13441B68DB430493049B93FA2C
:10B33000A3F30393039B0593059B002B01D12023CB
:10B3400003E0059BB3FA83F3DBB20A930A9B1F2B3E
:10B35000D0D900E000BF0B9B01330B93009B013B56
:10B360005B0901330B9A9A42ACD3009B18460DB08F
:10B370005DF804FB10B487B001900091019B009A26
:10B3800053E8004F104643E8000191F0000FF7D159
:10B39000059404900391059B184607B05DF8044B93
:10B3A000704710B487B001900091019B009A53E858
:10B3B000004F44EA020043E8000191F0000FF6D18B
:10B3C000059404900391059B184607B05DF8044B63
:10B3D000704710B487B001900091019B009A53E828
:10B3E000004F44EA020043E8000191F0000FF6D15B
:10B3F000059404900391049B184607B05DF8044B34
:10B40000704710B487B001900091019B009A53E8F7
:10B41000004F04EA020043E8000191F0000FF6D16A
:10B42000059404900391059B184607B05DF8044B02
:10B43000704710B487B001900091019B009A53E8C7
:10B44000004F04EA020043E8000191F0000FF6D13A
:10B45000059404900391049B184607B05DF8044BD3
:10B46000704710B487B001900091019B009A53E897
:10B47000004F04EB020043E8000191F0000FF6D109
:10B48000059404900391059B184607B05DF8044BA2
:10B49000704710B487B001900091019B009A53E867
:10B4A000004F04EB020043E8000191F0000FF6D1D9
:10B4B000059404900391049B184607B05DF8044B73
:10B4C000704710B487B001900091019B009A53E837
:10B4D000004FA4EB020043E8000191F0000FF6D109
:10B4E000059404900391049B184607B05DF8044B43
:10B4F000704700B583B0019001210198FFF769FF03
:10B500000346184603B05DF804FB00B583B0019014
:10B5100000210198FFF775FF0346184603B05DF858
:10B5200004FB000000B583B001900B468DF803309A
:10B53000019B002B03D10849E82005F065FF019B22
:10B54000DA689DF803300199098A01FB03F313447B
:10B55000184603B05DF804FBA8C4030000B583B02F
:10B5600001900091019B002B03D10849F52005F0C3
:10B570004BFF009B019AD2689B1A019A128AB3FB77
:10B58000F2F3DBB2184603B05DF804FBA8C4030075
:10B5900000B585B00190019B002B01D10E234CE03A
:10B5A000019B1B68002B03D12649FF2005F02CFFCF
:10B5B000019B5B68002B04D122494FF4807005F099
:10B5C00023FF019B9B68002B04D11E4940F2011010
:10B5D00005F01AFF019BDB68002B04D119494FF4D9
:10B5E000817005F011FF019B1B8A002B04D11549C6
:10B5F00040F2031005F008FF019B9A68019B5B680D
:10B60000D31A8DF80F30019B1B68019A52681A609B
:10B6100007E0019B1A681368591C11609DF80F2000
:10B620001A709DF80F305A1E8DF80F20002BF0D1A4
:10B63000019B1B6800221A710023184605B05DF8B3
:10B6400004FB00BFA8C4030000B585B00190019BB6
:10B65000002B04D11F494FF4927005F0D5FE002352
:10B66000039300238DF80A300DF10A031846FDF705
:10B670001FFD019B1B681A68019B5B689A421FD9DA
:10B68000019B1B681A68013A1A601B681B781946EF
:10B690000198FFF747FF0390019B9A68019B1B6885
:10B6A0001B68D31A8DF80B30019B1B681B799DF822
:10B6B0000B209A4204D9019B1B689DF80B201A713C
:10B6C0009DF80A301846FDF709FD039B184605B0A2
:10B6D0005DF804FBA8C4030010B584B0019000918C
:10B6E000019B002B04D1154940F2471005F08CFE58
:10B6F000009B002B04D111494FF4A47005F084FE87
:10B70000009B039300238DF80B300DF10B031846BB
:10B71000FDF7CEFC019B1B681C68621C1A60039934
:10B720000198FFF71BFF034623709DF80B30184666
:10B73000FDF7D4FC00BF04B010BD00BFA8C40300D7
:10B7400000B583B00190019B002B03D10C4931203F
:10B7500005F05AFE019B9B68002B0CD0019B5B6996
:10B76000019A1069019A1168019A92689847019BA1
:10B7700000229A6000E000BF03B05DF804FB00BF48
:10B78000ECC403000EB400B584B00190019B002B03
:10B7900003D11849422005F037FE019B5B69002B5D
:10B7A00003D11449432005F02FFE019B1B68002B99
:10B7B00003D11049442005F027FE019B5B68002B54
:10B7C00003D10C49452005F01FFE059B002B0AD034
:10B7D0000023039306AB039303AB1A460599019824
:10B7E00000F0B8F900E000BF04B05DF804EB03B06E
:10B7F000704700BFECC4030000B583B001900B4656
:10B800008DF803309DF803300A2B03D10D210198E8
:10B81000FFF7F2FF019B1A68019B9B68581C019976
:10B82000886013449DF803201A70019B9A68019B5D
:10B830005B689A4202D30198FFF782FF00BF03B012
:10B840005DF804FB00B587B003900291019200936C
:10B8500000230593009B03F00103002B24D00BE091
:10B86000029B01330293059B013305939DF813302E
:10B8700019460398FFF7C0FF029B1B788DF8133021
:10B880009DF81330002BEBD106E0019B013B0193A7
:10B8900020210398FFF7B0FF019A059B9A422ED909
:10B8A000019B002BF1D12AE0029B002B0BD00298C8
:10B8B00010F062FA059006E0019B013B0193202104
:10B8C0000398FFF799FF019A059B9A420FD9019BB4
:10B8D000002BF1D10BE0029B01330293059B013356
:10B8E00005939DF8133019460398FFF785FF029BD7
:10B8F0001B788DF813309DF81330002BEBD100BF6F
:10B9000007B05DF804FB000000B589B00390029118
:10B9100001920093029B07930123069307E0079A85
:10B92000019BB2FBF3F30793069B01330693079A3F
:10B93000019B9A42F3D2009A069B9A4201D9009B3E
:10B9400006930B9B03F00103002B22D10A9B002BD3
:10B950001FD00B9B03F00203002B06D0009B002B93
:10B9600003D130238DF8173002E020238DF81730F3
:10B9700008E00A9B013B0A939DF81730194603988B
:10B98000FFF73AFF0A9B002B03D0069A0A9B9A42C4
:10B99000EFD301230793009B012B03D9009B013BAD
:10B9A000009309E0029A079BB2FBF3F30493049A15
:10B9B000019B9A4200D205E0079B019A02FB03F328
:10B9C0000793E8E7029A079BB2FBF3F30493049B07
:10B9D000079A02FB03F3029AD31A0293154A049BB7
:10B9E00013441B7819460398FFF706FF079A019B3B
:10B9F000B2FBF3F30793079B002BE3D10B9B03F000
:10BA00000103002B11D00A9B002B0ED006E00A9BED
:10BA1000013B0A9320210398FFF7EEFE0A9B002BBF
:10BA200003D0069A0A9B9A42F1D300BF09B05DF891
:10BA300004FB00BF6CC5030000B589B005900491FC
:10BA400003920293049B002BB8BF5B420693012331
:10BA5000079307E0039B069A92FBF3F30693079B79
:10BA600001330793039B069A9A42F3DA029A079BE3
:10BA70009A4201D9029B07930A9B002B0AD0049B90
:10BA8000002B04DB0B9B03F00403002B02D00A9B6A
:10BA9000013B0A930B9B03F00203002B02D0029B95
:10BAA000002B16D00B9B03F00103002B11D10A9B36
:10BAB000002B0ED006E00A9B013B0A93202105983B
:10BAC000FFF79AFE0A9B002B03D0079A0A9B9A4223
:10BAD000F1D3049B002B07DA049B5B4204932D21D6
:10BAE0000598FFF789FE08E00B9B03F00403002B89
:10BAF00003D02B210598FFF77FFE0B9B03F0020379
:10BB0000002B19D00B9B03F00103002B14D1029BD7
:10BB1000002B11D10A9B002B0ED006E00A9B013BA3
:10BB20000A9330210598FFF767FE0A9B002B03D08C
:10BB3000079A0A9B9A42F1D304990B9B01930A9BA3
:10BB40000093029B039A0598FFF7DEFE00BF09B041
:10BB50005DF804FB00B58FB0059004910392059B3E
:10BB6000002B04D1AD4940F2522005F04DFC059B5D
:10BB70005B69002B04D1A9494FF4157005F044FC12
:10BB8000059B1B68002B04D1A44940F2552005F009
:10BB90003BFC059B5B68002B04D1A04940F256207A
:10BBA00005F032FC049B002B00F09381049B1B7872
:10BBB0008DF83730049B013304939DF83730002B08
:10BBC00000F07E819DF83730252B40F06D810023F9
:10BBD0000A9301230C93049B1B788DF837309DF852
:10BBE0003730302B0DD0302B1BDC2B2B11D02D2BD5
:10BBF00017D10A9B43F001030A93049B013304937A
:10BC000012E00A9B43F002030A93049B013304935E
:10BC10000AE00A9B43F004030A93049B0133049354
:10BC200002E000230C9300BF0C9B002BD3D1002318
:10BC300009939DF837302A2B0CD1039B1B68191DE3
:10BC4000039A11601B68099A13440993049B0133FA
:10BC500004931AE0049B1B788DF837309DF8373039
:10BC60002F2B12D99DF83730392B0ED8049B013376
:10BC70000493099A13469B0013445B001A469DF8EF
:10BC800037301344303B0993D3E700230B93049BD5
:10BC90001B788DF837309DF837302E2B1DD1049B43
:10BCA00001330493049B1B788DF837309DF83730AF
:10BCB0002F2B12D99DF83730392B0ED8049B013326
:10BCC00004930B9A13469B0013445B001A469DF89D
:10BCD00037301344303B0B93E4E7049B1B788DF81B
:10BCE00037309DF837306C2B03D09DF83730682BF8
:10BCF00007D1049B01330493049B1B788DF83730E4
:10BD0000EFE79DF83730252B00F0C480252BC0F2DB
:10BD1000C680782B00F3C380582BC0F2C080583BFC
:10BD2000202B00F2BC8001A252F823F021BE0200B9
:10BD30009FBE02009FBE02009FBE02009FBE020087
:10BD40009FBE02009FBE02009FBE02009FBE020077
:10BD50009FBE02009FBE0200B1BD0200D3BD020023
:10BD60009FBE02009FBE02009FBE02009FBE020057
:10BD7000D3BD02009FBE02009FBE02009FBE020014
:10BD80009FBE02009FBE02009FBE020061BE020075
:10BD90009FBE02009FBE020045BE02009FBE020081
:10BDA000F7BD02009FBE02009FBE020021BE02003E
:10BDB000039B1B68191D039A11601B680C930C9B55
:10BDC0008DF81F309DF81F3019460598FFF714FDB8
:10BDD00066E0039B1B68191D039A11601B680C9396
:10BDE0000A9B0193099B00930B9B0A220C990598CF
:10BDF000FFF722FE54E0039B1B68191D039A116094
:10BE00001B680C930C990A9B0193099B00930B9B55
:10BE10000A220598FFF778FD42E000BF28C503001D
:10BE2000039B1B68191D039A11601B680C930C99E6
:10BE30000A9B0193099B00930B9B10220598FFF727
:10BE400063FD2DE0039B1B68191D039A11601B689D
:10BE500008930A9B099A08990598FFF7F3FC1FE0DD
:10BE6000039B1B68191D039A11601B680C933021FA
:10BE70000598FFF7C1FC78210598FFF7BDFC0C99E8
:10BE80000023019308230093082310220598FFF74D
:10BE90003BFD05E025210598FFF7AEFC00E000BF63
:10BEA000049B0133049305E09DF83730194605984B
:10BEB000FFF7A2FC049B1B78002B7FF477AE00E019
:10BEC00000BF059B1B7B002B04D00598FFF738FCB7
:10BED00000E000BF0FB05DF804FB00BF10B586B0F6
:10BEE0000590049103920293059B002B10D1604AA8
:10BEF000604BD31ADB081B0443F001005E4A5F4924
:10BF00000E2300930B465E49FBF781FF0E23ABE047
:10BF1000039B002B10D1564A564BD31ADB081B0447
:10BF200043F00100574A55490E2300930B465449EC
:10BF3000FBF76DFF0E2397E0059B1B68002B10D1CC
:10BF40004B4A4C4BD31ADB081B0443F001004E4A0A
:10BF50004A49082300930B464949FBF758FF082339
:10BF600082E0029B002B10D1414A424BD31ADB08DE
:10BF70001B0443F00100454A4049092300930B4646
:10BF80003F49FBF744FF09236EE0059B5B685A6855
:10BF9000029BB3FBF2F101FB02F29B1A002B10D0C3
:10BFA000334A344BD31ADB081B0443F00100384AF0
:10BFB0003249092300930B463149FBF728FF092337
:10BFC00052E0049800F01EF90346002B10D1284AD5
:10BFD000284BD31ADB081B0443F001002D4A2749E4
:10BFE000102300930B462649FBF711FF10233BE07B
:10BFF000039B184600F006F90346002B10D11C4A9B
:10C000001C4BD31ADB081B0443F00100224A1B49D6
:10C01000102300930B461A49FBF7F9FE102323E087
:10C02000029A0499059800F0D3F80346002B10D12A
:10C030000F4A104BD31ADB081B0443F00100174AC8
:10C040000E49102300930B460D49FBF7E0FE102329
:10C050000AE0059B1B68DC68089B0093029B039A1F
:10C0600004990598A0470346184606B010BD00BFC6
:10C070000CBF0300A4BE03008CC5030030C703003F
:10C0800094C5030020C60300C8C50300DCC5030037
:10C0900028C6030054C603006CC6030090C6030004
:10C0A00010B586B00590049103920293059B002B76
:10C0B00010D13E4A3E4BD31ADB081B0443F001006B
:10C0C0003C4A3D490E2300930B463C49FBF79FFE3B
:10C0D0000E2368E0059B1B68002B10D1334A344BBC
:10C0E000D31ADB081B0443F00100354A3249082308
:10C0F00000930B463149FBF78AFE082353E0039B6C
:10C10000002B10D1294A2A4BD31ADB081B0443F019
:10C1100001002C4A2849092300930B462749FBF7C5
:10C1200076FE09233FE00499059800F078F803466D
:10C13000002B10D11D4A1E4BD31ADB081B0443F001
:10C140000100214A1C49102300930B461B49FBF7B1
:10C150005EFE102327E0059B5B681B68039A02FBC9
:10C1600003F31A460499059800F032F80346002BB1
:10C1700010D10E4A0E4BD31ADB081B0443F001000A
:10C18000124A0D49102300930B460C49FBF73FFE62
:10C19000102308E0059B1B681C69029B039A049905
:10C1A0000598A0470346184606B010BD0CBF030013
:10C1B000A4BE03008CC5030044C7030094C503005C
:10C1C000C8C50300DCC50300B8C60300E0C6030011
:10C1D00084B0039002910192039BDB68029A9A4219
:10C1E00009D3029A019B13445A1E039B1B699A426E
:10C1F00001D8012300E0002303F00103DBB218465D
:10C2000004B0704782B00190019B03F00303002B40
:10C210000CBF01230023DBB2184602B0704782B086
:10C2200001900091019B5B681B685A1E009B1340A4
:10C23000002B0CBF01230023DBB2184602B070476D
:10C2400029DF704700BF184628DF704700BF184637
:10C2500000B589B001900091019B1B689B68002B81
:10C2600035D002AB00221A605A609A60DA601A6117
:10C270005A61009B0393019B9B680793019B1B7969
:10C28000002B02D0012B0DD01AE001238DF80830CD
:10C29000019B1B690493019BDB680593019B5B6910
:10C2A00006930DE002238DF80830019BDB684FF404
:10C2B000805202FB03F30493019B5B69069300BF6A
:10C2C000019B1B689B6802AA1046984700E000BFCC
:10C2D00009B05DF804FB00B587B00190019B5A6975
:10C2E000019B9B69D31AB3F5805F28BF4FF480533D
:10C2F00005930422059BB3FBF2F3012B38BF012306
:10C300000593019B1A69019B9B6913440493019B4C
:10C31000DB681A46019B9B6913440393059A0399B2
:10C320000498FFF78DFF0346184607B05DF804FB3D
:10C3300000B583B00190019BDA68019B1B6913442F
:10C340001846FFF781FF0346184603B05DF804FB6B
:10C3500008B5034B03491846FEF72CFF00BF08BD84
:10C360004C2A0020742A002008B5084B08491846BA
:10C37000FEF707FF0346074A1360064B1B68002BB6
:10C3800014BF01230023DBB2184608BD4C2A00204D
:10C39000742A0020702A002000B583B02A4B1B7A33
:10C3A000002B0BD1FFF7E0FF034683F00103DBB264
:10C3B000002B03D0244B00225A6042E0224B022281
:10C3C0001A72224B1B681B79002B02D0012B07D05D
:10C3D0000DE01E4B1B681846FFF77DFF019009E03A
:10C3E0001A4B1B681846FFF7A3FF019002E00323D6
:10C3F000019300BF019B002B03D0019B112B0CD09C
:10C400000FE0114B1B7C83F00103DBB2002B17D034
:10C410000021022000F06EF812E00B4B01221A728C
:10C420000FE00A4B1B6803211846FFF711FF064B6C
:10C4300000221A72044B00225A60FFF789FF00E0C5
:10C4400000BF03B05DF804FB5C2A0020702A0020C6
:10C4500084B001901B4B0022DA60019B1B79002BFA
:10C4600002D0012B19D028E0019B5A69019B9B69DE
:10C47000D31AB3F5805F28BF4FF480530393019B19
:10C480009A69039B1A44019B9A61019B9A69019BDB
:10C490005B699A420ED1012310E0019B1B695A1C73
:10C4A000019B1A61019B1A69019B5B699A4203D146
:10C4B000012303E000BF00E000BF0023184604B0E2
:10C4C000704700BF5C2A002082B00190084BDB68F7
:10C4D0000133074AD360064BDB68082B04D9044BB1
:10C4E0000022DA60012300E00023184602B0704702
:10C4F0005C2A002000B585B001900091019B022BC1
:10C5000002D0019B032B48D1274B1B7A022B05D06D
:10C51000022B35DC002B42D0012B31E000238DF8BB
:10C520000F30019B022B03D0019B032B09D011E09C
:10C530001E4B1B681846FFF78BFF03468DF80F3024
:10C5400008E01A4B1B681846FFF7BEFF03468DF83C
:10C550000F3000BF9DF80F30002B10D0124B00227F
:10C560001A72124B1A68019B022B01D1002300E0C2
:10C570000D2319461046FFF76BFEFFF7E9FE00BFDB
:10C58000094B5B7C83F00103DBB2002B02D0FFF789
:10C5900003FF05E00EF09CFD02E000BF00E000BFDD
:10C5A00005B05DF804FB00BF5C2A0020702A002063
:10C5B00082B0034600918DF80730064B01225A7471
:10C5C000044B1B7A002B0CBF01230023DBB218465F
:10C5D00002B070475C2A002000B583B0034600918A
:10C5E0008DF807309DF80730012B03D09DF80730F8
:10C5F000032B0DD1084B00225A749DF80730012BF4
:10C600000CBF01230023DAB2034B1A74FFF7C4FEF8
:10C6100000BF03B05DF804FB5C2A002000B583B0C6
:10C6200001900198FEF7B4FF0346184603B05DF889
:10C6300004FB00B58BB001900091019B1B8A043B69
:10C640000793009A079B1344DA1C079BB2FBF3F392
:10C650008DF81B300198FEF7F7FF0590059B002B26
:10C6600001D1002338E0059B00221A71059B0122AD
:10C670005A71079B9AB2059BDA80059B09939DF836
:10C680001B30013B0493099B019A1A600023089315
:10C690001DE00198FEF7D8FF0390039B002B0ED0FE
:10C6A000059B5B790133DAB2059B5A71099B039AAA
:10C6B0001A60039B019A1A60039B099304E0059892
:10C6C00000F00EF8002307E0089B01330893089A56
:10C6D000049B9A42DDD3059B18460BB05DF804FB22
:10C6E00000B58BB00190019B0793079B5B798DF898
:10C6F0001B30019B08939DF81B30013B05930023E1
:10C70000099305E0089B1B680893099B0133099373
:10C71000099A059B9A42F5D3089B1B680493019BD9
:10C720000893002309930BE0089B1B680393089967
:10C730000498FEF7D1FF039B0893099B01330993EB
:10C740009DF81B30099A9A42EED300BF00BF0BB090
:10C750005DF804FB00B585B00190019B0393039B3A
:10C76000043301211846FEF794FE00BF05B05DF8C2
:10C7700004FB00B587B00190019B0593059B043332
:10C7800001211846FEF79DFE0346039303AB049375
:10C79000049B1B78002B02D10198FFF7A1FF00BF7B
:10C7A00007B05DF804FB000000B591B00390029162
:10C7B00001920093039B002B03D14349B62004F060
:10C7C00023FE039B0993039B0F93099BDB881A4667
:10C7D000099B5B7902FB03F3043B0893009A089BD7
:10C7E0009A4203D33849C42004F00EFE099BDB882B
:10C7F0000793009B1A1D079BB2FBF3F30E93009B5C
:10C800000433079AB3FBF2F2079901FB02F29B1A79
:10C810000D93019B1A68009B1344089A9A4203D215
:10C82000089A009BD31A01E0019B1B680C93019BA3
:10C830000C9A1A6005E00F9B1B680F930E9B013B3F
:10C840000E930E9B002BF6D100230B93079A0D9BA2
:10C85000D31A0A930A9A0C9B934228BF13460A9351
:10C860002AE0029A0B9B134406930F9A0D9B1344E4
:10C87000043305939DF84830002B05D00A9A05999A
:10C8800006980FF01DFA04E00A9A069905980FF031
:10C8900017FA00230D930F9B1B680F930C9A0A9BAA
:10C8A000D31A0C930B9A0A9B13440B93079A0C9B75
:10C8B000934228BF13460A930C9B002BD1D100BF93
:10C8C00000BF11B05DF804FB58C7030000B589B084
:10C8D0000590049103920293039B079307AA0023F8
:10C8E0000093029B04990598FFF75EFF079B039A4C
:10C8F0009A4203D00349F62004F086FD00BF09B038
:10C900005DF804FB58C7030000B589B00590049199
:10C9100003920293039B079307AA01230093029BB0
:10C9200004990598FFF740FF079B039A9A4204D0A9
:10C9300004494FF4807004F067FD00BF09B05DF852
:10C9400004FB00BF58C7030082B003468DF80730D0
:10C950009DF90730002B0DDB9DF8073003F01F0217
:10C9600006499DF907305B09012000FA02F26033A5
:10C9700041F8232000BF02B0704700BF00E100E093
:10C9800000B583B00190019B002B03D106497220B2
:10C9900004F03AFD019B00221A60BFF35F8F00BFD5
:10C9A00000BF03B05DF804FBF0C7030041DF704730
:10C9B00000BF184600B585B000238DF807300DF193
:10C9C00007031846FCF774FBF1EE103A0393039B40
:10C9D00023F09F030293029BE1EE103A00BFBFF3E6
:10C9E0005F8F00BF2620FFF7AFFF9DF80730184686
:10C9F000FCF774FB039B03F00703002B03D00449EF
:10CA00007D2004F001FD00BF05B05DF804FB00BF10
:10CA100034C8030008B5064B00221A700548FFF71A
:10CA2000AFFF0549054800F027FA0023184608BD66
:10CA30007C2A0020782A00207CC80300802A00205D
:10CA400000B583B0FFF7B6FF0EF05EFB0346002B88
:10CA50000ED0FFF7ABFF0190019B002B0BD0019B89
:10CA6000022B08D006494FF4B07004F0CDFC02E070
:10CA700020BF40BF20BF00BF03B05DF804FB00BF74
:10CA800034C8030082B00190019B9B68024A12786F
:10CA90001344184602B07047CAC8030000B583B0FB
:10CAA00001900091019B002B03D10849832004F0E1
:10CAB000ABFC019B9B68009A9A4202D2009B013317
:10CAC00000E00023184603B05DF804FB88C80300AB
:10CAD00000B585B00190019B1B681B680393019B07
