:020000022000DC
:10700000000004205D730200B9730200BB7302002C
:10701000BD730200BF730200C173020000000000D4
:10702000000000000000000000000000C373020028
:10703000C573020000000000C7730200C97302009C
:107040004DB50200CB730200CDBF0200B5BF0200F8
:1070500025CD0200CB730200A9B90200CB73020058
:10706000CB730200CB730200CB730200CB73020020
:10707000CB730200CB730200CB730200CB73020010
:107080004DC2020021820200CB730200CB730200CA
:10709000CB730200CB730200A5530300CB73020035
:1070A000CB730200CB730200CB730200CB730200E0
:1070B000CB730200CB730200000000000000000050
:1070C000CB730200CB730200CB730200CB730200C0
:1070D000CB730200CB730200CB730200CB730200B0
:1070E000CB730200CB730200CB73020000000000E0
:1070F00000000000CB73020000000000CB73020010
:10710000000000000000000000000000000000007F
:10711000000000000000000000000000000000006F
:10712000000000000000000000000000000000005F
:10713000000000000000000000000000000000004F
:10714000000000000000000000000000000000003F
:10715000000000000000000000000000000000002F
:10716000000000000000000000000000000000001F
:10717000000000000000000000000000000000000F
:1071800000000000000000000000000000000000FF
:1071900000000000000000000000000000000000EF
:1071A00000000000000000000000000000000000DF
:1071B00000000000000000000000000000000000CF
:1071C00000000000000000000000000000000000BF
:1071D00000000000000000000000000000000000AF
:1071E000000000000000000000000000000000009F
:1071F000000000000000000000000000000000008F
:10720000354936480A1A02D0072291438D4634493F
:1072100034480A1A06D00722914381F309880222D2
:1072200082F3148830483149314A00F044F831483B
:107230003149324A00F03FF831483249324A00F0D1
:107240003AF832483249334A00F035F83248334987
:10725000334A00F030F833483349344A00F02BF811
:1072600033483449344A00F026F83448344900227F
:1072700000F02CF833483449002200F027F8334856
:107280003349091A082902DB002202604160314AB1
:1072900090471F481F49884205D00268043003B454
:1072A000904703BCF7E700208646EC46002000210B
:1072B000294A9047FEE7884207D0521A05D0037842
:1072C00001300B700131013AF9D17047884202D088
:1072D00002700130FAE770470000042000E003204C
:1072E0000000042000000420E0790300FC2A0020B4
:1072F000682B0020D0730200D07302006476030074
:10730000E0790300FC2A0020FC2A002028770300F3
:1073100028770300287703002877030028770300E5
:10732000287703002877030028770300E07903001B
:107330004C7A0300682B0020682B0020682B00206B
:10734000CC360020CC360020D0360020D0360020AD
:10735000D056002085730200A5D8020000F036B890
:107360000F484FF00701884385460E4880470E4876
:10737000016841F470010160BFF34F8FBFF36F8F5D
:10738000FFF73EBF09480A490A4A884207D0521A05
:1073900005D0037801300B700131013AF9D1704703
:1073A0000000042059AD020088ED00E014770300CE
:1073B000E82A0020FC2A0020FEE7FEE7FEE7FEE7C1
:1073C000FEE7FEE7FEE7FEE7FEE7FEE7FFF7C8BFE2
:1073D00000487047C436002000B587B001900023F4
:1073E000039300230493019B059303AB1A460021EA
:1073F00044F2010000F018F800BF07B05DF804FB8C
:10740000BFF34F8F00BF064BDB6803F4E062044913
:10741000044B1343CB60BFF34F8F00BF00BFFDE7AA
:1074200000ED00E00400FA0500B585B0039002917C
:10743000019272B600BF044B1B6803F00103002BDE
:1074400000D000BEFFF7DCFFF0ED00E02DE9F043D7
:1074500083B0144800F0CAFE034600221C461546BD
:10746000114BD3E9002314EB020845EB0309CDE9E6
:1074700000890E4BD3E90023DDE90001904271EB56
:10748000030307D2DDE9002312F1807643F1000700
:10749000CDE90067DDE900231046194603B0BDE8D9
:1074A000F08300BFFC2A0020702B0020782B0020E6
:1074B00088B001900091019B0793009B0693079B66
:1074C000D3E90223CDE90423069BD3E90223CDE9C6
:1074D0000223DDE90423DDE90201904271EB03039D
:1074E0002CBF01230023DBB2184608B07047000010
:1074F000F0B585B0019000238DF80F30274B1B7835
:10750000002B45D0019B002B42D0019B1B7FDBB29F
:10751000002B3DD0FFF79AFF019BD3E90223904255
:1075200071EB03032CD3019B1B69002B02D1019B40
:1075300000221A77019B5B69019A9269104698476D
:10754000019B1B69002B23D0019B1B7FDBB2002B0F
:107550001ED0019BD3E902230199096900200C4642
:107560000546161943EB0507019BC3E90267019B1A
:1075700019460B4803F0D0FA01238DF80F3007E0CD
:10758000019B1946064803F0C7FA01238DF80F3016
:107590009DF80F30184605B0F0BD00BF6C2B0020E1
:1075A00028770300F0B589B0019000910D2307936F
:1075B000009B00221A70019BD3E90245FFF746FFAA
:1075C00002460B46A61A65EB0307CDE90467DDE921
:1075D0000423012A73F100031BDB049BB3F5350F71
:1075E00005D300F057FA0246134B134403E0019B06
:1075F000D3E90223134603934FF49603039A002121
:107600000E4800F0FFFC0790079B002B05D10123DB
:107610000EE00021094800F0C3FD079B0D2B06D1A9
:107620000198FFF765FF03461A46009B1A70002376
:10763000184609B0F0BD00BFFFFFB400FC2A0020CF
:1076400000B583B0044803F090FA0190019B1846FE
:1076500003B05DF804FB00BF2877030000B583B0DA
:10766000044803F098FA0190019B184603B05DF8B6
:1076700004FB00BF2877030000B583B0FFF7E0FFED
:107680000190019B002B02D0019B00221A77019BE5
:10769000002BF3D100BF00BF03B05DF804FB000076
:1076A000054BD3E9002312F1807043F10001024B36
:1076B000C3E9000100BF7047702B002000B583B004
:1076C0000190084B1B68002B07D0064B1B6818461F
:1076D000FFF70EFF034B00221A6000BF03B05DF8F6
:1076E00004FB00BF682B002000B583B00190FFF7BA
:1076F000ADFE02460B460349C1E9002300BF03B0BB
:107700005DF804FB782B002000B587B00190FFF7EF
:10771000A5FF049000238DF81730049B002B48D060
:107720002B4B1B68002B03D101238DF8173019E078
:10773000049BD3E90201264B1B68D3E90223904244
:1077400071EB03030ED201238DF81730204B1B6819
:107750001B7FDBB2002B05D01D4B1B6819461D4853
:1077600003F0DAF99DF81730002B2AD0FFF768FFF5
:1077700004900DF10F0319460498FFF713FF034619
:10778000002B12D0124B1B68002B02D1019800F085
:107790007FFB0F4A049B13609DF80F3083F00103B9
:1077A000DBB2002BB3D000BF0EE0094B00221A6001
:1077B000ADE7074B1B68002B05D1019800F075FB66
:1077C00001E000BF00E000BF00BF07B05DF804FBB0
:1077D000682B00202877030000B587B001902C4A61
:1077E00003AB1946104602F042F9059048E0059BAC
:1077F0001B78022B2ED0022B32DC002B02D0012B67
:1078000014D02DE0059B5B681B7FDBB283F0010386
:10781000DBB2002B26D0059B5B6801221A77059B03
:107820005B6819461B4803F077F91BE0059B5A6813
:10783000194B1B689A4203D1174B00221A6012E0C1
:10784000059B5B681946134803F0ADF903468DF8B4
:10785000133008E0FFF710FF104B01221A7002E00E
:1078600000BF00E000BF0A4A03AB1946104602F011
:1078700017F9074A03AB1946104602F0F8F80590CD
:10788000059B002BB3D100BF00BF07B05DF804FB20
:10789000D82B002028770300682B00206C2B0020B9
:1078A00000B583B00190019800F06DFC0346002BF9
:1078B00001D0FFF7F5FE0021019800F082FC03469D
:1078C000002B02D00198FFF7F9FE0121019800F08A
:1078D00078FC0346002B02D00198FFF705FF0198C2
:1078E000FFF77AFF0198FFF70FFF00BF03B05DF8C5
:1078F00004FB000008B5024800F085FC00BF08BD8D
:10790000FC2A002000B585B0034600918DF80730B1
:10791000114A02AB1946104602F07CF80390039B13
:10792000002B13D0039B9DF807201A70039B009A2D
:107930005A60094A02AB1946104602F084F8034621
:10794000002B01D0FFF7D6FF002300E004231846E8
:1079500005B05DF804FB00BFD82B002000B583B054
:10796000164B1B680093164808235822154902F04D
:107970001EF80190019B002B01D0019B19E06B4682
:10798000114A1946114800F03BFA0190019B002B67
:1079900001D0019B0DE001210C4800F0E3FB012325
:1079A0000B4A0121094800F08DFA0A4B01221A7096
:1079B000019B184603B05DF804FB00BF3477030059
:1079C000D82B0020802B0020A1780200FC2A002068
:1079D000FFFF7F006C2B002086B003900B460192C6
:1079E0008DF80B30019B002B01D1072310E0039B86
:1079F0001B680593059B019A5A619DF80B30012B7A
:107A00000CBF01230023DBB21A46059B1A61002339
:107A1000184606B07047F0B587B003900291019206
:107A2000039B0593059B1B7FDBB2002B01D000233A
:107A30001CE0059B019A9A61FFF708FD02460B4680
:107A4000029900200C460546161943EB0507059BD5
:107A5000C3E90267059B1B69002B02D0059B029AB4
:107A60001A6105990020FFF74DFF0346184607B03D
:107A7000F0BD00B585B00190019B0393039B0022EC
:107A80001A7703990120FFF73DFF0346184605B01A
:107A90005DF804FB08B5034800F0A8FB0346184650
:107AA00008BD00BFFC2A002082B0EFF310830093D2
:107AB000009B019372B600BF019B184602B070474D
:107AC00062B600BF00BF704700B585B00190FFF7F8
:107AD000EBFF0390164B9B68002B1BD1144B01222C
:107AE0009A60144BD3F88020134B1340104A136054
:107AF000104B114AC3F880200E4BD3F884300C4A47
:107B000053600C4B4FF0FF32C3F88420019B0022DE
:107B10001A7002E0019B01221A70039B002B01D115
:107B2000FFF7CEFF0023184605B05DF804FB00BF49
:107B3000EC2B002000E100E0FC06FFBD00B585B0A5
:107B400003468DF80730104B9B68002B16D09DF82C
:107B50000730002B12D1FFF7A7FF03900B4A0A4B07
:107B60001B681360094A084B5B685360064B002290
:107B70009A60039B002B01D1FFF7A2FF0023184658
:107B800005B05DF804FB00BFEC2B002000E100E035
:107B900000B583B001900198FFF796FF00BF03B0D6
:107BA0005DF804FB00B583B003468DF807309DF8FF
:107BB00007301846FFF7C2FF00BF03B05DF804FBB3
:107BC00082B003468DF807309DF90730002B0CDB9F
:107BD0009DF8073003F01F0205499DF907305B0946
:107BE000012000FA02F241F8232000BF02B07047E2
:107BF00000E100E082B003468DF807309DF90730C0
:107C0000002B0DDB9DF8073003F01F0206499DF99C
:107C100007305B09012000FA02F2403341F82320CB
:107C200000BF02B0704700BF00E100E082B0034631
:107C300000918DF807309DF90730002B0ADB009B7F
:107C4000DAB20C499DF907305201D2B20B4483F8E5
:107C500000230BE0009BDAB207499DF8073003F0E0
:107C60000F03043B5201D2B20B441A7600BF02B09C
:107C7000704700BF00E100E000ED00E000B583B018
:107C800003460A468DF8073013468DF806309DF8F6
:107C900006209DF9073011461846FFF7C7FF00BFC1
:107CA00003B05DF804FB00B583B003468DF80730E0
:107CB0009DF907301846FFF783FF00BF03B05DF85A
:107CC00004FB000000B585B00190019B002B0AD099
:107CD000074B43F001030393019B9B010293039B1A
:107CE0000298984700E000BF05B05DF804FB00BFB4
:107CF0004077030084B0039002910192039B029AA3
:107D000002F5A872019943F8221000BF04B0704731
:107D100082B001900091019B009A02F5A87253F87D
:107D20002230184602B0704782B001900091019B4A
:107D3000009AC3F8042300BF02B0704782B00190DC
:107D40000091019B009AC3F8082300BF02B070475E
:107D500082B001900B46ADF80230BDF80230019AB6
:107D600013441B68184602B0704784B001900B465C
:107D7000ADF80230BDF80230019A134400221A60B7
:107D8000BDF80230019A13441B680393039B00BFA4
:107D900004B0704782B00190019BD3F804351846B7
:107DA00002B0704782B001900091019B009AC3F825
:107DB000082500BF02B0704782B001900B468DF8D5
:107DC00003309DF80320019B13441A4601231360DE
:107DD00000BF02B0704782B001900091019B009AF1
:107DE000C3F8442300BF02B0704782B001900091F5
:107DF000019B009AC3F8482300BF02B070470000FF
:107E000000B587B0039002910192039B5B791946FC
:107E10001D4A019B42F82130039B5B791B4ADB0022
:107E200013441B79002B03D008230593059B27E0FF
:107E3000039B1A68029B1B8819461046FFF7B2FF86
:107E4000039B93F90420029B9B7819461046FFF789
:107E500015FF039B93F904301846FFF724FF039B9B
:107E60005B790A4ADB00134401221A71039B5B7998
:107E70001946064A039B42F8313000230593059BBF
:107E8000184607B05DF804FBF82B0020FC2B0020FF
:107E900000B583B00190019B1B6800211846FFF7D5
:107EA0008BFF00BF03B05DF804FB00B583B0019009
:107EB000019B1B6804211846FFF77EFF00BF03B03B
:107EC0005DF804FB00B587B00390029101928DF834
:107ED00003304FF48032029B02FA03F30593029BB6
:107EE00050339BB29B00ADF81230019B23F07F43CF
:107EF0000193039B1B6805991846FFF71FFF039B1F
:107F00001B6805991846FFF770FF039B1B68BDF8B7
:107F1000122011461846FFF728FF039B1B68019AA1
:107F200002991846FFF7E6FE039B1B680599184661
:107F3000FFF751FF9DF80330002B05D0039B1B6812
:107F400005991846FFF7F0FE00BF07B05DF804FB87
:107F500000B585B00390029113468DF80730039B5E
:107F60001B6802991846FFF736FF9DF80730002B73
:107F700005D0039B1B6802991846FFF7D5FE00BF8A
:107F800005B05DF804FB00B583B001900091019B42
:107F90001B6800991846FFF728FF019B1B68009992
:107FA0001846FFF7CBFE00BF03B05DF804FB00B539
:107FB00083B001900B46ADF80230019B1B68BDF801
:107FC000022011461846FFF7C3FE0346002B09D0D6
:107FD000019B1B68BDF8022011461846FFF7C5FE3D
:107FE000012300E00023184603B05DF804FB82B0D3
:107FF00001900091019A009BD31A23F07F43184609
:1080000002B0704700B58BB00390029101920093CB
:108010004FF48032029B02FA03F30993029B503320
:108020009BB29B00ADF82230019B23F07F4301936C
:1080300009990398FFF7A7FF039B1B681846FFF7F2
:10804000A9FE0790039B1B6802991846FFF760FE84
:108050000690039B1B68079A02991846FFF74AFE91
:10806000039B1B68BDF8222011461846FFF77DFED2
:1080700007990698FFF7BBFF0346012B0AD1102092
:10808000FFF720FE039B1B68BDF82220114618460F
:10809000FFF76BFE039B1B681846FFF77BFE0790FC
:1080A00007990198FFF7A3FF0590039B1B680999A7
:1080B0001846FFF790FE059B012B15D1039B18680E
:1080C000019B01331A460299FFF714FE1020FFF7B7
:1080D000F9FD039B1B681846FFF75CFE0246079BF1
:1080E000934235D00D2339E0039B1B68019A029916
:1080F0001846FFF7FFFD039B1B681846FFF74AFE73
:108100000790019B013B07991846FFF770FF059008
:10811000009BC3F1FF1303F57F43059A9A4201D9EF
:108120000D231BE0059B002B12D1039B1868019BBC
:1081300001331A460299FFF7DDFD039B1B681846C1
:10814000FFF728FE0246079B934201D00D2305E06E
:10815000012209990398FFF7FBFE002318460BB094
:108160005DF804FB00B583B001900B468DF8033039
:108170009DF803301A4602210198FFF7E9FE00BF7F
:1081800003B05DF804FB00B583B001904FF4827139
:108190000198FFF70CFF0346184603B05DF804FB97
:1081A00000B583B0019000914FF48032009B02FA39
:1081B00003F319460198FFF7E6FE00BF03B05DF830
:1081C00004FB00B585B001900091009B50339BB239
:1081D0009B00ADF80E30BDF80E3019460198FFF740
:1081E000E6FE0346184605B05DF804FB00B583B013
:1081F0000190019B1B681846FFF7CCFD034618460B
:1082000003B05DF804FB00B583B00190019B93F9C6
:1082100004301846FFF7EEFC00BF03B05DF804FB26
:1082200008B5044B1B68044A12681046984700BF03
:1082300008BD00BFF82B0020FC2B002082B001906D
:10824000019B03F00303002B0CBF01230023DBB2CF
:10825000184602B07047000000B585B001900023B9
:1082600003930EE00B4A039B52F82330002B05D0FA
:10827000084A039B52F8233001989847039B013327
:108280000393039B032BEDD900BF00BF05B05DF83E
:1082900004FB00BF102C002082B001900091019BD4
:1082A0001B78013B052B61D801A252F823F000BFD7
:1082B000C9820200D1820200F782020029830200F3
:1082C0004983020065830200009B00221A704EE081
:1082D000009B01221A70019B1A89009B9A81019BC5
:1082E0009A88009BDA81019BDA68009B9A60009B68
:1082F00000221A743BE0009B02221A70019B1A892B
:10830000009B9A81019B9A88009BDA81019BDA6825
:10831000009B9A60019B9B7D062B0CBF01230023D1
:10832000DAB2009B1A7422E0009B03221A70019BB0
:10833000DA88009B9A81019B1A89009BDA81019B54
:10834000DA68009B9A6012E0009B04221A70019B7D
:10835000DA88009B9A81009B0022DA81009B002230
:108360009A6004E0009B05221A7000E000BF00BF85
:1083700002B0704784B001900091019B0393039A6F
:10838000009B9A4206D2039B1B68B3F1FF3F01D0CA
:10839000012300E0002303F00103DBB2184604B020
:1083A000704782B00190019B5B8803339B00019A68
:1083B0001344184602B0704700B583B00190009195
:1083C0000198FFF7EEFF0246009B934201D2022381
:1083D00011E0019B9B884FF6FF72934208D0019BEE
:1083E0001B88002B04D0019B9B68B3F1FF3F01D198
:1083F000012300E00023184603B05DF804FB0000F1
:1084000000B583B00190019B002B13D00D4BDB68AE
:108410001A46019B93420DD30A4B1B691A46019BD6
:10842000934207D80198FFF709FF0346002B01D0BC
:10843000012300E0002303F00103DBB2184603B080
:108440005DF804FBE82A002082B003460A46ADF836
:1084500006301346ADF80430BDF806201349134624
:108460009B0013449B000B4408331A88BDF804306A
:108470001344ADF80430BDF806200C4913469B00A8
:1084800013449B000B440A331A88BDF8043013448C
:10849000ADF80430BDF80430B3F5806F94BF01230C
:1084A0000023DBB2184602B0704700BF342C002016
:1084B00084B00190009148F2096303930023ADF862
:1084C0000A3027E0BDF80A20164913469B001344E2
:1084D0009B000B4404331B68009A9A4215D9BDF8DF
:1084E0000A20104913469B0013449B000B4404339D
:1084F0001B6803F58053009A9A4206D20023039327
:10850000019BBDF80A201A8008E0BDF80A3001334B
:10851000ADF80A30BDF80A30012BD3D9039B1846B9
:1085200004B07047342C002082B001900091009B71
:108530009B7D022B09D9019B1A89009BDB88134480
:108540009BB203339AB2019B1A81019B5A89009B0B
:10855000DB88D31A9BB2033B9AB2019B5A8100BFBE
:1085600002B0704700B583B0074B1B681946002363
:1085700000930823054A064801F098FC0346184674
:1085800003B05DF804FB00BF5C2C002048770300BB
:10859000E82A002000B585B00390039900230093DA
:1085A0000823044A044801F081FC0346184605B03C
:1085B0005DF804FB50770300E82A002000B585B081
:1085C00003460091ADF8063000238DF80F30BDF85A
:1085D00006300333ADF80A30BDF80A3040F2FE32FF
:1085E000934202D948F208634BE00023ADF80C3007
:1085F0003BE0BDF80C20254913469B0013449B002B
:108600000B441B78002B2BD1BDF80A20BDF80C3091
:1086100011461846FFF718FF0346002B20D0012310
:108620008DF80F30009BBDF80C201A80BDF80C208F
:10863000164913469B0013449B000B440A331988C8
:10864000BDF80C20BDF80A300B4498B20F49134610
:108650009B0013449B000B440A3302461A8008E037
:10866000BDF80C300133ADF80C30BDF80C30012BE7
:10867000BFD99DF80F30002B01D0002301E048F254
:108680000663184605B05DF804FB00BF342C0020DB
:1086900082B003460A46ADF806301346ADF8043002
:1086A000BDF804200D4913469B0013449B000B4466
:1086B0000A331A88BDF80630D31A9BB2BDF80420DD
:1086C000033B98B2054913469B0013449B000B449F
:1086D0000A3302461A8000BF02B07047342C0020D3
:1086E00008B50121024801F032FB0346184608BDD7
:1086F000202C002000B585B003460091ADF806306F
:10870000BDF80620244913469B0013449B000B44EC
:1087100004331B6803F580530293009B1B6803938B
:10872000039B002B04D00398FFF73BFE039026E049
:10873000BDF80620184913469B0013449B000B44C8
:1087400004331B680833039319E002990398FFF779
:1087500033FE0346022B10D0022B10DC002B02D07C
:10876000012B05D00BE0009B039A1A6001230EE059
:108770000398FFF716FE039001E0002307E002993B
:108780000398FFF7F7FD0346002BDED100231846C0
:1087900005B05DF804FB00BF342C002000B585B0A7
:1087A00001900091019B5B681846FFF729FE034684
:1087B000002B19D0019B1A89244B1B899A4213D193
:1087C000019B1A68019B5B689B689A420CD1019BD4
:1087D0005B6819460098FFF76BFE0346002B0CBF41
:1087E00001230023DBB22CE0009B00221A8023E04F
:1087F0000023029310E0029B0393039B9A68019B62
:108800001B689A4208D1029A019B5A600F4B1A8941
:10881000019B1A81012314E0009B1B8802AA1146C8
:108820001846FFF767FF0346002BE4D1009B1B8827
:1088300001339AB2009B1A80009B1B88012BD7D969
:108840000023184605B05DF804FB00BF642C00202F
:1088500000B587B00390029101920093324B1B78D0
:10886000DBB283F00103DBB2002B02D048F20163DC
:1088700055E0019B002B02D0009B002B49D148F210
:1088800004634CE0009B9B881946284A0B469B00DA
:108890000B449B0013441B78002B33D124E0009B36
:1088A0001B680593039B002B06D0059B9A88039BAE
:1088B0001B889A4200D017E0029B002B06D0059B34
:1088C0001A88029B1B889A4200D00DE0059B9A688B
:1088D000019B1A60009B1A68019B5A60144B1A890D
:1088E000019B1A8100231AE0009B9B88009A114685
:1088F0001846FFF7FFFE0346002BD0D1009B002255
:108900001A6000E000BF009B9B8801339AB2009B75
:108910009A80009B9B88012BB4D948F209631846C2
:1089200007B05DF804FB00BF042C0020342C0020AD
:10893000642C002000B585B00190084B01991846C1
:1089400001F068F803901C22002103980DF0DDFB74
:10895000039B184605B05DF804FB00BF242C0020E3
:1089600000B583B00190044B0199184601F06BF8F3
:1089700000BF03B05DF804FB242C002000B583B0D9
:108980000190054B0199184601F071F8034618460D
:1089900003B05DF804FB00BF242C002000B583B0B9
:1089A0000190044B0199184601F07AF800BF03B01A
:1089B0005DF804FB242C002008B50121054801F0D6
:1089C000DEF90346002B14BF01230023DBB2184657
:1089D00008BD00BF0C2C002000B587B003900291A9
:1089E000039B02229A750299039B1A1D0023009390
:1089F0000423074801F05AFA0590059B002B01D18A
:108A0000002301E048F20D63184607B05DF804FB4F
:108A1000E82A002000B587B003900291039B1B69F0
:108A2000002B01D0032200E00122039B9A75029BD8
:108A300008331946039B03F10C020023009304231F
:108A4000074801F033FA0590059B002B01D1002364
:108A500001E048F20D63184607B05DF804FB00BF63
:108A6000E82A002000B587B003900291039B1B7891
:108A7000032B01D1052200E00622039B9A75029B7D
:108A800004331946039B03F10802002300930423D7
:108A9000074801F00BFA0590059B002B01D100233C
:108AA00001E048F20D63184607B05DF804FB00BF13
:108AB000E82A002000B587B003900B46ADF80A30D5
:108AC00003990023009304230D4A0E4801F0EEF9A8
:108AD0000590059B002B02D048F20D630BE0BDF81A
:108AE0000A20094913469B0013449B000B44103392
:108AF00001221A700023184607B05DF804FB00BF7E
:108B000058770300E82A0020342C002000B589B0F3
:108B1000019002AB00221A605A609A60019BDB68E8
:108B200002930DF1160202AB11461846FFF736FE0E
:108B30000346002B12D0039B0693069B9A88019B49
:108B4000DA80069B1A88019B1A81039BBDF81620C8
:108B500011461846FFF7AEFF079002E048F209639E
:108B60000793079B184609B05DF804FB00B587B072
:108B70000190019B981D02AA0D4B0021FFF768FE92
:108B80000590059B002B08D1039B094A928811464A
:108B90001846FFF78FFF059004E0082200210448E3
:108BA0000DF0B3FA059B184607B05DF804FB00BF53
:108BB000742C002000B587B003900291039B012222
:108BC0009A75029B0C331846039B1A69039BDB883A
:108BD0009B00002100910146074801F067F90590CC
:108BE000059B002B01D1002301E048F20D631846DC
:108BF00007B05DF804FB00BFE82A002082B0184BE4
:108C00001B8901339AB2164B1A81154B00225A80E8
:108C1000134B00221A730023ADF8063018E0BDF89C
:108C20000620104913469B0013449B000B441A78FE
:108C3000BDF80630002A0CBF01220022D1B2084A3A
:108C400013440A469A72BDF806300133ADF8063077
:108C5000BDF80630012BE2D900BF00BF02B070475B
:108C6000642C0020342C002084B0019000238DF867
:108C70000F300023ADF80C3031E0BDF80C301C4A49
:108C800013449B7A002B25D0BDF80C30184A1344AE
:108C900000229A72BDF80C20164913469B0013441B
:108CA0009B000B440C331B68002B13D1BDF80C2028
:108CB000104913469B0013449B000B4410331B7850
:108CC000002B07D0019BBDF80C201A8001238DF8E2
:108CD0000F3008E0BDF80C300133ADF80C30BDF8B2
:108CE0000C30012BC9D99DF80F30184604B07047DD
:108CF000642C0020342C002008B5084B05221A7083
:108D0000074B02229A80064B1B681946002301225A
:108D1000044801F01CF90346184608BD642C0020E5
:108D20005C2C0020E82A002000B583B0164B5B883D
:108D3000ADF80230BDF80220144913469B001344DD
:108D40009B000B440C331B68002B14D10E4B0422E8
:108D50001A70BDF802200D4913469B0013449B0076
:108D60000B4404331B68194600230122084801F014
:108D7000EEF8019002E0FFF7BFFF0190019B18465B
:108D800003B05DF804FB00BF642C0020342C0020ED
:108D9000E82A002000B587B0104B5B680593104BA4
:108DA0001A680F4B9B889B0013440493059B5B88B8
:108DB0000333ADF80E30094B03221A700499074BA8
:108DC0005A68BDF80E309B0000200090054801F065
:108DD0006DF80346184607B05DF804FB642C0020CC
:108DE0005C2C0020E82A002000B583B00A4B5B8889
:108DF0000A491846FFF77EFC0346002B03D0FFF715
:108E0000C9FF019002E0FFF78FFF0190019B184618
:108E100003B05DF804FB00BF642C0020682C002028
:108E200008B50A4B06221A70084B5B881946084A97
:108E30000B469B000B449B00134404331B681846ED
:108E4000FFF7A8FB0346184608BD00BF642C0020AE
:108E5000342C002008B5054B07221A70034B002262
:108E60005A60FFF77FFB0346184608BD642C0020BC
:108E700008B50D48FFF7F8FE034683F00103DBB2A7
:108E8000002B0BD0094B00221A70084B00225A808D
:108E9000064B00225A6041F61D5302E0FFF7A4FF83
:108EA0000346184608BD00BF662C0020642C002035
:108EB00082B0094B5B680193019B5B880333ADF87B
:108EC0000230064B9A88BDF8023013449AB2034B25
:108ED0009A8000BF02B07047642C00205C2C0020F8
:108EE00082B01E4B1B6801931D4B5B8819461D4ABF
:108EF0000B469B000B449B00134404331B68174A2A
:108F00001360174B5B881946164A0B469B000B44AF
:108F10009B0013440433019A1A60114B5B88194675
:108F20000E4B98880F4A0B469B000B449B00134442
:108F3000083302461A80094B02229A80084B5B884C
:108F40001946084A0B469B000B449B001344103300
:108F500000221A7000BF02B0704700BF5C2C0020D6
:108F6000642C0020342C002008B51A4B1B78072BEA
:108F70002CD801A252F823F0998F0200CD8F020065
:108F8000CD8F0200A58F0200B18F0200BD8F0200BD
:108F9000BD8F0200C58F0200FFF730FE0D4B01228E
:108FA0001A7014E0FFF784FF0A4B02221A700EE0D9
:108FB000FFF796FF074B06221A7008E0054B0722C1
:108FC0001A7004E0034B01221A7000E000BF00BFDA
:108FD00008BD00BF642C002000B587B0019000914F
:108FE00048F20E630593019B002B05D0634B0022D2
:108FF0005A604FF40643BCE0009B1B79032B00F240
:10900000AB8001A252F823F01990020027900200D1
:10901000B5900200D5900200009B01221A71FFF763
:10902000A1FA05909BE000238DF813300023ADF8E2
:1090300010302BE0BDF81020514913469B0013441B
:109040009B000B441B78022B1BD1BDF810204C4910
:1090500013469B0013449B000B4400221A7001230B
:109060008DF81330BDF81020454913469B0013447A
:109070009B000B4404331B681846FFF78BFA0590DE
:1090800008E0BDF810300133ADF81030BDF81030F5
:10909000012BCFD99DF8133083F00103DBB2002BF5
:1090A0005CD0364B01221A70344B00225A6041F6D4
:1090B0001D535EE0009B00221A71324B02229A80FF
:1090C000304B1B681946002301222F4800F03FFF58
:1090D000059044E0009B00221A712A4B1B68184639
:1090E000FFF758FA0590294B5B88ADF80E30254BF9
:1090F0001B680293BDF80E20214913469B001344C0
:109100009B000B4404331B681E4A1360BDF80E20FD
:109110001B4913469B0013449B000B440433029AE3
:109120001A60BDF80E20174B9888154913469B000E
:1091300013449B000B44083302461A80114B022251
:109140009A80BDF80E200E4913469B0013449B00E5
:109150000B4400221A7002E000BF00E000BF059B34
:10916000002B05D0054B00225A6048F20D6300E049
:109170000023184607B05DF804FB00BF042C002054
:10918000342C00205C2C0020E82A0020642C0020D5
:1091900000B587B001900091009B9B8A1A46134648
:1091A0009B0013449B003B4A13440493019B002BF8
:1091B00006D000990498FFF7B7F94FF4064364E02E
:1091C000049B5A68049B1B899B0013440393009BD8
:1091D0009B7D062B4DD801A252F823F0219202006C
:1091E000459202002D92020039920200F99102008C
:1091F000519202006B920200274B00225A60009BA2
:109200009B69254A136025492348FFF7C7FA03469F
:1092100083F00103DBB2002B02D048F2096334E093
:1092200003990098FFF7D8FB059026E00399009872
:10923000FFF7F0FB059020E003990098FFF7BAFCD8
:1092400005901AE003990098FFF70CFC059014E0D4
:10925000009B06229A75104B5B68104A12881146D3
:109260001846FFF727FC059007E041F61D530593CC
:1092700003E048F20E63059300BF059B002B03D06B
:1092800000990498FFF750F9059B184607B05DF860
:1092900004FB00BF342C00207C2C0020882C0020F4
:1092A00000B585B001900091019B002B02D04FF4D6
:1092B000064329E0009B1B79022B1BD0022B1DDCEF
:1092C000002B02D0012B08D018E0009B02221A715B
:1092D0000098FFF71BFC039015E00098FFF746FC91
:1092E0000390039B48F2096293420BD141F61D5350
:1092F000039307E041F61D53039304E048F20E6325
:10930000039300E000BF039B184605B05DF804FB23
:1093100000B585B00190019B002B02D04FF40643AD
:109320003DE0214B1B7B002B03D01F4B00221A7307
:1093300001E0FFF719FE1C4B1B78013B062B29D8D7
:1093400001A252F823F000BF659302006D93020062
:10935000759302007D9302009593020085930200AD
:109360008D930200FFF784FD039017E0FFF73CFDAB
:10937000039013E0FFF70EFD03900FE0FFF7D4FC1E
:1093800003900BE0FFF74CFD039007E0FFF762FD51
:10939000039003E048F20E63039300BF039B18465B
:1093A00005B05DF804FB00BF642C002000B589B057
:1093B00001903B4B1B68002B05D13A48FFF7DEFAC2
:1093C0000346374A1360364B1B681B78013B052B5D
:1093D0002BD801A252F823F0F1930200019402006D
:1093E00001940200119402001194020021940200E1
:1093F0002B4B1B6819460198FFF7EEFD019018E012
:10940000274B1B6819460198FFF7C2FE019010E038
:10941000234B1B6819460198FFF742FF019008E0B3
:109420000198FFF775FF019003E048F20E63019386
:1094300000BF019B002B2BD003AB00221A605A60A7
:109440009A60DA601A61019B41F61D52934201D085
:10945000019B00E000230493114B1B6803AA1146F3
:109460001846FEF719FF03AB1846FEF7F5FE0C4B46
:1094700000221A60002301930A48FFF78FFAFFF7D2
:109480009BFA034683F00103DBB2002B02D190E785
:1094900000BF00E000BF00BF09B05DF804FB00BFE3
:1094A0008C2C0020902C002008B50121054800F0EC
:1094B00036FC0346002B02D10020FFF777FF00BFE8
:1094C00008BD00BF0C2C002000B583B00190019BAB
:1094D0005B681846FFF76AFF00BF03B05DF804FB46
:1094E00000B58BB00390029101928DF803300023F8
:1094F000ADF824300023ADF82630534B1B78DBB297
:1095000083F00103DBB2002B02D048F2016397E045
:10951000029B002B02D148F2046391E0029B1B885E
:109520004FF6FF72934203D0029B5B88002B02D15F
:1095300048F2036384E0029B5B681846FEF77EFEF8
:10954000034683F00103DBB2002B02D048F2026332
:1095500076E0019B002B11D1029B9B68ADF8263071
:109560000DF11A02BDF8263011461846FFF726F80D
:109570000890089B002B09D0089B61E0019B1B8889
:10958000ADF81A30019B5B88ADF8263005AB184664
:10959000FFF7D0F90790079B002B0AD1BDF81A20DE
:1095A000BDF8263011461846FFF772F848F20763F7
:1095B00046E0079B9DF803201A70079B00229A75CE
:1095C000BDF81A20079B9A82029B5A68079B1A6172
:1095D000FFF786F80246079BDA60029B1A88079B12
:1095E0001A81029B5A88079B9A80079BBDF8262008
:1095F000DA809DF80330032B06D1079B04229A756D
:10960000039B1A68079B9A61079BBDF824205A8127
:1096100005AB1846FFF7A4F9039B002B0DD0039B65
:1096200000225A60079BDA68039B1A60039B0022A2
:109630009A72064B1A89039B1A81FFF735FF0023A4
:1096400018460BB05DF804FB042C0020642C0020AD
:1096500000B585B001900091019B002B02D0009BCA
:10966000002B02D148F204632AE00DF10A031946E7
:109670000198FFF793F80346002B1FD0019B5B680E
:109680000393BDF80A301A4613469B0013449B000F
:1096900008330D4A134404330121184600F057FBE8
:1096A000009B039A1A60019B5B6803F10C02009B0C
:1096B0005A60019B01229A72002301E048F209637B
:1096C000184605B05DF804FB342C002000B585B0C9
:1096D0000190019B002B02D148F204633BE00DF1A5
:1096E0000A0319460198FFF759F80346002B2ED0BC
:1096F000BDF80A3019461A4A0B469B000B449B00E2
:1097000013440C331B68002B1DD0019B9B7A002B4C
:1097100019D0BDF80A301A46114913469B0013446C
:109720009B000B440C331B68591E0D4813469B00CD
:1097300013449B0003440C331960019B00229A726E
:109740000023039306E048F20563039302E048F226
:1097500009630393039B184605B05DF804FB00BF43
:10976000342C002000B583B0019000910223002228
:1097700000990198FFF7B4FE0346184603B05DF860
:1097800004FB00B583B001900091019B002B02D136
:1097900048F2046306E00323002200990198FFF7D2
:1097A0009FFE0346184603B05DF804FB00B585B084
:1097B0000346ADF806301A4B1B78DBB283F0010389
:1097C000DBB2002B02D048F2016324E0BDF8063082
:1097D0004FF6FF72934202D148F203631BE002ABE3
:1097E0001846FFF7A7F80390039B002B02D148F21D
:1097F000076310E0039B05221A70039B01221A7174
:10980000039BBDF80620DA8002AB1846FFF7A8F8E4
:10981000FFF74AFE0023184605B05DF804FB00BFC1
:10982000042C002000B585B0029201930346ADF8E8
:109830000E300B46ADF80C3003A90DF10E00019B64
:10984000029AFFF705F80346184605B05DF804FBD9
:1098500000B585B0034602910192ADF80E300DF1CE
:109860000E01019B029A0020FEF7F2FF0346184604
:1098700005B05DF804FB00B585B003460291019286
:10988000ADF80E300DF10E00019B029A0021FEF79B
:10989000DFFF0346184605B05DF804FB82B0019077
:1098A0000091019B002B02D0009B002B02D148F2BB
:1098B000046304E0019B1A68009B1A6000231846A9
:1098C00002B0704786B001900091019B53E8011FE0
:1098D0008AB2D88902449889824228BF121A18890C
:1098E000824202BFBFF32F8F002307E0C2EA0102CA
:1098F00043E801200028E9D14FF001038DF80F3033
:10990000059002910492029A009B1A609DF80F3014
:10991000DBB2184606B0704784B00190019951E857
:10992000013FC3EA034341E80132002AF7D1039221
:10993000029300BF04B0704786B001900091019B74
:1099400053E8021F1FFAA1F2D888824202BFBFF378
:109950002F8F00230DE0D88902449889824228BFC6
:10996000121AC1EA024243E802200028E8D14FF06F
:1099700001038DF80F30059002910492029A009B2A
:109980001A609DF80F30DBB2184606B0704784B0FD
:109990000190019951E8023FC3EA234341E80232B2
:1099A000002AF7D10392029300BF04B0704784B03D
:1099B0000390029111461A460B46ADF80630134645
:1099C000ADF80430029B002B01D10E231FE0BDF83F
:1099D0000630BDF80420B3FBF2F101FB02F29B1A42
:1099E0009BB2002B01D0092311E0039B029A1A605D
:1099F000039B00225A60039B00229A60039BBDF8E0
:109A000006209A81039BBDF80420DA8100231846C2
:109A100004B0704700B585B001900091009B1946D5
:109A20000198FFF74FFF0346002B07D0019B1B68EF
:109A3000009A128813440393039B00E00023184606
:109A400005B05DF804FB00B583B001900091009B68
:109A50001A88009B5B889A4204D10198FFF75CFF4B
:109A6000012300E00023184603B05DF804FB00B5B5
:109A700085B001900091009B19460198FFF75CFFAB
:109A80000346002B07D0019B1B68009A52881344A1
:109A90000393039B00E00023184605B05DF804FB28
:109AA00000B583B001900091009B1A88009B5B88F1
:109AB0009A4204D10198FFF76AFF012300E00023D6
:109AC000184603B05DF804FB00B585B00190009125
:109AD000009B5B099B00019A1A44009B03F01F0343
:109AE000012101FA03F31946104600F0E8F803904B
:109AF00000BF05B05DF804FB00B583B00190009194
:109B0000009B5B099B00019A1A44009B03F01F0312
:109B1000012101FA03F31946104600F0B8F8024695
:109B2000009B03F01F0322FA03F303F00103002B51
:109B300014BF01230023DBB2184603B05DF804FB19
:109B400000B585B001900091009B5B099B00019AD4
:109B50001A44009B03F01F03012101FA03F3DB43C6
:109B60001946104600F0C3F8039000BF05B05DF839
:109B700004FB82B001900091009B5B099B00019A5D
:109B800013441A68009B03F01F0322FA03F303F047
:109B90000103002B14BF01230023DBB2184602B0DF
:109BA000704700B58DB00190009100230B934BE0FE
:109BB0000B9B9B00019A13441B68DB430793079B95
:109BC00093FAA3F30693069B0893089B002B01D1FD
:109BD000202303E0089BB3FA83F3DBB20A932BE064
:109BE0000B9B5B010A9A13440993099A009B9A42C2
:109BF00026D209990198FFF77FFF034683F00103FE
:109C0000DBB2002B01D0099B26E00B9B9B00019A45
:109C100013441B68DB430493049B93FAA3F303935D
:109C2000039B0593059B002B01D1202303E0059B9B
:109C3000B3FA83F3DBB20A930A9B1F2BD0D900E05F
:109C400000BF0B9B01330B93009B013B5B0901336E
:109C50000B9A9A42ACD3009B18460DB05DF804FBFA
:109C600010B487B001900091019B009A53E8004F17
:109C7000104643E8000191F0000FF7D105940490DD
:109C80000391059B184607B05DF8044B704710B46C
:109C900087B001900091019B009A53E8004F44EA7D
:109CA000020043E8000191F0000FF6D10594049002
:109CB0000391059B184607B05DF8044B704710B43C
:109CC00087B001900091019B009A53E8004F44EA4D
:109CD000020043E8000191F0000FF6D105940490D2
:109CE0000391049B184607B05DF8044B704710B40D
:109CF00087B001900091019B009A53E8004F04EA5D
:109D0000020043E8000191F0000FF6D105940490A1
:109D10000391049B184607B05DF8044B704710B4DC
:109D200087B001900091019B009A53E8004F04EB2B
:109D3000020043E8000191F0000FF6D10594049071
:109D40000391059B184607B05DF8044B704710B4AB
:109D500087B001900091019B009A53E8004F04EBFB
:109D6000020043E8000191F0000FF6D10594049041
:109D70000391049B184607B05DF8044B704710B47C
:109D800087B001900091019B009A53E8004FA4EB2B
:109D9000020043E8000191F0000FF6D10594049011
:109DA0000391049B184607B05DF8044B704782B0DE
:109DB00001900B468DF80330019BDA689DF8033063
:109DC0000199098A01FB03F31344184602B0704756
:109DD00082B001900091009B019AD2689B1A019A6F
:109DE000128AB3FBF2F3DBB2184602B0704700B53B
:109DF00085B001900023039300238DF80A300DF104
:109E00000A031846FDF7C4FE019B1B681A68019BF4
:109E10005B689A421FD9019B1B681A68013A1A6055
:109E20001B681B7819460198FFF7C1FF0390019B3F
:109E30009A68019B1B681B68D31A8DF80B30019B35
:109E40001B681B799DF80B209A4204D9019B1B6863
:109E50009DF80B201A719DF80A301846FDF7A2FEF6
:109E6000039B184605B05DF804FB10B584B0019063
:109E70000091009B039300238DF80B300DF10B0331
:109E80001846FDF785FE019B1B681C68621C1A6062
:109E900003990198FFF79CFF034623709DF80B3050
:109EA0001846FDF77FFE00BF04B010BD10B586B0A8
:109EB0000590049103920293059B002B01D10E2380
:109EC00042E0039B002B01D10E233DE0059B1B6864
:109ED000002B01D1082337E0029B002B01D109237D
:109EE00032E0059B5B685A68029BB3FBF2F101FB11
:109EF00002F29B1A002B01D0092325E0049800F000
:109F00007BF80346002B01D110231DE0039B18466C
:109F100000F072F80346002B01D1102314E0029ADE
:109F20000499059800F04EF80346002B01D1102348
:109F30000AE0059B1B68DC68089B0093029B039A60
:109F400004990598A0470346184606B010BD10B501
:109F500084B00390029101920093039B002B01D1E6
:109F60000E232CE0039B1B68002B01D1082326E065
:109F7000019B002B01D1092321E00299039800F0F5
:109F800048F80346002B01D1102318E0039B5B68BF
:109F90001B68019A02FB03F31A460299039800F02A
:109FA00011F80346002B01D1102308E0039B1B6826
:109FB0001C69009B019A02990398A0470346184622
:109FC00004B010BD84B0039002910192039BDB6842
:109FD000029A9A4209D3029A019B13445A1E039B88
:109FE0001B699A4201D8012300E0002303F001031A
:109FF000DBB2184604B0704782B00190019B03F0B9
:10A000000303002B0CBF01230023DBB2184602B070
:10A01000704782B001900091019B5B681B685A1EDB
:10A02000009B1340002B0CBF01230023DBB218461A
:10A0300002B0704729DF704700BF184628DF70471D
:10A0400000BF184600B589B001900091019B1B68C4
:10A050009B68002B35D002AB00221A605A609A60D0
:10A06000DA601A615A61009B0393019B9B68079316
:10A07000019B1B79002B02D0012B0DD01AE001238C
:10A080008DF80830019B1B690493019BDB680593E5
:10A09000019B5B6906930DE002238DF80830019B5C
:10A0A000DB684FF4805202FB03F30493019B5B696E
:10A0B000069300BF019B1B689B6802AA1046984745
:10A0C00000E000BF09B05DF804FB00B587B0019067
:10A0D000019B5A69019B9B69D31AB3F5805F28BF26
:10A0E0004FF4805305930422059BB3FBF2F3012B3D
:10A0F00038BF01230593019B1A69019B9B69134497
:10A100000493019BDB681A46019B9B6913440393EC
:10A11000059A03990498FFF78DFF0346184607B088
:10A120005DF804FB00B583B00190019BDA68019BE8
:10A130001B6913441846FFF781FF0346184603B016
:10A140005DF804FB08B5034B03491846FFF7A8FC6C
:10A1500000BF08BD942C0020BC2C002008B5084B83
:10A1600008491846FFF783FC0346074A1360064B6D
:10A170001B68002B14BF01230023DBB2184608BD67
:10A18000942C0020BC2C0020B82C002000B583B0FB
:10A190002A4B1B7A002B0BD1FFF7E0FF034683F01D
:10A1A0000103DBB2002B03D0244B00225A6042E0B3
:10A1B000224B02221A72224B1B681B79002B02D001
:10A1C000012B07D00DE01E4B1B681846FFF77DFFE3
:10A1D000019009E01A4B1B681846FFF7A3FF019096
:10A1E00002E00323019300BF019B002B03D0019BDE
:10A1F000112B0CD00FE0114B1B7C83F00103DBB261
:10A20000002B17D00021022000F06EF812E00B4B5B
:10A2100001221A720FE00A4B1B6803211846FFF750
:10A2200011FF064B00221A72044B00225A60FFF7FE
:10A2300089FF00E000BF03B05DF804FBA42C002000
:10A24000B82C002084B001901B4B0022DA60019BE7
:10A250001B79002B02D0012B19D028E0019B5A69F1
:10A26000019B9B69D31AB3F5805F28BF4FF48053DD
:10A270000393019B9A69039B1A44019B9A61019B7A
:10A280009A69019B5B699A420ED1012310E0019B00
:10A290001B695A1C019B1A61019B1A69019B5B692E
:10A2A0009A4203D1012303E000BF00E000BF002376
:10A2B000184604B0704700BFA42C002082B0019063
:10A2C000084BDB680133074AD360064BDB68082B79
:10A2D00004D9044B0022DA60012300E00023184671
:10A2E00002B07047A42C002000B585B00190009109
:10A2F000019B022B02D0019B032B48D1274B1B7AD9
:10A30000022B05D0022B35DC002B42D0012B31E093
:10A3100000238DF80F30019B022B03D0019B032BF0
:10A3200009D011E01E4B1B681846FFF78BFF034650
:10A330008DF80F3008E01A4B1B681846FFF7BEFF78
:10A3400003468DF80F3000BF9DF80F30002B10D062
:10A35000124B00221A72124B1A68019B022B01D178
:10A36000002300E00D2319461046FFF76BFEFFF7B0
:10A37000E9FE00BF094B5B7C83F00103DBB2002BDD
:10A3800002D0FFF703FF05E00AF0C2FF02E000BFC2
:10A3900000E000BF05B05DF804FB00BFA42C002066
:10A3A000B82C002082B0034600918DF80730064B90
:10A3B00001225A74044B1B7A002B0CBF012300238B
:10A3C000DBB2184602B07047A42C002000B583B061
:10A3D000034600918DF807309DF80730012B03D01C
:10A3E0009DF80730032B0DD1084B00225A749DF8BD
:10A3F0000730012B0CBF01230023DAB2034B1A7480
:10A40000FFF7C4FE00BF03B05DF804FBA42C0020DE
:10A4100000B58BB001900091019B1B8A043B079310
:10A42000009A079B1344DA1C079BB2FBF3F38DF8E9
:10A430001B300198FFF7DBFC0590059B002B01D139
:10A44000002338E0059B00221A71059B01225A71F6
:10A45000079B9AB2059BDA80059B09939DF81B30F8
:10A46000013B0493099B019A1A60002308931DE0A5
:10A470000198FFF7BCFC0390039B002B0ED0059BBB
:10A480005B790133DAB2059B5A71099B039A1A6012
:10A49000039B019A1A60039B099304E0059800F05E
:10A4A0000EF8002307E0089B01330893089A049BE9
:10A4B0009A42DDD3059B18460BB05DF804FB00B54E
:10A4C0008BB00190019B0793079B5B798DF81B3044
:10A4D000019B08939DF81B30013B059300230993D2
:10A4E00005E0089B1B680893099B01330993099AAF
:10A4F000059B9A42F5D3089B1B680493019B089324
:10A50000002309930BE0089B1B68039308990498A8
:10A51000FFF7ABFC039B0893099B013309939DF85C
:10A520001B30099A9A42EED300BF00BF0BB05DF812
:10A5300004FB00B591B00390029101920093039B3C
:10A540000993039B0F93099BDB881A46099B5B7950
:10A5500002FB03F3043B0893099BDB880793009BF2
:10A560001A1D079BB2FBF3F30E93009B0433079A6B
:10A57000B3FBF2F2079901FB02F29B1A0D93019BC8
:10A580001A68009B1344089A9A4203D2089A009BC7
:10A59000D31A01E0019B1B680C93019B0C9A1A6073
:10A5A00005E00F9B1B680F930E9B013B0E930E9BC8
:10A5B000002BF6D100230B93079A0D9BD31A0A9315
:10A5C0000A9A0C9B934228BF13460A932AE0029AE8
:10A5D0000B9B134406930F9A0D9B1344043305936E
:10A5E0009DF84830002B05D00A9A059906980BF083
:10A5F00063FD04E00A9A069905980BF05DFD0023BF
:10A600000D930F9B1B680F930C9A0A9BD31A0C9304
:10A610000B9A0A9B13440B93079A0C9B934228BFF7
:10A6200013460A930C9B002BD1D100BF00BF11B081
:10A630005DF804FB00B589B0059004910392029384
:10A64000039B079307AA00230093029B0499059894
:10A65000FFF76FFF00BF09B05DF804FB00B589B0DC
:10A660000590049103920293039B079307AA012389
:10A670000093029B04990598FFF75BFF00BF09B0A8
:10A680005DF804FB82B003468DF807309DF9073072
:10A69000002B0DDB9DF8073003F01F0206499DF9E2
:10A6A00007305B09012000FA02F2603341F82320F1
:10A6B00000BF02B0704700BF00E100E082B001902F
:10A6C000019B00221A60BFF35F8F00BF00BF02B082
:10A6D000704741DF704700BF184600B585B00023C2
:10A6E0008DF807300DF107031846FDF751FAF1EE2A
:10A6F000103A0393039B23F09F030293029BE1EE26
:10A70000103A00BFBFF35F8F00BF2620FFF7BAFFEC
:10A710009DF807301846FDF745FA00BF05B05DF813
:10A7200004FB000008B5064B00221A700548FFF72D
:10A73000C5FF0549054800F0B9F90023184608BDD2
:10A74000C42C0020C02C00205C770300C82C002003
:10A7500000B583B0FFF7C1FF0AF0F6FD0346002BFA
:10A7600003D0FFF7B6FF019002E020BF40BF20BF3B
:10A7700000BF03B05DF804FB82B00190019B9B68B1
:10A78000024A12781344184602B0704768770300F3
:10A7900082B001900091019B9B68009A9A4202D27C
:10A7A000009B013300E00023184602B0704700B55B
:10A7B00085B00190019B1B681B680393019B1B687C
:10A7C0005B680293029A039B9A4203D3029A039B0B
:10A7D000D31A07E00198FFF7CFFF0246039BD21A76
:10A7E000029B1344184605B05DF804FB00B585B024
:10A7F0000190019B1B681B680393019B1B685B68AE
:10A80000029302990198FFF7C3FF0246039B93420C
:10A810000CBF01230023DBB2184605B05DF804FB32
:10A8200010B588B0019000910023079300238DF8A4
:10A830000F300DF10F031846FDF7AAF90198FFF745
:10A84000D5FF03468DF81B309DF81B3083F00103C4
:10A85000DBB2002B03D1019B1B7C002B7BD1019B26
:10A860001B685B680593019B1B685A68019B1C6809
:10A8700011460198FFF78CFF034663609DF81B307B
:10A88000002B0AD0019B1B681A68019B1C681146AB
:10A890000198FFF77DFF03462360019BDB68013BC6
:10A8A000072B38D801A252F823F000BFCDA8020030
:10A8B000DDA8020017A90200EFA8020017A90200F4
:10A8C00017A9020017A9020001A90200019B5A68FA
:10A8D000059B1344009A12781A702DE0019B5A6868
:10A8E000059B5B001344009A12881A8024E0019BA8
:10A8F0005A68059B9B001344009A12681A601BE07B
:10A90000019B5A68059BDB00D118009BD3E900230B
:10A91000C1E9002310E0019B5B681946019BDB68DD
:10A92000059A02FB03F30B441846019BDB681A46A9
:10A9300000990BF0C1FB00BF0198FFF738FF0490AE
:10A94000019B1B689B68049A9A4207D9019B1B686C
:10A95000049A9A6002E00423079300E000BF9DF888
:10A960000F301846FDF71EF9079B184608B010BDBA
:10A9700010B588B00390029113468DF8073000237C
:10A98000079300238DF817300DF117031846FDF7D4
:10A99000FFF8039800F076F8034683F00103DBB27A
:10A9A000002B63D0039B1B681B6806939DF8073040
:10A9B00083F00103DBB2002B0AD0039B1B681A68EB
:10A9C000039B1C6811460398FFF7E2FE03462360D1
:10A9D000039BDB68013B072B37D801A252F823F019
:10A9E00001AA020011AA02004BAA020023AA020037
:10A9F0004BAA02004BAA02004BAA020035AA020091
:10AA0000039B5A68069B13441A78029B1A702FE026
:10AA1000039B5A68069B5B0013441A88029B1A80AA
:10AA200026E0039B5A68069B9B0013441A68029B0E
:10AA30001A601DE0039B5A68069BDB001344D3E9B0
:10AA400000230299C1E9002312E0039B5B681946C9
:10AA5000039BDB68069A02FB03F30B441946039B36
:10AA6000DB681A4602980BF027FB01E005230793E9
:10AA70009DF817301846FDF795F8079B184608B063
:10AA800010BD00BF84B00190019B1B681B6803933D
:10AA9000019B1B685B680293039A029B9A420CBF5E
:10AAA00001230023DBB2184604B0704782B0019046
:10AAB0000091019B009A1A60019B1B681A68019B18
:10AAC0005A60019B5A68019B1B685B689A4202D1DD
:10AAD000019B00225A6000BF02B0704782B0019013
:10AAE000019B5B68002B14D0019B5B681A46019B9D
:10AAF0001B689B6813441A46019B5A60019B5A6865
:10AB0000019B1B685B689A4204D1019B00225A603A
:10AB100000E000BF02B0704700B585B00190009121
:10AB2000019B5B6803930FE0019B9B68039A12688B
:10AB3000009910469847034683F00103DBB2002BCF
:10AB400007D1039B1B680393039B1B68002BEBD16E
:10AB500000E000BF039B1A68009B1A60039B009AE9
:10AB60001A6000BF05B05DF804FB84B00190019B42
:10AB70005B681B680393019B5B681B68002B06D016
:10AB8000019B5B681A68019B5B6812681A60039BF3
:10AB9000184604B0704782B00190019B5B681B6847
:10ABA000184602B0704784B00190009100238DF8E0
:10ABB0000F30019B5B6802930FE0029B1B68009AB9
:10ABC0009A4207D1009B1A68029B1A6001238DF8F4
:10ABD0000F3006E0029B1B680293029B1B68002B50
:10ABE000EBD19DF80F30184604B07047BFF34F8F7C
:10ABF00000BF064BDB6803F4E0620449044B1343D7
:10AC0000CB60BFF34F8F00BF00BFFDE700ED00E05A
:10AC10000400FA05002318467047002318467047C1
:10AC200000231846704700231846704782B0124B25
:10AC30001B680193114B1B680093019B082B17D1D4
:10AC4000009B032B12D801A252F823F05DAC020046
:10AC500061AC020065AC020069AC0200012308E0AF
:10AC6000012306E0012304E0012302E0012300E0C8
:10AC70000023184602B07047300100103401001064
:10AC800000231846704700231846704782B0124BC5
:10AC90001B680193114B1B680093019B082B17D174
:10ACA000009B032B12D801A252F823F0BDAC020086
:10ACB000C1AC0200C5AC0200C9AC0200012308E02F
:10ACC000012306E0012304E0012302E0012300E068
:10ACD0000023184602B07047300100103401001004
:10ACE000002318467047000082B0124B1B68019386
:10ACF000114B1B680093019B082B17D1009B032B62
:10AD000012D801A252F823F019AD02001DAD0200C5
:10AD100021AD020025AD0200012308E0012306E079
:10AD2000012304E0012302E0012300E00023184690
:10AD300002B07047300100103401001000231846A3
:10AD400070470000024B034A1A6000BF704700BF03
:10AD5000042B00200090D00308B5FFF75BFF0346EB
:10AD6000002B06D0A04B1B681B0AA04A03F01F0350
:10AD70001360FFF752FF0346002B02D09C4B9D4A05
:10AD80001A60FFF74DFF0346002B06D09A4B1B6855
:10AD90005B0B9A4A03F007031360FFF744FF034677
:10ADA000002B05D0964BDB68954A23F08073D36067
:10ADB000FFF73CFF0346002B0ED04FF080430022EC
:10ADC000C3F80C214FF080430022C3F810214FF04C
:10ADD00080430022C3F83825FFF752FF0346002BBB
:10ADE00002D0884B03221A60FFF74DFF0346002B69
:10ADF0000BD0854B05221A60844B01221A60844BCC
:10AE000000221A60834B3F221A60FFF73FFF034680
:10AE1000002B76D04FF080537F4AD3F80434C2F829
:10AE200020354FF080537C4AD3F80834C2F82435DB
:10AE30004FF08053784AD3F80C34C2F828354FF0DD
:10AE40008053754AD3F81034C2F82C354FF0805334
:10AE5000714AD3F81434C2F830354FF080536E4A3B
:10AE6000D3F81834C2F834354FF080536A4AD3F817
:10AE70001C34C2F840354FF08053674AD3F8203471
:10AE8000C2F844354FF08053634AD3F82434C2F8F3
:10AE900048354FF08053604AD3F82834C2F84C3517
:10AEA0004FF080535C4AD3F82C34C2F850354FF041
:10AEB0008053594AD3F83034C2F854354FF0805398
:10AEC000554AD3F83434C2F860354FF08053524AB3
:10AED000D3F83834C2F864354FF080534E4AD3F873
:10AEE0003C34C2F868354FF080534B4AD3F84034B5
:10AEF000C2F86C354FF08053474AD3F84434C2F857
:10AF00007035FFF7EDFE0346002B05D0434B1B6861
:10AF1000434A03F04F031360FFF7E6FE0346002B9E
:10AF20000DD04FF08043D3F8003403F00103002B21
:10AF300005D04FF080436FF00102C3F80024FFF703
:10AF4000FDFE0346002B05D0364B1B68354A43F403
:10AF500080631360344BD3F88830334A43F4700372
:10AF6000C2F88830BFF34F8F00BFBFF36F8F00BFB1
:10AF70004FF01023D3F80032002B05DB4FF01023E5
:10AF8000D3F80432002B2BDA284B0122C3F8042516
:10AF900000BF264BD3F80034002BFAD04FF010231B
:10AFA0001522C3F8002200BF204BD3F80034002B39
:10AFB000FAD04FF010231522C3F8042200BF1B4B18
:10AFC000D3F80034002BFAD0184B0022C3F8042524
:10AFD00000BF164BD3F80034002BFAD0FFF706FE63
:10AFE000FFF7B0FE00BF08BD24030010403501404C
:10AFF00074C007400DF0ADBA440200103C0500409B
:10B00000F0ED00E0A00500401056004088560040DA
:10B01000185600401456004000C00040580200106E
:10B02000E40E00403C17004000ED00E000E001406D
:10B0300082B003468DF807309DF90730002B13DBF3
:10B040009DF8073003F01F0209499DF907305B099D
:10B05000012000FA02F2203341F82320BFF34F8F82
:10B0600000BFBFF36F8F00BF00BF02B0704700BFCB
:10B0700000E100E0044BD3F80034002B14BF01239F
:10B080000023DBB2184670470000014008B5FFF707
:10B09000F1FF034683F00103DBB2002B04D000F084
:10B0A00041FA024B00229A7000BF08BDD02C00204C
:10B0B00000B583B000230193184B1B78002B02D0FE
:10B0C000852301931CE0154B00229A60134B00224C
:10B0D0005A60124B00221A61104B0022DA601048AD
:10B0E00000F0FEF901900AF02FF9034683F0010306
:10B0F000DBB2002B01D000F00DFA084B01221A70D0
:10B10000FFF7B8FF0346002B02D0044B01229A70D0
:10B11000019B184603B05DF804FB00BFD02C002053
:10B12000D1B1020084B00190019B1B680393039B83
:10B13000002B03D0039B1A68019B1A60039B1846DF
:10B1400004B0704700B583B000238DF807300DF1CF
:10B1500007031846FCF71CFD094BDB68013B084A56
:10B16000D360074BDB68002B01D1FFF78FFF9DF801
:10B1700007301846FCF716FD00BF03B05DF804FB6E
:10B18000D02C002000B585B003468DF807309DF81F
:10B190000730002B02D10C4B039301E00B4B0393C0
:10B1A0000398FFF7BFFF0290029B002B06D0029B83
:10B1B0005B689DF8072010469847F1E700BF00BF85
:10B1C00005B05DF804FB00BFD82C0020E02C002067
:10B1D00000B583B003468DF807309DF80730002B8B
:10B1E00005D10A4B01225A700020FFF7CBFF9DF8D2
:10B1F0000730012B05D1054B01229A700120FFF782
:10B20000C1FF00BF03B05DF804FB00BFD02C0020DD
:10B2100000B583B001900091019B002B05D1054B37
:10B2200001225A700020FFF7ADFF00BF03B05DF8A8
:10B2300004FB00BFD02C002000B585B00346009170
:10B240008DF807309DF80730032B29D0032B2CDC19
:10B25000002B02D0012B04D027E00020FFF7E8FEEE
:10B2600024E000238DF80F300DF10F031846FCF792
:10B270008FFC104B1B7883F00103DBB2002B01D055
:10B28000FFF716FF0B4BDB6801330A4AD360094B0B
:10B2900001229A709DF80F301846FCF783FC05E0F8
:10B2A00000F038F9FFF74EFF00E000BF00BF05B027
:10B2B0005DF804FBD02C002082B003468DF80730E7
:10B2C0009DF90730002B0CDB9DF8073003F01F02BF
:10B2D00005499DF907305B09012000FA02F241F8A7
:10B2E000232000BF02B0704700E100E082B00346B7
:10B2F00000918DF807309DF90730002B0ADB009B89
:10B30000DAB20C499DF907305201D2B20B4483F8EE
:10B3100000230BE0009BDAB207499DF8073003F0E9
:10B320000F03043B5201D2B20B441A7600BF02B0A5
:10B33000704700BF00E100E000ED00E082B0019046
:10B34000019B1B0B5BB2184602B0704700B583B07F
:10B3500003460A468DF8073013468DF806309DF8EF
:10B3600006209DF9073011461846FFF7BFFF00BFC2
:10B3700003B05DF804FB00B583B003468DF80730D9
:10B380009DF907301846FFF797FF00BF03B05DF83F
:10B3900004FB000082B003468DF807300F4A9DF988
:10B3A0000730002B00DA1F335B115BB252F8232009
:10B3B0009DF90730594203F01F0301F01F0158BFE8
:10B3C0004B425BB222FA03F303F00103002B14BFDC
:10B3D00001230023DBB2184602B0704700E100E011
:10B3E00082B001904FF08042019BC2F8083300BF49
:10B3F00002B0704782B003468DF807309DF80730E1
:10B4000003F1804301221A6000BF02B0704784B08C
:10B410000346ADF80630BDF8063003F18043002244
:10B420001A60BDF8063003F180431B680393039B49
:10B4300000BF04B0704782B00346ADF80630BDF8D7
:10B44000063003F180431B68002B14BF0123002347
:10B45000DBB2184602B0704782B001904FF08042D4
:10B46000019BC2F8183500BF02B070474FF080430F
:10B47000D3F818341B0C03F00103002B14BF012375
:10B480000023DBB21846704700B583B006238DF861
:10B4900007304FF08040FFF751FF03461846FFF793
:10B4A00079FF034683F00103DBB2002B13D04FF08A
:10B4B0008040FFF743FF03461A469DF807301946C0
:10B4C0001046FFF743FF4FF08040FFF737FF03467A
:10B4D0001846FFF750FF00BF03B05DF804FB000003
:10B4E00084B0019000230393094B1B79002B02D0F9
:10B4F0008523039308E0064A019B1360044B012255
:10B500001A71034B00225A71039B184604B070470E
:10B51000E42C002008B5FFF7B7FF0120FFF79CFFE0
:10B5200000BF08BD08B50220FFF75AFF4FF4827034
:10B53000FFF76DFF0C20FFF75DFF00BFFFF796FFE1
:10B540000346002BFAD100BF00BF08BD08B54FF479
:10B550008070FFF770FF0346002B14D04FF480700B
:10B56000FFF755FF0120FFF73BFF114B5B7983F09D
:10B570000103DBB2002B06D00D4B01225A710C4B9C
:10B580001B68002098474FF48270FFF754FF034672
:10B59000002B0AD04FF48270FFF739FF0220FFF72B
:10B5A0001FFF034B1B680120984700BF08BD00BF69
:10B5B000E42C002000B583B00346ADF80630BDF89A
:10B5C0000630184600F026F803461B68012B0CBF16
:10B5D00001230023DBB2184603B05DF804FB00B57D
:10B5E00085B00346ADF80630BDF80630184600F0C9
:10B5F00011F803461A4600231360BDF806301846BA
:10B6000000F008F803461B680393039B00BF05B0D6
:10B610005DF804FB82B00346ADF80630BDF8063095
:10B6200003F1804303F5C043184602B070470000A1
:10B6300082B00190034BD3F80423019B13401846BA
:10B6400002B070470060004082B00190054A019B43
:10B6500003F5A27352F823301B0A03F03F03184688
:10B6600002B070470060004082B00190064A019B22
:10B6700003F5A27352F823301B0C03F00303DBB273
:10B68000184602B0704700BF0060004082B00190D1
:10B69000019B1B681F2B02D84FF0A04306E0019BC3
:10B6A0001B6803F01F02019B1A60024B184602B090
:10B6B000704700BF0003005000B585B001900B46F5
:10B6C0008DF8033001AB1846FFF7E0FF0390019AB5
:10B6D000039B02F5E07253F82230019A23F44031C3
:10B6E000039B02F5E07243F82210019A039B02F5D6
:10B6F000E07253F822309DF8032012041146019A9B
:10B700001943039B02F5E07243F8221000BF05B015
:10B710005DF804FB00B585B0019001AB1846FFF75A
:10B72000B5FF0390019A039B02F5E07253F82230B3
:10B730001B0C03F00303DBB2184605B05DF804FBF5
:10B7400088B0039002910192164A05AB92E803007B
:10B7500083E80300039B079319E0079B9B0008AA5B
:10B76000134453F80C3CD3F82025019B1A60079B27
:10B770009B0008AA134453F80C3C019A1268C3F8C2
:10B780002025019B04330193079B01330793039A00
:10B79000029B1344079A9A42DFD300BF00BF08B050
:10B7A000704700BF6C77030000B585B0019001AB16
:10B7B0001846FFF76BFF0390019B012202FA03F387
:10B7C0001A46039BC3F8202500BF05B05DF804FBB3
:10B7D00084B001900091009B0393019BDB080293CE
:10B7E000019B03F0070301930122019B02FA03F37B
:10B7F0000399029A0A4412781340184604B070471D
:10B8000082B00190044A019B1344303393F9003015
:10B81000184602B0704700BFEC2C002082B00190A7
:10B82000034A019B52F82330184602B0704700BF0C
:10B83000EC2C002084B00190074A019B1344603334
:10B8400093F900308DF80F309DF80F3023F0C003CE
:10B85000184604B0704700BFEC2C002084B0019063
:10B86000074A019B1344603393F900308DF80F3081
:10B870009DF80F309B09DBB2184604B0704700BF3B
:10B88000EC2C002000B585B00190019A0221002027
:10B89000FFF756FF002303930BE0039B9B00019AE5
:10B8A00013441B68002B01D0012306E0039B0133E6
:10B8B0000393039B012BF0D90023184605B05DF8D4
:10B8C00004FB000000B587B00190002305935BE006
:10B8D000344A059B1344603393F90030B3F1FF3FC2
:10B8E0004ED00598FFF7A6FF049001990498FFF742
:10B8F0006FFF0346002B44D00598FFF7AFFF0346C8
:10B900008DF80F300498FFF705FF03468DF80E30D1
:10B910009DF80E30022B01D1032300E002238DF8A5
:10B920000D309DF80D3019460498FFF7C5FE0498B8
:10B93000FFF73AFF0498FFF763FF03461846FFF747
:10B940006DFF0290029B002B1BD09DF80F30032B44
:10B950000FD09DF80E30022B03D19DF80F30012B34
:10B9600007D09DF80E30032B0BD19DF80F30022B22
:10B9700007D19DF80F20029B11460498984700E0DC
:10B9800000BF059B01330593059B032BA0D90198AC
:10B99000FFF778FF0346002B97D100BF00BF07B029
:10B9A0005DF804FBEC2C002000B58BB0002309935C
:10B9B00001AB00221A605A604FF48073ADF81E305C
:10B9C000012306930023089321E0BDF81E3018469A
:10B9D000FFF7F0FD0346002B0ED00698FFF728FE78
:10B9E0000346002B08D0BDF81E301846FFF7F7FDC0
:10B9F000099A069B13430993069B5B000693BDF8C7
:10BA00001E300433ADF81E30089B01330893089BA9
:10BA1000072BDAD94FF4BE70FFF7CCFD0346002B9D
:10BA20000DD04FF4BE70FFF7DAFD099B43F00043E1
:10BA3000099301AB1A4602210020FFF781FE099B02
:10BA4000DBB2002B29D0012306930023089321E0C9
:10BA5000069A099B1340002B16D00898FFF7F4FDB7
:10BA600005900898FFF700FE03468DF813300898FC
:10BA7000FFF7D4FE0390039B002B05D09DF8132005
:10BA8000039B114605989847069B5B000693089B0D
:10BA900001330893089B072BDAD9099B002B03DAA3
:10BAA00001AB1846FFF70EFF00BF0BB05DF804FBBB
:10BAB00082B003468DF807309DF90730002B0DDB6F
:10BAC0009DF8073003F01F0206499DF907305B0916
:10BAD000012000FA02F2603341F8232000BF02B0D7
:10BAE000704700BF00E100E082B00190019B1B0B9A
:10BAF0005BB2184602B0704700B583B003468DF8BC
:10BB000007309DF907301846FFF7D2FF00BF03B09A
:10BB10005DF804FB82B001900B468DF803309DF870
:10BB20000330019A134401221A6000BF02B070472B
:10BB300084B001900B46ADF80230BDF80230019A96
:10BB4000134400221A60BDF80230019A13441B68A6
:10BB50000393039B00BF04B0704782B001900B4673
:10BB6000ADF80230BDF80230019A13441B68002B77
:10BB700014BF01230023DBB2184602B0704782B025
:10BB800001900091019B009AC3F8042300BF02B00A
:10BB9000704782B001900091019B009AC3F808237E
:10BBA00000BF02B0704782B00190019B0622C3F82B
:10BBB000002500BF02B0704782B00190019B0022B7
:10BBC000C3F8002500BF02B0704784B00190019B0C
:10BBD000D3F8C4340393019B039AC3F8C424039B92
:10BBE000184604B0704782B001900091019B009A02
:10BBF000C3F8002200BF02B0704782B00190019BE1
:10BC0000D3F84C35184602B0704782B00190019BC2
:10BC1000D3F80032184602B0704782B00190019B01
:10BC2000D3F83C35184602B07047000000B585B027
:10BC30000190009101238DF80F30009B1B7B032B9B
:10BC400056D801A252F823F0C1BC0200D9BC0200B0
:10BC500099BC020059BC0200009B9B6803F480233E
:10BC6000002B07D00198FFF7C8FF0246009B1B6915
:10BC70009A420DD1009B9B6803F48023002B39D19D
:10BC80000198FFF7BAFF0246009B5B699A4231D0E8
:10BC900000238DF80F302DE00198FFF7AEFF02462C
:10BCA000009B1B699A4207D10198FFF7B6FF024635
:10BCB000009B5B699A421FD000238DF80F301BE078
:10BCC0000198FFF79AFF0246009B1B699A4215D024
:10BCD00000238DF80F3011E00198FFF79EFF024618
:10BCE000009B1B699A420BD000238DF80F3007E0B0
:10BCF00000BF06E000BF04E000BF02E000BF00E0BC
:10BD000000BF9DF80F3083F00103DBB2002B05D09C
:10BD10000198FFF751FF0198FFF745FF9DF80F309D
:10BD2000184605B05DF804FB30B58BB0019000916A
:10BD30004FF492710198FFF710FF0346002B3ED09D
:10BD40004FF492710198FFF7F3FE4FF4827101985E
:10BD5000FFF703FF034683F00103DBB2002B2ED075
:10BD6000009B9B6819460198FFF713FF009B022276
:10BD70009A60009B9B6819460198FFF700FF4FF4FB
:10BD8000B0710198FFF7E9FE034683F00103DBB2CF
:10BD9000002B07D10198FFF738FF034603F4007327
:10BDA000002B07D120210198FFF7B4FE1421019840
:10BDB000FFF7B0FE009B012283F82E20F6E04FF43F
:10BDC00082710198FFF7C9FE0346002B5DD04FF446
:10BDD00082710198FFF7ACFE009B1B6A03F04003E1
:10BDE000002B1AD1009B93F82E3083F00103DBB2B5
:10BDF000002B12D000990198FFF718FF0346002B83
:10BE000014BF01230023DBB283F00103DBB203F094
:10BE10000103DAB2009B83F82E20009B1B6A03F01B
:10BE20000403002B79D1009B04AC03F10C050FCD6A
:10BE30000FC42B6823604FF4B0710198FFF778FEB0
:10BE40004FF4AE710198FFF773FE009B93F830300A
:10BE500083F00103DBB2002B04D1009B93F82E305A
:10BE6000002B5AD000210198FFF7BDFE009B002255
:10BE70009A604F490198FFF78CFE0198FFF734FE56
:10BE800003461846FFF738FE47E04FF4A4710198C7
:10BE9000FFF74EFE009B1B7B002B22D1009B04ACC6
:10BEA00003F10C050FCD0FC42B682360009B93F8A2
:10BEB000303083F00103DBB2002B2ED0002101983B
:10BEC000FFF791FE009B00229A6039490198FFF725
:10BED00060FE0198FFF708FE03461846FFF70CFEC8
:10BEE0001BE04FF400710198FFF77DFE009B40F2CC
:10BEF00002229A602E490198FFF74BFE009B9B6837
:10BF000019460198FFF73BFE08210198FFF702FE52
:10BF100020210198FFF7FEFD48E00198FFF755FE4C
:10BF20000990099B03F00203002B03D001238DF835
:10BF30000C301DE0099B03F00403002B03D0022307
:10BF40008DF80C3014E0099B03F00103002B03D0A3
:10BF500003238DF80C300BE0009B93F82E30002B60
:10BF600003D004238DF80C3002E000238DF80C3050
:10BF7000009B93F8303083F00103DBB2002B03D039
:10BF8000009B002283F82F20009B1B6A03F0040310
:10BF9000002B04D0009B93F82E30002B06D0009B82
:10BFA0001B68009A516803AA104698470BB030BD31
:10BFB00002029C0108B503490348FFF7B5FE00BF24
:10BFC00008BD00BF582D00200030004008B5024BCE
:10BFD0001B68984700BF08BD8C2D002082B00190DF
:10BFE000019B044A934201D1034B00E00023184611
:10BFF00002B07047002000408C2D002000B587B0B3
:10C00000019000910198FFF7E9FF0490049B002B39
:10C0100025D000238DF8173000238DF80B300DF15B
:10C020000B031846FBF7B4FD049B1B79002B03D0D0
:10C0300001238DF8173005E0049B009A1A60049BD9
:10C0400001221A719DF80B301846FBF7ABFD9DF8E5
:10C050001730002B03D011230393039B02E000232E
:10C060000393039B184607B05DF804FB82B00346B8
:10C070008DF807309DF90730002B0CDB9DF8073059
:10C0800003F01F0205499DF907305B09012000FA02
:10C0900002F241F8232000BF02B0704700E100E047
:10C0A00082B0034600918DF807309DF90730002BD0
:10C0B0000ADB009BDAB20C499DF907305201D2B27B
:10C0C0000B4483F800230BE0009BDAB207499DF88C
:10C0D000073003F00F03043B5201D2B20B441A762F
:10C0E00000BF02B0704700BF00E100E000ED00E0DB
:10C0F00000B583B003460A468DF8073013468DF825
:10C1000006309DF806209DF9073011461846FFF7C6
:10C11000C7FF00BF03B05DF804FB00B583B0034662
:10C120008DF807309DF907301846FFF79FFF00BFD5
:10C1300003B05DF804FB000082B003468DF80730C1
:10C14000034A9DF80730C2F80C3500BF02B07047B3
:10C150000000014082B003468DF807309DF807309B
:10C1600003F1804303F5803301221A6000BF02B05F
:10C17000704784B00346ADF80630BDF8063003F1D1
:10C18000804303F5803300221A60BDF8063003F1C6
:10C19000804303F580331B680393039B00BF04B007
:10C1A000704782B00346ADF80630BDF8063003F1A3
:10C1B000804303F580331B68002B14BF0123002349
:10C1C000DBB2184602B0704782B00190034A019B6F
:10C1D000C2F8043300BF02B0704700BF0000014046
:10C1E00082B00190034A019BC2F8043500BF02B03F
:10C1F000704700BF0000014082B003468DF8073051
:10C20000074BD3F808259DF80730012101FA03F305
:10C2100003491343C1F8083500BF02B0704700BF9F
:10C220000000014082B003468DF80730054A9DF8B2
:10C23000073003F5C073044942F8231000BF02B071
:10C24000704700BF000001403546526E08B54FF4FC
:10C250008070FFF7A6FF0346002B06D0044B1B6837
:10C2600098474FF48070FFF784FF00BF08BD00BF00
:10C27000982D002030B587B0019000911E4A009B98
:10C2800013601E4B1B78002B2FD11C4B01221A7000
:10C29000019B1B781846FFF74FFF019B5B6800224C
:10C2A0001C4615464FF000004FF00001E90341EA3B
:10C2B0005441E0034FF47A724FF0000309F0CAFDD5
:10C2C00002460B46CDE90223029B1846FFF788FF82
:10C2D000019B1B7A19461020FFF70AFF1020FFF779
:10C2E0001CFF00230593059B02E008230593059B93
:10C2F000184607B030BD00BF982D0020942D0020B7
:10C3000008B50120FFF760FF0020FFF723FF024B75
:10C3100002221A7000BF08BD942D002000B585B020
:10C32000019000238DF80B300DF10B031846FBF73D
:10C330002FFC114B1B78072B11D80F4B1A78019B40
:10C340001A700D4B1B780133DAB20B4B1A70019B3C
:10C350001B781846FFF750FF0023039301E00423E6
:10C3600003939DF80B301846FBF71CFC039B184603
:10C3700005B05DF804FB00BF952D002000B583B02B
:10C3800003468DF807309DF807301846FFF74AFF3F
:10C3900000BF03B05DF804FB00B589B001900091C7
:10C3A000009B0793019B1B788DF80830019B5B680D
:10C3B0000393019B9B68DBB28DF81030019BDB6817
:10C3C0000593019B1B69DBB28DF81830074A079B68
:10C3D00052F823300649079A51F8221002AA104653
:10C3E000984700BF09B05DF804FB00BF9C2D0020FA
:10C3F000AC2D002010B58AB00390029101920093F9
:10C40000039B1B7809932249099B019A41F8232039
:10C410002049099B009A41F82320002308931E4BD2
:10C4200004AC0FCB84E80F00029B1B788DF8103012
:10C43000029B5B788DF81130029B9B788DF812304F
:10C44000029BDB788DF81330029B1B798DF8153039
:10C45000029B5B798DF81630029B9B680693029BCA
:10C460001B7B8DF81C30029B5B7B8DF81D30039B82
:10C47000181D019B002B01D0084A00E00022099BF7
:10C4800004A900F023FA0890089B18460AB010BDD2
:10C490009C2D0020AC2D00207477030099C302006E
:10C4A00082B003468DF807309DF90730002B0CDB76
:10C4B0009DF8073003F01F0205499DF907305B091D
:10C4C000012000FA02F241F8232000BF02B07047B9
:10C4D00000E100E082B0034600918DF807309DF93D
:10C4E0000730002B0ADB009BDAB20C499DF90730BC
:10C4F0005201D2B20B4483F800230BE0009BDAB266
:10C5000007499DF8073003F00F03043B5201D2B2F4
:10C510000B441A7600BF02B0704700BF00E100E094
:10C5200000ED00E082B00190019B03F06043B3F1A5
:10C53000005F0CBF01230023DBB2184602B0704736
:10C5400082B00190019B1B0B5BB2184602B0704792
:10C5500000B583B003460A468DF8073013468DF8C0
:10C5600006309DF806209DF9073011461846FFF762
:10C57000B1FF00BF03B05DF804FB00B583B0034614
:10C580008DF807309DF907301846FFF789FF00BF87
:10C5900003B05DF804FB82B001900B468DF80330C8
:10C5A0009DF80330019A134401221A6000BF02B0C3
:10C5B000704784B001900B46ADF80230BDF80230F0
:10C5C000019A134400221A60BDF80230019A134404
:10C5D0001B680393039B00BF04B0704782B00190B7
:10C5E0000B46ADF80230BDF80230019A13441B68C7
:10C5F000002B14BF01230023DBB2184602B07047A2
:10C6000082B001900091019B009AC3F8042300BFFF
:10C6100002B0704782B001900091019B009AC3F86C
:10C62000082300BF02B0704782B00190019B07222F
:10C63000C3F8002500BF02B0704784B00390029198
:10C6400001920093039B029AC3F80825039B019A69
:10C65000C3F80C25039B009AC3F8102500BF04B053
:10C66000704782B001900091009A019BC3F8242585
:10C6700000BF02B0704784B0039002910192029A09
:10C68000039BC3F84425039B019AC3F8482500BFC8
:10C6900004B0704784B0039002910192029A039B08
:10C6A000C3F83425039B019AC3F8382500BF04B0B2
:10C6B000704784B001900B468DF8033013468DF817
:10C6C00002309DF80230002B14BF01230023DBB29F
:10C6D00003939DF80330032B10D0032B13DC012BA5
:10C6E00002D0022B05D00EE0039B43F0020303931C
:10C6F0000AE0039B43F00403039305E0039B43F02C
:10C700000603039300E000BF019B039AC3F854257E
:10C7100000BF04B0704782B001900B468DF8033023
:10C720009DF80320019BC3F8C02500BF02B07047ED
:10C7300082B00190019B0122C3F8502500BF02B0D6
:10C74000704782B00190019B0022C3F8502500BFC2
:10C7500002B0704782B00190019B0122C3F84025CE
:10C7600000BF02B0704782B00190019B0022C3F865
:10C77000402500BF02B0704782B00190019B1B684A
:10C780001F2B02D84FF0A04306E0019B1B6803F06B
:10C790001F02019B1A60024B184602B0704700BF8F
:10C7A0000003005000B585B00190084611461A46B6
:10C7B00003468DF803300B468DF8023013468DF892
:10C7C000013001AB1846FFF7D7FF03909DF8032017
:10C7D0009DF802305B001A439DF801309B001A431C
:10C7E0009DF818301B0242EA03019DF81C301B041F
:10C7F000019A1943039B02F5E07243F8221000BF2F
:10C8000005B05DF804FB00B585B0039000230193EB
:10C81000002300930023012201210398FFF7C2FFA8
:10C8200000BF05B05DF804FB00B585B003900B4672
:10C830008DF80B309DF80B300022019200220092FF
:10C84000002200210398FFF7ADFF00BF05B05DF89F
:10C8500004FB00B585B0019001AB1846FFF78CFFD3
:10C860000390019B012202FA03F31946039800F09A
:10C8700018F800BF05B05DF804FB00B585B0019065
:10C8800001AB1846FFF778FF0390019B012202FAE3
:10C8900003F31946039800F00EF800BF05B05DF8E9
:10C8A00004FB82B001900091019B009AC3F8082517
:10C8B00000BF02B0704782B001900091019B009AC6
:10C8C000C3F80C2500BF02B07047000000B58DB062
:10C8D0000590049103920293059B1B791A46134617
:10C8E000DB0013449B00664A13440993099B1B7F9A
:10C8F000002B03D008230793079BBDE0059B1B6813
:10C900000893059B1A68059B1B7919465D4B53F8E4
:10C91000213019461046FFF771FB0346002B03D068
:10C9200011230793079BA7E0099B039A1A60099BB1
:10C93000029A5A60049B1B7B012B05D8049B1B7831
:10C940001846FFF79AFF04E0049B1B781846FFF790
:10C9500080FF049B1B78184600230193002300935B
:10C96000002300220121FFF71DFF049B5B78FF2BB2
:10C9700009D0049B5B780B930B98FFF77EFF0B9815
:10C98000FFF741FF02E04FF0FF330B93049B9B78CE
:10C99000FF2B07D0049B9B780A9301210A98FFF78D
:10C9A00043FF02E04FF0FF330A93049B9A78099B00
:10C9B00083F82020049BDA78099BDA77049BDB78E4
:10C9C000FF2B17D0049B1B79002B05D0049BDB7831
:10C9D0001846FFF752FF04E0049BDB781846FFF788
:10C9E00038FF049BDB781846FFF70DFF049B1A798C
:10C9F000099B9A77049B1B7819460A9B0B9A089807
:10CA0000FFF71BFE049B9B6819460898FFF729FE59
:10CA1000049B197B049B5B7B1A460898FFF749FE31
:10CA2000049B9B7919460898FFF775FE0898FFF755
:10CA3000FBFD099B1B68002B15D0059B1B68184646
:10CA4000FFF77EFD03461A46049B5B7919461046A4
:10CA5000FFF77EFD059B1B681846FFF771FD034637
:10CA60001846FFF78AFD099B00225A77099B01228D
:10CA70001A7700230793079B18460DB05DF804FB57
:10CA8000BC2D00208477030000B583B00190019B8A
:10CA9000DB7FFF2B0ED0019B9B7F002B05D0019BE2
:10CAA000DB7F1846FFF7E9FE04E0019BDB7F1846B9
:10CAB000FFF7CFFE019B00225A77019B00221A72DA
:10CAC000019B1B68019A02F10800019A5268114605
:10CAD000984700BF03B05DF804FB00B583B0019038
