:020000022000DC
:10700000000004205D730200B9730200BB7302002C
:10701000BD730200BF730200C173020000000000D4
:10702000000000000000000000000000C373020028
:10703000C573020000000000C7730200C97302009C
:107040000DC40200CB730200D1F1020039DA020054
:10705000CB730200CB730200C5CA0200CB730200DF
:10706000CB730200CB730200CB730200CB73020020
:10707000CB730200CB730200CB730200CB73020010
:10708000F1F20200A9820200CB730200CB7302006E
:10709000CB730200CB730200857D0300CB7302002B
:1070A000CB730200CB730200CB730200CB730200E0
:1070B000CB730200CB730200000000000000000050
:1070C000CB730200CB730200CB730200CB730200C0
:1070D000CB730200CB730200CB730200CB730200B0
:1070E000CB730200CB730200CB73020000000000E0
:1070F00000000000CB73020000000000CB73020010
:10710000000000000000000000000000000000007F
:10711000000000000000000000000000000000006F
:10712000000000000000000000000000000000005F
:10713000000000000000000000000000000000004F
:10714000000000000000000000000000000000003F
:10715000000000000000000000000000000000002F
:10716000000000000000000000000000000000001F
:10717000000000000000000000000000000000000F
:1071800000000000000000000000000000000000FF
:1071900000000000000000000000000000000000EF
:1071A00000000000000000000000000000000000DF
:1071B00000000000000000000000000000000000CF
:1071C00000000000000000000000000000000000BF
:1071D00000000000000000000000000000000000AF
:1071E000000000000000000000000000000000009F
:1071F000000000000000000000000000000000008F
:10720000354936480A1A02D0072291438D4634493F
:1072100034480A1A06D00722914381F309880222D2
:1072200082F3148830483149314A00F044F831483B
:107230003149324A00F03FF831483249324A00F0D1
:107240003AF832483249334A00F035F83248334987
:10725000334A00F030F833483349344A00F02BF811
:1072600033483449344A00F026F83448344900227F
:1072700000F02CF833483449002200F027F8334856
:107280003349091A082902DB002202604160314AB1
:1072900090471F481F49884205D00268043003B454
:1072A000904703BCF7E700208646EC46002000210B
:1072B000294A9047FEE7884207D0521A05D0037842
:1072C00001300B700131013AF9D17047884202D088
:1072D00002700130FAE770470000042000E003204C
:1072E0000000042000000420A0E60300FC2A002087
:1072F000DC2B0020D0730200D073020054B70300CF
:10730000A0E60300FC2A0020FC2A002024B9030088
:1073100024B9030024B9030024B9030024B90300ED
:1073200024B9030024B9030024B90300A0E6030034
:1073300080E70300DC2B0020DC2B0020DC2B00206E
:10734000A03C0020A03C0020A43C0020A43C002045
:10735000A45C002085730200D9FB020000F036B85F
:107360000F484FF00701884385460E4880470E4876
:10737000016841F470010160BFF34F8FBFF36F8F5D
:10738000FFF73EBF09480A490A4A884207D0521A05
:1073900005D0037801300B700131013AF9D1704703
:1073A00000000420F9B7020088ED00E010B90300E6
:1073B000E82A0020FC2A0020FEE7FEE7FEE7FEE7C1
:1073C000FEE7FEE7FEE7FEE7FEE7FEE7FFF7C8BFE2
:1073D00000487047983C002000B587B0019000231A
:1073E000039300230493019B059303AB1A460021EA
:1073F00044F2010000F018F800BF07B05DF804FB8C
:10740000BFF34F8F00BF064BDB6803F4E062044913
:10741000044B1343CB60BFF34F8F00BF00BFFDE7AA
:1074200000ED00E00400FA0500B585B0039002917C
:10743000019272B600BF11F0ADFF00BF11F0D4FD94
:107440000346002BFAD10F4A0F4BD31ADB081B045B
:1074500043F001030D49184611F06EFD0C4B1B68FB
:1074600003F00103002B00D000BE064A064BD31ADE
:10747000DB081B0443F002030649184611F05CFDCB
:10748000FFF7BEFF50B8030018B8030030B903007F
:10749000F0ED00E03CB903002DE9F04383B014485F
:1074A00000F0E8FE034600221C461546114BD3E9C6
:1074B000002314EB020845EB0309CDE900890E4BCC
:1074C000D3E90023DDE90001904271EB030307D209
:1074D000DDE9002312F1807643F10007CDE9006772
:1074E000DDE900231046194603B0BDE8F08300BF74
:1074F000FC2A0020E82B0020F02B002088B001900F
:107500000091019B0793009B0693079BD3E90223FD
:10751000CDE90423069BD3E90223CDE90223DDE96B
:107520000423DDE90201904271EB03032CBF012328
:107530000023DBB2184608B070470000F0B585B0F4
:10754000019000238DF80F30274B1B78002B45D07E
:10755000019B002B42D0019B1B7FDBB2002B3DD057
:10756000FFF79AFF019BD3E90223904271EB0303DB
:107570002CD3019B1B69002B02D1019B00221A779F
:10758000019B5B69019A926910469847019B1B69B0
:10759000002B23D0019B1B7FDBB2002B1ED0019B55
:1075A000D3E902230199096900200C460546161902
:1075B00043EB0507019BC3E90267019B19460B4892
:1075C00003F0B2FF01238DF80F3007E0019B19464D
:1075D000064803F0A9FF01238DF80F309DF80F3006
:1075E000184605B0F0BD00BFE02B00205CB90300D9
:1075F000F0B589B0019000910D230793009B002204
:107600001A70019BD3E90245FFF746FF02460B467D
:10761000A61A65EB0307CDE90467DDE90423012A17
:1076200073F100031BDB049BB3F5350F05D300F0AA
:1076300057FA0246134B134403E0019BD3E902239C
:10764000134603934FF49603039A00210E4800F06B
:107650001DFD0790079B002B05D101230EE00021A3
:10766000094800F0E1FD079B0D2B06D10198FFF7BB
:1076700065FF03461A46009B1A700023184609B09E
:10768000F0BD00BFFFFFB400FC2A002000B583B0AE
:10769000044803F072FF0190019B184603B05DF8A7
:1076A00004FB00BF5CB9030000B583B0044803F0DD
:1076B0007AFF0190019B184603B05DF804FB00BF00
:1076C0005CB9030000B583B0FFF7E0FF0190019BB8
:1076D000002B02D0019B00221A77019B002BF3D1D3
:1076E00000BF00BF03B05DF804FB0000054BD3E909
:1076F000002312F1807043F10001024BC3E9000145
:1077000000BF7047E82B002000B583B00190084B04
:107710001B68002B07D0064B1B681846FFF70EFFAF
:10772000034B00221A6000BF03B05DF804FB00BFEA
:10773000DC2B002000B583B00190FFF7ADFE0246C0
:107740000B460349C1E9002300BF03B05DF804FB09
:10775000F02B002000B585B00190FFF7A5FF039046
:1077600000238DF80B30039B002B48D02B4B1B685C
:10777000002B03D101238DF80B3019E0039BD3E9D3
:107780000201264B1B68D3E90223904271EB0303ED
:107790000ED201238DF80B30204B1B681B7FDBB210
:1077A000002B05D01D4B1B6819461D4803F0BCFE7D
:1077B0009DF80B30002B2AD0FFF768FF03900DF1E6
:1077C0000A0319460398FFF713FF0346002B12D054
:1077D000124B1B68002B02D1019800F09DFB0F4A51
:1077E000039B13609DF80A3083F00103DBB2002B8A
:1077F000B3D000BF0EE0094B00221A60ADE7074B83
:107800001B68002B05D1019800F093FB01E000BF3D
:1078100000E000BF00BF05B05DF804FBDC2B0020DA
:107820005CB9030000B587B001902C4A03AB194640
:10783000104602F060F9059048E0059B1B78022B8A
:107840002ED0022B32DC002B02D0012B14D02DE0E5
:10785000059B5B681B7FDBB283F00103DBB2002B6F
:1078600026D0059B5B6801221A77059B5B68194649
:107870001B4803F059FE1BE0059B5A68194B1B6817
:107880009A4203D1174B00221A6012E0059B5B68F5
:107890001946134803F08FFE03468DF8133008E0B5
:1078A000FFF710FF104B01221A7002E000BF00E04A
:1078B00000BF0A4A03AB1946104602F035F9074AE1
:1078C00003AB1946104602F016F90590059B002BF4
:1078D000B3D100BF00BF07B05DF804FB502C0020FF
:1078E0005CB90300DC2B0020E02B002000B583B046
:1078F0000190019800F08BFC0346002B01D0FFF7AC
:10790000F5FE0021019800F0A0FC0346002B02D0F8
:107910000198FFF7F9FE0121019800F096FC03465B
:10792000002B02D00198FFF705FF0198FFF77AFFBF
:107930000198FFF70FFF00BF03B05DF804FB0000E4
:1079400008B5024800F0A3FC00BF08BDFC2A0020D7
:1079500000B585B0034600918DF80730114A02AB9F
:107960001946104602F09AF80390039B002B13D09F
:10797000039B9DF807201A70039B009A5A60094ADE
:1079800002AB1946104602F0A2F80346002B01D0C4
:10799000FFF7D6FF002300E00423184605B05DF88A
:1079A00004FB00BF502C002000B583B0164B1B68B1
:1079B0000093164808235822154902F03CF801901C
:1079C000019B002B01D0019B19E06B46114A19461F
:1079D000114800F03BFA0190019B002B01D0019B64
:1079E0000DE001210C4800F001FC01230B4A0121AC
:1079F000094800F0ABFA0A4B01221A70019B1846A5
:107A000003B05DF804FB00BF58B90300502C002000
:107A1000F82B0020ED780200FC2A0020FFFF7F00F9
:107A2000E02B002086B003900B4601928DF80B30BE
:107A3000019B002B01D1072310E0039B1B680593DA
:107A4000059B019A5A619DF80B30012B0CBF012355
:107A50000023DBB21A46059B1A610023184606B0C4
:107A60007047F0B587B0039002910192039B059394
:107A7000059B1B7FDBB2002B01D000231CE0059B84
:107A8000019A9A61FFF708FD02460B460299002011
:107A90000C460546161943EB0507059BC3E902672B
:107AA000059B1B69002B02D0059B029A1A61059960
:107AB0000020FFF74DFF0346184607B0F0BD00B5A4
:107AC00085B00190019B0393039B00221A770399D1
:107AD0000120FFF73DFF0346184605B05DF804FBA3
:107AE00008B5034800F0C6FB0346184608BD00BFB2
:107AF000FC2A002082B0EFF310830093009B0193D7
:107B000072B600BF019B184602B0704762B600BF54
:107B100000BF704700B585B00190FFF7EBFF039001
:107B2000164B9B68002B1BD1144B01229A60144BFF
:107B3000D3F88020134B1340104A1360104B114AA6
:107B4000C3F880200E4BD3F884300C4A53600C4BA2
:107B50004FF0FF32C3F88420019B00221A7002E02C
:107B6000019B01221A70039B002B01D1FFF7CEFF6E
:107B70000023184605B05DF804FB00BF642C00200C
:107B800000E100E0FC06FFBD00B585B003468DF8BE
:107B90000730104B9B68002B16D09DF80730002B48
:107BA00012D1FFF7A7FF03900B4A0A4B1B68136023
:107BB000094A084B5B685360064B00229A60039B9E
:107BC000002B01D1FFF7A2FF0023184605B05DF896
:107BD00004FB00BF642C002000E100E000B583B08E
:107BE00001900198FFF796FF00BF03B05DF804FB1A
:107BF00000B583B003468DF807309DF8073018466E
:107C0000FFF7C2FF00BF03B05DF804FB82B003467C
:107C10008DF807309DF90730002B0CDB9DF80730FD
:107C200003F01F0205499DF907305B09012000FAA6
:107C300002F241F8232000BF02B0704700E100E0EB
:107C400082B003468DF807309DF90730002B0DDB1D
:107C50009DF8073003F01F0206499DF907305B09C4
:107C6000012000FA02F2403341F8232000BF02B0A5
:107C7000704700BF00E100E082B0034600918DF83C
:107C800007309DF90730002B0ADB009BDAB20C4964
:107C90009DF907305201D2B20B4483F800230BE068
:107CA000009BDAB207499DF8073003F00F03043B4D
:107CB0005201D2B20B441A7600BF02B0704700BF27
:107CC00000E100E000ED00E000B583B003460A46A5
:107CD0008DF8073013468DF806309DF806209DF983
:107CE000073011461846FFF7C7FF00BF03B05DF825
:107CF00004FB00B583B003468DF807309DF90730CB
:107D00001846FFF783FF00BF03B05DF804FB0000D7
:107D100000B585B00190019B002B0AD0074B43F0C2
:107D200001030393019B9B010293039B02989847D5
:107D300000E000BF05B05DF804FB00BFC0B9030060
:107D400084B0039002910192039B029A02F5A872FB
:107D5000019943F8221000BF04B0704782B001902F
:107D60000091019B009A02F5A87253F82230184640
:107D700002B0704782B001900091019B009AC3F855
:107D8000042300BF02B0704782B001900091019BB4
:107D9000009AC3F8082300BF02B0704782B0019078
:107DA0000B46ADF80230BDF80230019A13441B684F
:107DB000184602B0704784B001900B46ADF802300F
:107DC000BDF80230019A134400221A60BDF8023057
:107DD000019A13441B680393039B00BF04B07047D0
:107DE00082B00190019BD3F80435184602B0704769
:107DF00082B001900091019B009AC3F8082500BF52
:107E000002B0704782B001900B468DF803309DF8A8
:107E10000320019B13441A460123136000BF02B0E4
:107E2000704782B001900091019B009AC3F84423EF
:107E300000BF02B0704782B001900091019B009A90
:107E4000C3F8482300BF02B07047000000B587B0F8
:107E5000039002910192039B5B791946284A019B8A
:107E600042F82130039B5B79264ADB0013441B79DF
:107E7000002B0ED008230593234A244BD31ADB088A
:107E80001B0443F002032249184611F055F8059BE4
:107E900032E0039B1A68029B1B8819461046FFF7C5
:107EA000A7FF039B93F90420029B9B781946104679
:107EB000FFF70AFF039B93F904301846FFF719FFF9
:107EC000039B5B790F4ADB00134401221A71039B69
:107ED0005B7919460B4A039B42F831300023059326
:107EE000094A0A4BD31ADB081B0443F00303094970
:107EF000184611F021F8059B184607B05DF804FB01
:107F0000702C0020742C002060B8030018B8030007
:107F100068B903008CB9030000B583B00190019BE0
:107F20001B6800211846FFF76DFF00BF03B05DF826
:107F300004FB00B583B00190019B1B680421184627
:107F4000FFF760FF00BF03B05DF804FB00B587B02A
:107F50000390029101928DF803304FF48032029B1E
:107F600002FA03F30593029B50339BB29B00ADF8DA
:107F70001230019B23F07F430193039B1B680599FB
:107F80001846FFF701FF039B1B6805991846FFF78A
:107F900052FF039B1B68BDF8122011461846FFF7DD
:107FA0000AFF039B1B68019A02991846FFF7C8FE57
:107FB000039B1B6805991846FFF733FF9DF80330B4
:107FC000002B05D0039B1B6805991846FFF7D2FECE
:107FD00000BF07B05DF804FB00B585B003900291C7
:107FE00013468DF80730039B1B6802991846FFF76C
:107FF00018FF9DF80730002B05D0039B1B680299E2
:108000001846FFF7B7FE00BF05B05DF804FB00B5EA
:1080100083B001900091019B1B6800991846FFF7FF
:108020000AFF019B1B6800991846FFF7ADFE00BFD1
:1080300003B05DF804FB00B583B001900B46ADF8CA
:108040000230019B1B68BDF8022011461846FFF75D
:10805000A5FE0346002B09D0019B1B68BDF802203A
:1080600011461846FFF7A7FE012300E0002318463B
:1080700003B05DF804FB82B001900091019A009B6F
:10808000D31A23F07F43184602B0704700B58BB077
:1080900003900291019200934FF48032029B02FA06
:1080A00003F30993029B50339BB29B00ADF822303F
:1080B000019B23F07F43019309990398FFF7A7FFE2
:1080C000039B1B681846FFF78BFE0790039B1B68FA
:1080D00002991846FFF742FE0690039B1B68079A19
:1080E00002991846FFF72CFE039B1B68BDF822205F
:1080F00011461846FFF75FFE07990698FFF7BBFF8A
:108100000346012B0AD11020FFF702FE039B1B68D8
:10811000BDF8222011461846FFF74DFE039B1B6851
:108120001846FFF75DFE079007990198FFF7A3FF38
:108130000590039B1B6809991846FFF772FE059B83
:10814000012B15D1039B1868019B01331A46029934
:10815000FFF7F6FD1020FFF7DBFD039B1B681846B9
:10816000FFF73EFE0246079B934235D00D2339E0D0
:10817000039B1B68019A02991846FFF7E1FD039BD8
:108180001B681846FFF72CFE0790019B013B0799DF
:108190001846FFF770FF0590009BC3F1FF1303F52E
:1081A0007F43059A9A4201D90D231BE0059B002BC2
:1081B00012D1039B1868019B01331A460299FFF7FD
:1081C000BFFD039B1B681846FFF70AFE0246079B8C
:1081D000934201D00D2305E0012209990398FFF78E
:1081E000FBFE002318460BB05DF804FB00B583B01E
:1081F00001900B468DF803309DF803301A4602219A
:108200000198FFF7E9FE00BF03B05DF804FB00B57D
:1082100083B001904FF482710198FFF70CFF034681
:10822000184603B05DF804FB00B583B001900091DF
:108230004FF48032009B02FA03F319460198FFF7CE
:10824000E6FE00BF03B05DF804FB00B585B0019009
:108250000091009B50339BB29B00ADF80E30BDF8EF
:108260000E3019460198FFF7E6FE0346184605B0A2
:108270005DF804FB00B583B00190019B1B681846B4
:10828000FFF7AEFD0346184603B05DF804FB00B5EA
:1082900083B00190019B93F904301846FFF7D0FC9E
:1082A00000BF03B05DF804FB08B5044B1B68044A2B
:1082B00012681046984700BF08BD00BF702C002010
:1082C000742C002082B00190019B03F00303002B6B
:1082D0000CBF01230023DBB2184602B07047000038
:1082E00000B585B00190002303930EE00B4A039B79
:1082F00052F82330002B05D0084A039B52F8233054
:1083000001989847039B01330393039B032BEDD9FB
:1083100000BF00BF05B05DF804FB00BF882C002043
:1083200082B001900091019B1B78013B052B61D825
:1083300001A252F823F000BF5183020059830200CA
:108340007F830200B1830200D1830200ED8302002B
:10835000009B00221A704EE0009B01221A70019BC4
:108360001A89009B9A81019B9A88009BDA81019B64
:10837000DA68009B9A60009B00221A743BE0009B25
:1083800002221A70019B1A89009B9A81019B9A888C
:10839000009BDA81019BDA68009B9A60019B9B7DC0
:1083A000062B0CBF01230023DAB2009B1A7422E0D3
:1083B000009B03221A70019BDA88009B9A81019B23
:1083C0001A89009BDA81019BDA68009B9A6012E0AF
:1083D000009B04221A70019BDA88009B9A81009B03
:1083E0000022DA81009B00229A6004E0009B0522B3
:1083F0001A7000E000BF00BF02B0704784B0019067
:108400000091019B0393039A009B9A4206D2039B1F
:108410001B68B3F1FF3F01D0012300E0002303F00C
:108420000103DBB2184604B0704782B00190019B93
:108430005B8803339B00019A1344184602B07047CF
:1084400000B583B0019000910198FFF7EEFF02465E
:10845000009B934201D2022311E0019B9B884FF6BF
:10846000FF72934208D0019B1B88002B04D0019B14
:108470009B68B3F1FF3F01D1012300E000231846C0
:1084800003B05DF804FB000000B583B00190019BD0
:10849000002B13D00D4BDB681A46019B93420DD382
:1084A0000A4B1B691A46019B934207D80198FFF7B4
:1084B00009FF0346002B01D0012300E0002303F055
:1084C0000103DBB2184603B05DF804FBE82A002084
:1084D00082B003460A46ADF806301346ADF80430C4
:1084E000BDF80620134913469B0013449B000B4420
:1084F00008331A88BDF804301344ADF80430BDF8D1
:1085000006200C4913469B0013449B000B440A337E
:108510001A88BDF804301344ADF80430BDF80430B7
:10852000B3F5806F94BF01230023DBB2184602B07D
:10853000704700BFAC2C002084B00190009148F23D
:10854000096303930023ADF80A3027E0BDF80A2041
:10855000164913469B0013449B000B4404331B68CD
:10856000009A9A4215D9BDF80A20104913469B007B
:1085700013449B000B4404331B6803F58053009A9B
:108580009A4206D200230393019BBDF80A201A8069
:1085900008E0BDF80A300133ADF80A30BDF80A3002
:1085A000012BD3D9039B184604B07047AC2C002094
:1085B00082B001900091009B9B7D022B09D9019B09
:1085C0001A89009BDB8813449BB203339AB2019B48
:1085D0001A81019B5A89009BDB88D31A9BB2033B0B
:1085E0009AB2019B5A8100BF02B0704700B583B0B8
:1085F000074B1B681946002300930823054A0648C9
:1086000002F044F80346184603B05DF804FB00BFCF
:10861000D42C0020C8B90300E82A002000B585B09A
:1086200003900399002300930823044A044802F0AE
:108630002DF80346184605B05DF804FBD0B90300D9
:10864000E82A002000B585B003460091ADF8063059
:1086500000238DF80F30BDF806300333ADF80A3033
:10866000BDF80A3040F2FE32934202D948F2086364
:108670004BE00023ADF80C303BE0BDF80C20254961
:1086800013469B0013449B000B441B78002B2BD1FB
:10869000BDF80A20BDF80C3011461846FFF718FF48
:1086A0000346002B20D001238DF80F30009BBDF82E
:1086B0000C201A80BDF80C20164913469B00134469
:1086C0009B000B440A331988BDF80C20BDF80A3012
:1086D0000B4498B20F4913469B0013449B000B4474
:1086E0000A3302461A8008E0BDF80C300133ADF8B9
:1086F0000C30BDF80C30012BBFD99DF80F30002B8A
:1087000001D0002301E048F20663184605B05DF889
:1087100004FB00BFAC2C002082B003460A46ADF833
:1087200006301346ADF80430BDF804200D49134659
:108730009B0013449B000B440A331A88BDF8063093
:10874000D31A9BB2BDF80420033B98B205491346E7
:108750009B0013449B000B440A3302461A8000BF5F
:1087600002B07047AC2C002008B50121024801F08E
:108770004AFB0346184608BD982C002000B585B07A
:1087800003460091ADF80630BDF806202449134693
:108790009B0013449B000B4404331B6803F5805378
:1087A0000293009B1B680393039B002B04D0039848
:1087B000FFF73BFE039026E0BDF80620184913465C
:1087C0009B0013449B000B4404331B680833039342
:1087D00019E002990398FFF733FE0346022B10D0ED
:1087E000022B10DC002B02D0012B05D00BE0009BEC
:1087F000039A1A6001230EE00398FFF716FE039018
:1088000001E0002307E002990398FFF7F7FD034614
:10881000002BDED10023184605B05DF804FB00BF35
:10882000AC2C002000B585B001900091019B5B68E5
:108830001846FFF729FE0346002B19D0019B1A8921
:10884000244B1B899A4213D1019B1A68019B5B68D8
:108850009B689A420CD1019B5B6819460098FFF710
:108860006BFE0346002B0CBF01230023DBB22CE080
:10887000009B00221A8023E00023029310E0029B59
:108880000393039B9A68019B1B689A4208D1029A42
:10889000019B5A600F4B1A89019B1A81012314E036
:1088A000009B1B8802AA11461846FFF767FF034684
:1088B000002BE4D1009B1B8801339AB2009B1A80E5
:1088C000009B1B88012BD7D90023184605B05DF803
:1088D00004FB00BFDC2C002000B587B003900291A0
:1088E00001920093324B1B78DBB283F00103DBB2C1
:1088F000002B02D048F2016355E0019B002B02D00F
:10890000009B002B49D148F204634CE0009B9B88FC
:108910001946284A0B469B000B449B0013441B78C6
:10892000002B33D124E0009B1B680593039B002B95
:1089300006D0059B9A88039B1B889A4200D017E0BB
:10894000029B002B06D0059B1A88029B1B889A422B
:1089500000D00DE0059B9A68019B1A60009B1A6885
:10896000019B5A60144B1A89019B1A8100231AE05B
:10897000009B9B88009A11461846FFF7FFFE0346AE
:10898000002BD0D1009B00221A6000E000BF009BAA
:108990009B8801339AB2009B9A80009B9B88012B95
:1089A000B4D948F20963184607B05DF804FB00BF6C
:1089B0007C2C0020AC2C0020DC2C002000B585B0E5
:1089C0000190084B0199184601F068F803901C22A9
:1089D0000021039811F011FC039B184605B05DF8C7
:1089E00004FB00BF9C2C002000B583B00190044B19
:1089F0000199184601F06BF800BF03B05DF804FB65
:108A00009C2C002000B583B00190054B01991846BD
:108A100001F071F80346184603B05DF804FB00BF8F
:108A20009C2C002000B583B00190044B019918469E
:108A300001F07AF800BF03B05DF804FB9C2C002025
:108A400008B50121054801F0F6F90346002B14BFD3
:108A500001230023DBB2184608BD00BF842C002090
:108A600000B587B003900291039B02229A75029988
:108A7000039B1A1D002300930423074801F006FE00
:108A80000590059B002B01D1002301E048F20D6306
:108A9000184607B05DF804FBE82A002000B587B04F
:108AA00003900291039B1B69002B01D0032200E07D
:108AB0000122039B9A75029B08331946039B03F11D
:108AC0000C02002300930423074801F0DFFD05900A
:108AD000059B002B01D1002301E048F20D631846ED
:108AE00007B05DF804FB00BFE82A002000B587B09E
:108AF00003900291039B1B78032B01D1052200E018
:108B00000622039B9A75029B04331946039B03F1CB
:108B10000802002300930423074801F0B7FD0590E5
:108B2000059B002B01D1002301E048F20D6318469C
:108B300007B05DF804FB00BFE82A002000B587B04D
:108B400003900B46ADF80A300399002300930423E9
:108B50000D4A0E4801F09AFD0590059B002B02D0AE
:108B600048F20D630BE0BDF80A20094913469B004B
:108B700013449B000B44103301221A700023184643
:108B800007B05DF804FB00BFD8B90300E82A002055
:108B9000AC2C002000B589B0019002AB00221A6015
:108BA0005A609A60019BDB6802930DF1160202ABDA
:108BB00011461846FFF736FE0346002B12D0039BE2
:108BC0000693069B9A88019BDA80069B1A88019B74
:108BD0001A81039BBDF8162011461846FFF7AEFF19
:108BE000079002E048F209630793079B184609B013
:108BF0005DF804FB00B587B00190019B981D02AAA7
:108C00000D4B0021FFF768FE0590059B002B08D156
:108C1000039B094A928811461846FFF78FFF05907B
:108C200004E008220021044811F0E7FA059B1846E9
:108C300007B05DF804FB00BFEC2C002000B587B046
:108C400003900291039B01229A75029B0C331846F4
:108C5000039B1A69039BDB889B000021009101465E
:108C6000074801F013FD0590059B002B01D100235F
:108C700001E048F20D63184607B05DF804FB00BF41
:108C8000E82A002082B0184B1B8901339AB2164B98
:108C90001A81154B00225A80134B00221A730023AD
:108CA000ADF8063018E0BDF80620104913469B00C9
:108CB00013449B000B441A78BDF80630002A0CBF01
:108CC00001220022D1B2084A13440A469A72BDF822
:108CD00006300133ADF80630BDF80630012BE2D97D
:108CE00000BF00BF02B07047DC2C0020AC2C00207D
:108CF00084B0019000238DF80F300023ADF80C30C4
:108D000031E0BDF80C301C4A13449B7A002B25D06F
:108D1000BDF80C30184A134400229A72BDF80C209A
:108D2000164913469B0013449B000B440C331B68ED
:108D3000002B13D1BDF80C20104913469B0013449F
:108D40009B000B4410331B78002B07D0019BBDF810
:108D50000C201A8001238DF80F3008E0BDF80C308C
:108D60000133ADF80C30BDF80C30012BC9D99DF89A
:108D70000F30184604B07047DC2C0020AC2C0020CB
:108D800008B5084B05221A70074B02229A80064B41
:108D90001B68194600230122044801F059FD0346CF
:108DA000184608BDDC2C0020D42C0020E82A002026
:108DB00000B583B0164B5B88ADF80230BDF80220D9
:108DC000144913469B0013449B000B440C331B684F
:108DD000002B14D10E4B04221A70BDF802200D494D
:108DE00013469B0013449B000B4404331B68194635
:108DF00000230122084801F02BFD019002E0FFF75B
:108E0000BFFF0190019B184603B05DF804FB00BF53
:108E1000DC2C0020AC2C0020E82A002000B587B014
:108E2000104B5B680593104B1A680F4B9B889B0097
:108E300013440493059B5B880333ADF80E30094B54
:108E400003221A700499074B5A68BDF80E309B0034
:108E500000200090054801F019FC0346184607B0B1
:108E60005DF804FBDC2C0020D42C0020E82A002034
:108E700000B583B00A4B5B880A491846FFF77EFCB1
:108E80000346002B03D0FFF7C9FF019002E0FFF774
:108E90008FFF0190019B184603B05DF804FB00BFF3
:108EA000DC2C0020E02C002008B50A4B06221A70AA
:108EB000084B5B881946084A0B469B000B449B00F5
:108EC000134404331B681846FFF7A8FB03461846F3
:108ED00008BD00BFDC2C0020AC2C002008B5054BE1
:108EE00007221A70034B00225A60FFF77FFB0346EC
:108EF000184608BDDC2C002008B50D48FFF7F8FE29
:108F0000034683F00103DBB2002B0BD0094B002298
:108F10001A70084B00225A80064B00225A6041F614
:108F20001D5302E0FFF7A4FF0346184608BD00BF2B
:108F3000DE2C0020DC2C002082B0094B5B68019302
:108F4000019B5B880333ADF80230064B9A88BDF86D
:108F5000023013449AB2034B9A8000BF02B07047AC
:108F6000DC2C0020D42C002082B01E4B1B68019307
:108F70001D4B5B8819461D4A0B469B000B449B000A
:108F8000134404331B68174A1360174B5B88194658
:108F9000164A0B469B000B449B0013440433019A72
:108FA0001A60114B5B8819460E4B98880F4A0B4686
:108FB0009B000B449B001344083302461A80094B64
:108FC00002229A80084B5B881946084A0B469B0090
:108FD0000B449B001344103300221A7000BF02B0F0
:108FE000704700BFD42C0020DC2C0020AC2C0020CB
:108FF00008B51A4B1B78072B2CD801A252F823F086
:109000002190020055900200559002002D90020020
:109010003990020045900200459002004D900200F8
:10902000FFF730FE0D4B01221A7014E0FFF784FFAA
:109030000A4B02221A700EE0FFF796FF074B06223A
:109040001A7008E0054B07221A7004E0034B012256
:109050001A7000E000BF00BF08BD00BFDC2C00207C
:1090600000B587B00190009148F20E630593019B13
:10907000002B05D0634B00225A604FF40643BCE03E
:10908000009B1B79032B00F2AB8001A252F823F066
:10909000A1900200AF9002003D9102005D9102009C
:1090A000009B01221A71FFF7A1FA05909BE00023B3
:1090B0008DF813300023ADF810302BE0BDF81020F0
:1090C000514913469B0013449B000B441B78022B11
:1090D0001BD1BDF810204C4913469B0013449B0044
:1090E0000B4400221A7001238DF81330BDF81020B4
:1090F000454913469B0013449B000B4404331B68F3
:109100001846FFF78BFA059008E0BDF810300133E0
:10911000ADF81030BDF81030012BCFD99DF81330C9
:1091200083F00103DBB2002B5CD0364B01221A70B6
:10913000344B00225A6041F61D535EE0009B002232
:109140001A71324B02229A80304B1B681946002359
:1091500001222F4801F07CFB059044E0009B002297
:109160001A712A4B1B681846FFF758FA0590294BCD
:109170005B88ADF80E30254B1B680293BDF80E20BE
:10918000214913469B0013449B000B4404331B6886
:109190001E4A1360BDF80E201B4913469B00134462
:1091A0009B000B440433029A1A60BDF80E20174B43
:1091B0009888154913469B0013449B000B440833C1
:1091C00002461A80114B02229A80BDF80E200E49E9
:1091D00013469B0013449B000B4400221A7002E0CC
:1091E00000BF00E000BF059B002B05D0054B00220F
:1091F0005A6048F20D6300E00023184607B05DF89E
:1092000004FB00BF7C2C0020AC2C0020D42C0020C0
:10921000E82A0020DC2C002000B587B001900091E6
:10922000009B9B8A1A4613469B0013449B003B4AB3
:1092300013440493019B002B06D000990498FFF778
:10924000B7F94FF4064364E0049B5A68049B1B89FA
:109250009B0013440393009B9B7D062B4DD801A2DA
:1092600052F823F0A9920200CD920200B5920200BA
:10927000C192020081920200D9920200F392020090
:10928000274B00225A60009B9B69254A13602549A1
:109290002348FFF7C7FA034683F00103DBB2002B34
:1092A00002D048F2096334E003990098FFF7D8FB35
:1092B000059026E003990098FFF7F0FB059020E069
:1092C00003990098FFF7BAFC05901AE003990098FB
:1092D000FFF70CFC059014E0009B06229A75104BDA
:1092E0005B68104A128811461846FFF727FC059064
:1092F00007E041F61D53059303E048F20E63059322
:1093000000BF059B002B03D000990498FFF750F98C
:10931000059B184607B05DF804FB00BFAC2C00208D
:10932000F42C0020002D002000B585B001900091A4
:10933000019B002B02D04FF4064329E0009B1B79D0
:10934000022B1BD0022B1DDC002B02D0012B08D0DE
:1093500018E0009B02221A710098FFF71BFC039093
:1093600015E00098FFF746FC0390039B48F2096262
:1093700093420BD141F61D53039307E041F61D5371
:10938000039304E048F20E63039300E000BF039BE5
:10939000184605B05DF804FB00B585B00190019B4F
:1093A000002B02D04FF406433DE0214B1B7B002BEA
:1093B00003D01F4B00221A7301E0FFF719FE1C4B6C
:1093C0001B78013B062B29D801A252F823F000BFDD
:1093D000ED930200F5930200FD9302000594020054
:1093E0001D9402000D94020015940200FFF784FD05
:1093F000039017E0FFF73CFD039013E0FFF70EFD2D
:1094000003900FE0FFF7D4FC03900BE0FFF74CFD57
:10941000039007E0FFF762FD039003E048F20E635C
:10942000039300BF039B184605B05DF804FB00BF23
:10943000DC2C002000B589B001903B4B1B68002B51
:1094400005D13A48FFF7DEFA0346374A1360364B38
:109450001B681B78013B052B2BD801A252F823F087
:109460007994020089940200899402009994020080
:1094700099940200A99402002B4B1B68194601988D
:10948000FFF7EEFD019018E0274B1B681946019885
:10949000FFF7C2FE019010E0234B1B6819460198AC
:1094A000FFF742FF019008E00198FFF775FF019078
:1094B00003E048F20E63019300BF019B002B2BD009
:1094C00003AB00221A605A609A60DA601A61019B4D
:1094D00041F61D52934201D0019B00E0002304930A
:1094E000114B1B6803AA11461846FEF719FF03AB80
:1094F0001846FEF7F5FE0C4B00221A60002301937C
:109500000A48FFF78FFAFFF79BFA034683F001033F
:10951000DBB2002B02D190E700BF00E000BF00BF2C
:1095200009B05DF804FB00BF042D0020082D0020C9
:1095300008B50121054800F04EFC0346002B02D17E
:109540000020FFF777FF00BF08BD00BF842C00207C
:1095500000B583B00190019B5B681846FFF76AFF76
:1095600000BF03B05DF804FB00B58BB0039002911F
:1095700001928DF803300023ADF824300023ADF8BC
:109580002630534B1B78DBB283F00103DBB2002B98
:1095900002D048F2016397E0029B002B02D148F20F
:1095A000046391E0029B1B884FF6FF72934203D045
:1095B000029B5B88002B02D148F2036384E0029B8C
:1095C0005B681846FEF77EFE034683F00103DBB2BC
:1095D000002B02D048F2026376E0019B002B11D1F0
:1095E000029B9B68ADF826300DF11A02BDF82630BB
:1095F00011461846FFF726F80890089B002B09D063
:10960000089B61E0019B1B88ADF81A30019B5B88C9
:10961000ADF8263005AB1846FFF7D0F90790079B49
:10962000002B0AD1BDF81A20BDF826301146184685
:10963000FFF772F848F2076346E0079B9DF80320A6
:109640001A70079B00229A75BDF81A20079B9A8210
:10965000029B5A68079B1A61FFF786F80246079B30
:10966000DA60029B1A88079B1A81029B5A88079B23
:109670009A80079BBDF82620DA809DF80330032BE3
:1096800006D1079B04229A75039B1A68079B9A616F
:10969000079BBDF824205A8105AB1846FFF7A4F9B3
:1096A000039B002B0DD0039B00225A60079BDA68B6
:1096B000039B1A60039B00229A72064B1A89039B34
:1096C0001A81FFF735FF002318460BB05DF804FB45
:1096D0007C2C0020DC2C002000B585B0019000918E
:1096E000019B002B02D0009B002B02D148F20463A7
:1096F0002AE00DF10A0319460198FFF793F8034693
:10970000002B1FD0019B5B680393BDF80A301A46FB
:1097100013469B0013449B0008330D4A1344043343
:109720000121184600F06FFB009B039A1A60019B11
:109730005B6803F10C02009B5A60019B01229A7244
:10974000002301E048F20963184605B05DF804FB08
:10975000AC2C002000B585B00190019B002B02D1FC
:1097600048F204633BE00DF10A0319460198FFF744
:1097700059F80346002B2ED0BDF80A3019461A4A74
:109780000B469B000B449B0013440C331B68002BBF
:109790001DD0019B9B7A002B19D0BDF80A301A46C8
:1097A000114913469B0013449B000B440C331B6868
:1097B000591E0D4813469B0013449B0003440C3371
:1097C0001960019B00229A720023039306E048F27D
:1097D0000563039302E048F209630393039B184671
:1097E00005B05DF804FB00BFAC2C002000B583B0D1
:1097F000019000910223002200990198FFF7B4FE26
:109800000346184603B05DF804FB00B583B0019031
:109810000091019B002B02D148F2046306E0032370
:10982000002200990198FFF79FFE0346184603B0F7
:109830005DF804FB00B585B00346ADF806301A4B61
:109840001B78DBB283F00103DBB2002B02D048F2BD
:10985000016324E0BDF806304FF6FF72934202D157
:1098600048F203631BE002AB1846FFF7A7F803902A
:10987000039B002B02D148F2076310E0039B0522F3
:109880001A70039B01221A71039BBDF80620DA802F
:1098900002AB1846FFF7A8F8FFF74AFE0023184668
:1098A00005B05DF804FB00BF7C2C002000B585B03E
:1098B000029201930346ADF80E300B46ADF80C3022
:1098C00003A90DF10E00019B029AFFF705F803466C
:1098D000184605B05DF804FB00B585B0034602915B
:1098E0000192ADF80E300DF10E01019B029A00209D
:1098F000FEF7F2FF0346184605B05DF804FB00B51D
:1099000085B0034602910192ADF80E300DF10E00C4
:10991000019B029A0021FEF7DFFF0346184605B0BF
:109920005DF804FB82B001900091019B002B02D0F6
:10993000009B002B02D148F2046304E0019B1A68EB
:10994000009B1A600023184602B0704786B0019051
:109950000091019B53E8011F8AB2D889024498897B
:10996000824228BF121A1889824202BFBFF32F8F8A
:10997000002307E0C2EA010243E801200028E9D100
:109980004FF001038DF80F30059002910492029A76
:10999000009B1A609DF80F30DBB2184606B0704786
:1099A00084B00190019951E8013FC3EA034341E8C3
:1099B0000132002AF7D10392029300BF04B070472E
:1099C00086B001900091019B53E8021F1FFAA1F29B
:1099D000D888824202BFBFF32F8F00230DE0D889C1
:1099E00002449889824228BF121AC1EA024243E81F
:1099F00002200028E8D14FF001038DF80F300590C8
:109A000002910492029A009B1A609DF80F30DBB21B
:109A1000184606B0704784B00190019951E8023FA2
:109A2000C3EA234341E80232002AF7D103920293AA
:109A300000BF04B0704784B00390029111461A46EB
:109A40000B46ADF806301346ADF80430029B002BF0
:109A500001D10E231FE0BDF80630BDF80420B3FB92
:109A6000F2F101FB02F29B1A9BB2002B01D00923F9
:109A700011E0039B029A1A60039B00225A60039B29
:109A800000229A60039BBDF806209A81039BBDF8D3
:109A90000420DA810023184604B0704700B585B071
:109AA00001900091009B19460198FFF74FFF034674
:109AB000002B07D0019B1B68009A12881344039364
:109AC000039B00E00023184605B05DF804FB00B5D9
:109AD00083B001900091009B1A88009B5B889A429A
:109AE00004D10198FFF75CFF012300E00023184632
:109AF00003B05DF804FB00B585B001900091009BB8
:109B000019460198FFF75CFF0346002B07D0019B25
:109B10001B68009A528813440393039B00E00023C0
:109B2000184605B05DF804FB00B583B001900091C4
:109B3000009B1A88009B5B889A4204D10198FFF72A
:109B40006AFF012300E00023184603B05DF804FB20
:109B500000B585B001900091009B5B099B00019AC4
:109B60001A44009B03F01F03012101FA03F3194675
:109B7000104600F0E8F8039000BF05B05DF804FB64
:109B800000B583B001900091009B5B099B00019A96
:109B90001A44009B03F01F03012101FA03F3194645
:109BA000104600F0B8F80246009B03F01F0322FAAB
:109BB00003F303F00103002B14BF01230023DBB2E6
:109BC000184603B05DF804FB00B585B00190009124
:109BD000009B5B099B00019A1A44009B03F01F0342
:109BE000012101FA03F3DB431946104600F0DBF8CC
:109BF000039000BF05B05DF804FB82B001900091B6
:109C0000009B5B099B00019A13441A68009B03F0B8
:109C10001F0322FA03F303F00103002B14BF0123F7
:109C20000023DBB2184602B0704700B58DB001903A
:109C3000009100230B934BE00B9B9B00019A134474
:109C40001B68DB430793079B93FAA3F30693069BDA
:109C50000893089B002B01D1202303E0089BB3FA53
:109C600083F3DBB20A932BE00B9B5B010A9A13444C
:109C70000993099A009B9A4226D209990198FFF705
:109C80007FFF034683F00103DBB2002B01D0099B69
:109C900026E00B9B9B00019A13441B68DB43049353
:109CA000049B93FAA3F30393039B0593059B002B5B
:109CB00001D1202303E0059BB3FA83F3DBB20A93BF
:109CC0000A9B1F2BD0D900E000BF0B9B01330B93E5
:109CD000009B013B5B0901330B9A9A42ACD3009B7A
:109CE00018460DB05DF804FB10B487B001900091E8
:109CF000019B009A53E8004F104643E8000191F0A1
:109D0000000FF7D1059404900391059B184607B006
:109D10005DF8044B704710B487B001900091019B2F
:109D2000009A53E8004F44EA020043E8000191F032
:109D3000000FF6D1059404900391059B184607B0D7
:109D40005DF8044B704710B487B001900091019BFF
:109D5000009A53E8004F44EA020043E8000191F002
:109D6000000FF6D1059404900391049B184607B0A8
:109D70005DF8044B704710B487B001900091019BCF
:109D8000009A53E8004F04EA020043E8000191F012
:109D9000000FF6D1059404900391059B184607B077
:109DA0005DF8044B704710B487B001900091019B9F
:109DB000009A53E8004F04EA020043E8000191F0E2
:109DC000000FF6D1059404900391049B184607B048
:109DD0005DF8044B704710B487B001900091019B6F
:109DE000009A53E8004F04EB020043E8000191F0B1
:109DF000000FF6D1059404900391059B184607B017
:109E00005DF8044B704710B487B001900091019B3E
:109E1000009A53E8004F04EB020043E8000191F080
:109E2000000FF6D1059404900391049B184607B0E7
:109E30005DF8044B704710B487B001900091019B0E
:109E4000009A53E8004FA4EB020043E8000191F0B0
:109E5000000FF6D1059404900391049B184607B0B7
:109E60005DF8044B704700B583B001900121019863
:109E7000FFF769FF0346184603B05DF804FB00B521
:109E800083B0019000210198FFF775FF0346184643
:109E900003B05DF804FB82B001900B468DF80330EF
:109EA000019BDA689DF803300199098A01FB03F3ED
:109EB0001344184602B0704782B001900091009B95
:109EC000019AD2689B1A019A128AB3FBF2F3DBB2B1
:109ED000184602B0704700B585B001900023039387
:109EE00000238DF80A300DF10A031846FDF776FEBF
:109EF000019B1B681A68019B5B689A421FD9019BF2
:109F00001B681A68013A1A601B681B781946019889
:109F1000FFF7C1FF0390019B9A68019B1B681B68B8
:109F2000D31A8DF80B30019B1B681B799DF80B2011
:109F30009A4204D9019B1B689DF80B201A719DF869
:109F40000A301846FDF754FE039B184605B05DF82D
:109F500004FB10B584B001900091009B0393002393
:109F60008DF80B300DF10B031846FDF737FE019B02
:109F70001B681C68621C1A6003990198FFF79CFF1C
:109F8000034623709DF80B301846FDF731FE00BFE5
:109F900004B010BD00B583B00190019B9B68002BFD
:109FA0000CD0019B5B69019A1069019A1168019AB2
:109FB00092689847019B00229A6000E000BF03B0BE
:109FC0005DF804FB0EB400B584B00190059B002B36
:109FD0000AD00023039306AB039303AB1A460599FB
:109FE000019800F0B5F900E000BF04B05DF804EBA3
:109FF00003B0704700B583B001900B468DF8033075
:10A000009DF803300A2B03D10D210198FFF7F2FFD1
:10A01000019B1A68019B9B68581C01998860134436
:10A020009DF803201A70019B9A68019B5B689A4215
:10A0300002D30198FFF7AEFF00BF03B05DF804FB49
:10A0400000B587B00390029101920093002305931D
:10A05000009B03F00103002B24D00BE0029B013393
:10A060000293059B013305939DF81330194603981D
:10A07000FFF7C0FF029B1B788DF813309DF813305B
:10A08000002BEBD106E0019B013B019320210398BB
:10A09000FFF7B0FF019A059B9A422ED9019B002B36
:10A0A000F1D12AE0029B002B0BD0029810F0D8F8D7
:10A0B000059006E0019B013B019320210398FFF7E7
:10A0C00099FF019A059B9A420FD9019B002BF1D170
:10A0D0000BE0029B01330293059B013305939DF82E
:10A0E000133019460398FFF785FF029B1B788DF804
:10A0F00013309DF81330002BEBD100BF07B05DF893
:10A1000004FB000000B589B0039002910192009316
:10A11000029B07930123069307E0079A019BB2FB7A
:10A12000F3F30793069B01330693079A019B9A4228
:10A13000F3D2009A069B9A4201D9009B06930B9B8F
:10A1400003F00103002B22D10A9B002B1FD00B9B95
:10A1500003F00203002B06D0009B002B03D1302319
:10A160008DF8173002E020238DF8173008E00A9BA5
:10A17000013B0A939DF8173019460398FFF73AFF01
:10A180000A9B002B03D0069A0A9B9A42EFD3012325
:10A190000793009B012B03D9009B013B009309E02F
:10A1A000029A079BB2FBF3F30493049A019B9A4231
:10A1B00000D205E0079B019A02FB03F30793E8E74F
:10A1C000029A079BB2FBF3F30493049B079A02FBEA
:10A1D00003F3029AD31A0293154A049B13441B7883
:10A1E00019460398FFF706FF079A019BB2FBF3F3AA
:10A1F0000793079B002BE3D10B9B03F00103002B7C
:10A2000011D00A9B002B0ED006E00A9B013B0A935B
:10A2100020210398FFF7EEFE0A9B002B03D0069A3D
:10A220000A9B9A42F1D300BF09B05DF804FB00BF5E
:10A23000DCB9030000B589B0059004910392029344
:10A24000049B002BB8BF5B4206930123079307E0F2
:10A25000039B069A92FBF3F30693079B0133079344
:10A26000039B069A9A42F3DA029A079B9A4201D913
:10A27000029B07930A9B002B0AD0049B002B04DB54
:10A280000B9B03F00403002B02D00A9B013B0A93B3
:10A290000B9B03F00203002B02D0029B002B16D075
:10A2A0000B9B03F00103002B11D10A9B002B0ED056
:10A2B00006E00A9B013B0A9320210598FFF79AFECE
:10A2C0000A9B002B03D0079A0A9B9A42F1D3049B66
:10A2D000002B07DA049B5B4204932D210598FFF7BE
:10A2E00089FE08E00B9B03F00403002B03D02B2115
:10A2F0000598FFF77FFE0B9B03F00203002B19D09C
:10A300000B9B03F00103002B14D1029B002B11D1F6
:10A310000A9B002B0ED006E00A9B013B0A933021DA
:10A320000598FFF767FE0A9B002B03D0079A0A9B4C
:10A330009A42F1D304990B9B01930A9B0093029BD1
:10A34000039A0598FFF7DEFE00BF09B05DF804FB35
:10A3500000B58FB0059004910392049B002B00F090
:10A360009181049B1B788DF83730049B0133049353
:10A370009DF83730002B00F07C819DF83730252B7D
:10A3800040F06B8100230A9301230C93049B1B78FC
:10A390008DF837309DF83730302B0DD0302B1BDC4B
:10A3A0002B2B11D02D2B17D10A9B43F001030A93BD
:10A3B000049B0133049312E00A9B43F002030A93C7
:10A3C000049B013304930AE00A9B43F004030A93BD
:10A3D000049B0133049302E000230C9300BF0C9B09
:10A3E000002BD3D1002309939DF837302A2B0CD1B1
:10A3F000039B1B68191D039A11601B68099A13447B
:10A400000993049B013304931AE0049B1B788DF895
:10A4100037309DF837302F2B12D99DF83730392B34
:10A420000ED8049B01330493099A13469B001344EE
:10A430005B001A469DF837301344303B0993D3E74D
:10A4400000230B93049B1B788DF837309DF8373031
:10A450002E2B1DD1049B01330493049B1B788DF894
:10A4600037309DF837302F2B12D99DF83730392BE4
:10A470000ED8049B013304930B9A13469B0013449C
:10A480005B001A469DF837301344303B0B93E4E7EA
:10A49000049B1B788DF837309DF837306C2B03D038
:10A4A0009DF83730682B07D1049B01330493049B3C
:10A4B0001B788DF83730EFE79DF83730252B00F00B
:10A4C000C280252BC0F2C480782B00F3C180582BAA
:10A4D000C0F2BE80583B202B00F2BA8001A252F895
:10A4E00023F000BFD3A5020051A6020051A602002E
:10A4F00051A6020051A6020051A6020051A6020078
:10A5000051A6020051A6020051A6020051A6020067
:10A5100069A502008BA5020051A6020051A6020007
:10A5200051A6020051A602008BA5020051A602000E
:10A5300051A6020051A6020051A6020051A6020037
:10A5400051A6020013A6020051A6020051A6020065
:10A55000F7A5020051A60200AFA5020051A6020015
:10A5600051A60200D3A50200039B1B68191D039A84
:10A5700011601B680C930C9B8DF81F309DF81F30E9
:10A5800019460598FFF736FD63E0039B1B68191D0C
:10A59000039A11601B680C930A9B0193099B00931B
:10A5A0000B9B0A220C990598FFF744FE51E0039B90
:10A5B0001B68191D039A11601B680C930C990A9B68
:10A5C0000193099B00930B9B0A220598FFF79AFDC4
:10A5D0003FE0039B1B68191D039A11601B680C93D5
:10A5E0000C990A9B0193099B00930B9B10220598E1
:10A5F000FFF788FD2DE0039B1B68191D039A11606E
:10A600001B6808930A9B099A08990598FFF718FD9B
:10A610001FE0039B1B68191D039A11601B680C93B4
:10A6200030210598FFF7E6FC78210598FFF7E2FC5A
:10A630000C99002301930823009308231022059806
:10A64000FFF760FD05E025210598FFF7D3FC00E04A
:10A6500000BF049B0133049305E09DF83730194691
:10A660000598FFF7C7FC049B1B78002B7FF479AE9D
:10A6700000E000BF059B1B7B002B04D00598FFF773
:10A6800089FC00E000BF0FB05DF804FB10B586B098
:10A690000590049103920293059B002B10D1604A10
:10A6A000604BD31ADB081B0443F001005E4A5F498C
:10A6B0000E2300930B465E490EF071FC0E23ABE0B7
:10A6C000039B002B10D1564A564BD31ADB081B04B0
:10A6D00043F00100574A55490E2300930B46544955
:10A6E0000EF05DFC0E2397E0059B1B68002B10D13C
:10A6F0004B4A4C4BD31ADB081B0443F001004E4A73
:10A700004A49082300930B4649490EF048FC0823A8
:10A7100082E0029B002B10D1414A424BD31ADB0846
:10A720001B0443F00100454A4049092300930B46AE
:10A730003F490EF034FC09236EE0059B5B685A68C4
:10A74000029BB3FBF2F101FB02F29B1A002B10D02B
:10A75000334A344BD31ADB081B0443F00100384A58
:10A760003249092300930B4631490EF018FC0923A6
:10A7700052E0049800F01EF90346002B10D1284A3D
:10A78000284BD31ADB081B0443F001002D4A27494C
:10A79000102300930B4626490EF001FC10233BE0EA
:10A7A000039B184600F006F90346002B10D11C4A03
:10A7B0001C4BD31ADB081B0443F00100224A1B493F
:10A7C000102300930B461A490EF0E9FB102323E0F7
:10A7D000029A0499059800F0D3F80346002B10D193
:10A7E0000F4A104BD31ADB081B0443F00100174A31
:10A7F0000E49102300930B460D490EF0D0FB102399
:10A800000AE0059B1B68DC68089B0093029B039A87
:10A8100004990598A0470346184606B010BD00BF2E
:10A8200088B8030018B80300FCB90300A0BB0300FC
:10A8300004BA030090BA030038BA03004CBA03000C
:10A8400098BA0300C4BA0300DCBA030000BB0300DB
:10A8500010B586B00590049103920293059B002BDE
:10A8600010D13E4A3E4BD31ADB081B0443F00100D3
:10A870003C4A3D490E2300930B463C490EF08FFBAA
:10A880000E2368E0059B1B68002B10D1334A344B24
:10A89000D31ADB081B0443F00100354A3249082370
:10A8A00000930B4631490EF07AFB082353E0039BDB
:10A8B000002B10D1294A2A4BD31ADB081B0443F082
:10A8C00001002C4A2849092300930B4627490EF022
:10A8D00066FB09233FE00499059800F078F80346E9
:10A8E000002B10D11D4A1E4BD31ADB081B0443F06A
:10A8F0000100214A1C49102300930B461B490EF00E
:10A900004EFB102327E0059B5B681B68039A02FB44
:10A9100003F31A460499059800F032F80346002B19
:10A9200010D10E4A0E4BD31ADB081B0443F0010072
:10A93000124A0D49102300930B460C490EF02FFBD1
:10A94000102308E0059B1B681C69029B039A04996D
:10A950000598A0470346184606B010BD88B8030006
:10A9600018B80300FCB90300B4BB030004BA030029
:10A9700038BA03004CBA030028BB030050BB0300E5
:10A9800084B0039002910192039BDB68029A9A4281
:10A9900009D3029A019B13445A1E039B1B699A42D6
:10A9A00001D8012300E0002303F00103DBB21846C5
:10A9B00004B0704782B00190019B03F00303002BA9
:10A9C0000CBF01230023DBB2184602B0704782B0EF
:10A9D00001900091019B5B681B685A1E009B13400D
:10A9E000002B0CBF01230023DBB2184602B07047D6
:10A9F00029DF704700BF184628DF704700BF1846A0
:10AA000000B589B001900091019B1B689B68002BE9
:10AA100035D002AB00221A605A609A60DA601A617F
:10AA20005A61009B0393019B9B680793019B1B79D1
:10AA3000002B02D0012B0DD01AE001238DF8083035
:10AA4000019B1B690493019BDB680593019B5B6978
:10AA500006930DE002238DF80830019BDB684FF46C
:10AA6000805202FB03F30493019B5B69069300BFD2
:10AA7000019B1B689B6802AA1046984700E000BF34
:10AA800009B05DF804FB00B587B00190019B5A69DD
:10AA9000019B9B69D31AB3F5805F28BF4FF48053A5
:10AAA00005930422059BB3FBF2F3012B38BF01236E
:10AAB0000593019B1A69019B9B6913440493019BB5
:10AAC000DB681A46019B9B6913440393059A03991B
:10AAD0000498FFF78DFF0346184607B05DF804FBA6
:10AAE00000B583B00190019BDA68019B1B69134498
:10AAF0001846FFF781FF0346184603B05DF804FBD4
:10AB000008B5034B03491846FFF70EF800BF08BD10
:10AB10000C2D0020342D002008B5084B084918469C
:10AB2000FEF7E9FF0346074A1360064B1B68002B3C
:10AB300014BF01230023DBB2184608BD0C2D0020F2
:10AB4000342D0020302D002000B583B02A4B1B7A15
:10AB5000002B0BD1FFF7E0FF034683F00103DBB2CC
:10AB6000002B03D0244B00225A6042E0224B0222E9
:10AB70001A72224B1B681B79002B02D0012B07D0C5
:10AB80000DE01E4B1B681846FFF77DFF019009E0A2
:10AB90001A4B1B681846FFF7A3FF019002E003233E
:10ABA000019300BF019B002B03D0019B112B0CD004
:10ABB0000FE0114B1B7C83F00103DBB2002B17D09D
:10ABC0000021022000F06EF812E00B4B01221A72F5
:10ABD0000FE00A4B1B6803211846FFF711FF064BD5
:10ABE00000221A72044B00225A60FFF789FF00E02E
:10ABF00000BF03B05DF804FB1C2D0020302D0020A9
:10AC000084B001901B4B0022DA60019B1B79002B62
:10AC100002D0012B19D028E0019B5A69019B9B6946
:10AC2000D31AB3F5805F28BF4FF480530393019B81
:10AC30009A69039B1A44019B9A61019B9A69019B43
:10AC40005B699A420ED1012310E0019B1B695A1CDB
:10AC5000019B1A61019B1A69019B5B699A4203D1AE
:10AC6000012303E000BF00E000BF0023184604B04A
:10AC7000704700BF1C2D002082B00190084BDB689C
:10AC80000133074AD360064BDB68082B04D9044B19
:10AC90000022DA60012300E00023184602B070476A
:10ACA0001C2D002000B585B001900091019B022B66
:10ACB00002D0019B032B48D1274B1B7A022B05D0D6
:10ACC000022B35DC002B42D0012B31E000238DF824
:10ACD0000F30019B022B03D0019B032B09D011E005
:10ACE0001E4B1B681846FFF78BFF03468DF80F308D
:10ACF00008E01A4B1B681846FFF7BEFF03468DF8A5
:10AD00000F3000BF9DF80F30002B10D0124B0022E7
:10AD10001A72124B1A68019B022B01D1002300E02A
:10AD20000D2319461046FFF76BFEFFF7E9FE00BF43
:10AD3000094B5B7C83F00103DBB2002B02D0FFF7F1
:10AD400003FF05E00CF0D4FF02E000BF00E000BF0D
:10AD500005B05DF804FB00BF1C2D0020302D002045
:10AD600082B0034600918DF80730064B01225A74D9
:10AD7000044B1B7A002B0CBF01230023DBB21846C7
:10AD800002B070471C2D002000B583B0034600912F
:10AD90008DF807309DF80730012B03D09DF8073060
:10ADA000032B0DD1084B00225A749DF80730012B5C
:10ADB0000CBF01230023DAB2034B1A74FFF7C4FE61
:10ADC00000BF03B05DF804FB1C2D002000B58BB064
:10ADD00001900091019B1B8A043B0793009A079BFB
:10ADE0001344DA1C079BB2FBF3F38DF81B30019878
:10ADF000FFF771F80590059B002B01D1002338E087
:10AE0000059B00221A71059B01225A71079B9AB279
:10AE1000059BDA80059B09939DF81B30013B049349
:10AE2000099B019A1A60002308931DE00198FFF71F
:10AE300052F80390039B002B0ED0059B5B790133E6
:10AE4000DAB2059B5A71099B039A1A60039B019A17
:10AE50001A60039B099304E0059800F00EF80023A4
:10AE600007E0089B01330893089A049B9A42DDD3BC
:10AE7000059B18460BB05DF804FB00B58BB0019044
:10AE8000019B0793079B5B798DF81B30019B08930F
:10AE90009DF81B30013B05930023099305E0089BB7
:10AEA0001B680893099B01330993099A059B9A42F1
:10AEB000F5D3089B1B680493019B08930023099317
:10AEC0000BE0089B1B68039308990498FFF741F86F
:10AED000039B0893099B013309939DF81B30099A42
:10AEE0009A42EED300BF00BF0BB05DF804FB00B583
:10AEF00085B00190019B0393039B04330121184605
:10AF0000FEF781FF00BF05B05DF804FB00B587B018
:10AF10000190019B0593059B043301211846FEF720
:10AF20008AFF0346039303AB0493049B1B78002B17
:10AF300002D10198FFF7A1FF00BF07B05DF804FB45
:10AF400000B591B00390029101920093039B099385
:10AF5000039B0F93099BDB881A46099B5B7902FBD5
:10AF600003F3043B0893099BDB880793009B1A1D9E
:10AF7000079BB2FBF3F30E93009B0433079AB3FBDA
:10AF8000F2F2079901FB02F29B1A0D93019B1A68DA
:10AF9000009B1344089A9A4203D2089A009BD31A42
:10AFA00001E0019B1B680C93019B0C9A1A6005E061
:10AFB0000F9B1B680F930E9B013B0E930E9B002B68
:10AFC000F6D100230B93079A0D9BD31A0A930A9A82
:10AFD0000C9B934228BF13460A932AE0029A0B9BCC
:10AFE000134406930F9A0D9B1344043305939DF865
:10AFF0004830002B05D00A9A059906980FF0D4F82E
:10B0000004E00A9A069905980FF0CEF800230D93F4
:10B010000F9B1B680F930C9A0A9BD31A0C930B9AE5
:10B020000A9B13440B93079A0C9B934228BF134629
:10B030000A930C9B002BD1D100BF00BF11B05DF86B
:10B0400004FB00B589B00590049103920293039B21
:10B05000079307AA00230093029B04990598FFF722
:10B060006FFF00BF09B05DF804FB00B589B0059023
:10B07000049103920293039B079307AA0123009371
:10B08000029B04990598FFF75BFF00BF09B05DF8CC
:10B0900004FB000082B003468DF807309DF90730AD
:10B0A000002B0DDB9DF8073003F01F0206499DF9C8
:10B0B00007305B09012000FA02F2603341F82320D7
:10B0C00000BF02B0704700BF00E100E082B0019015
:10B0D000019B00221A60BFF35F8F00BF00BF02B068
:10B0E000704741DF704700BF184600B585B00023A8
:10B0F0008DF807300DF107031846FCF76FFDF1EEF0
:10B10000103A0393039B23F09F030293029BE1EE0B
:10B11000103A00BFBFF35F8F00BF2620FFF7BAFFD2
:10B120009DF807301846FCF763FD00BF05B05DF8D9
:10B1300004FB000008B5064B00221A700548FFF713
:10B14000C5FF0549054800F0B9F90023184608BDB8
:10B150003C2D0020382D0020D4BB0300402D0020C2
:10B1600000B583B0FFF7C1FF0CF0DEFD0346002BF6
:10B1700003D0FFF7B6FF019002E020BF40BF20BF21
:10B1800000BF03B05DF804FB82B00190019B9B6897
:10B19000024A12781344184602B07047E0BB03001D
:10B1A00082B001900091019B9B68009A9A4202D262
:10B1B000009B013300E00023184602B0704700B541
:10B1C00085B00190019B1B681B680393019B1B6862
:10B1D0005B680293029A039B9A4203D3029A039BF1
:10B1E000D31A07E00198FFF7CFFF0246039BD21A5C
:10B1F000029B1344184605B05DF804FB00B585B00A
:10B200000190019B1B681B680393019B1B685B6893
:10B21000029302990198FFF7C3FF0246039B9342F2
:10B220000CBF01230023DBB2184605B05DF804FB18
:10B2300010B588B0019000910023069300238DF88B
:10B240000F300DF10F031846FCF7C8FC0198FFF70B
:10B25000D5FF03468DF81F309DF81F3083F00103A2
:10B26000DBB2002B03D1019B1B7C002B7BD1019B0C
:10B270001B685B680593019B1B685A68019B1C68EF
:10B2800011460198FFF78CFF034663609DF81F305D
:10B29000002B0AD0019B1B681A68019B1C68114691
:10B2A0000198FFF77DFF03462360019BDB68013BAC
:10B2B000072B38D801A252F823F000BFDDB20200FC
:10B2C000EDB2020027B30200FFB2020027B3020072
:10B2D00027B3020027B3020011B30200019B5A6892
:10B2E000059B1344009A12781A702DE0019B5A684E
:10B2F000059B5B001344009A12881A8024E0019B8E
:10B300005A68059B9B001344009A12681A601BE060
:10B31000019B5A68059BDB00D118009BD3E90023F1
:10B32000C1E9002310E0019B5B681946019BDB68C3
:10B33000059A02FB03F30B441846019BDB681A468F
:10B3400000990EF031FF00BF0198FFF738FF04901D
:10B35000019B1B689B68049A9A4207D9019B1B6852
:10B36000049A9A6002E00423069300E000BF9DF86F
:10B370000F301846FCF73CFC069B184608B010BD81
:10B3800010B588B00390029113468DF80730002362
:10B39000079300238DF817300DF117031846FCF7BB
:10B3A0001DFC039800F076F8034683F00103DBB23E
:10B3B000002B63D0039B1B681B6806939DF8073026
:10B3C00083F00103DBB2002B0AD0039B1B681A68D1
:10B3D000039B1C6811460398FFF7E2FE03462360B7
:10B3E000039BDB68013B072B37D801A252F823F0FF
:10B3F00011B4020021B402005BB4020033B40200B5
:10B400005BB402005BB402005BB4020045B402000E
:10B41000039B5A68069B13441A78029B1A702FE00C
:10B42000039B5A68069B5B0013441A88029B1A8090
:10B4300026E0039B5A68069B9B0013441A68029BF4
:10B440001A601DE0039B5A68069BDB001344D3E996
:10B4500000230299C1E9002312E0039B5B681946AF
:10B46000039BDB68069A02FB03F30B441946039B1C
:10B47000DB681A4602980EF097FE01E00523079359
:10B480009DF817301846FCF7B3FB079B184608B029
:10B4900010BD00BF84B00190019B1B681B68039323
:10B4A000019B1B685B680293039A029B9A420CBF44
:10B4B00001230023DBB2184604B0704782B001902C
:10B4C0000091019B009A1A60019B1B681A68019BFE
:10B4D0005A60019B5A68019B1B685B689A4202D1C3
:10B4E000019B00225A6000BF02B0704782B00190F9
:10B4F000019B5B68002B14D0019B5B681A46019B83
:10B500001B689B6813441A46019B5A60019B5A684A
:10B51000019B1B685B689A4204D1019B00225A6020
:10B5200000E000BF02B0704700B585B00190009107
:10B53000019B5B6803930FE0019B9B68039A126871
:10B54000009910469847034683F00103DBB2002BB5
:10B5500007D1039B1B680393039B1B68002BEBD154
:10B5600000E000BF039B1A68009B1A60039B009ACF
:10B570001A6000BF05B05DF804FB84B00190019B28
:10B580005B681B680393019B5B681B68002B06D0FC
:10B59000019B5B681A68019B5B6812681A60039BD9
:10B5A000184604B0704782B00190019B5B681B682D
:10B5B000184602B0704784B00190009100238DF8C6
:10B5C0000B30019B5B6803930FE0039B1B68009AA1
:10B5D0009A4207D1009B1A68039B1A6001238DF8D9
:10B5E0000B3006E0039B1B680393039B1B68002B37
:10B5F000EBD19DF80B30184604B0704700B585B00C
:10B600000190019800F00EF80390039B002B01D0ED
:10B61000039B00E0024B184605B05DF804FB00BF39
:10B62000F0BB030086B00190164B0593164B0493B4
:10B630001FE0049A059BD31ADB10DA0F13445B104A
:10B64000DB00059A13440393039B1B680293029A41
:10B65000019B9A4202D9039B04930AE0029A019B40
:10B660009A4203D2039B0833059302E0039B5B6875
:10B6700004E0059A049B9A42DBD30023184606B0E7
:10B68000704700BFF0BF030018C10300BFF34F8F26
:10B6900000BF064BDB6803F4E0620449044B13432C
:10B6A000CB60BFF34F8F00BF00BFFDE700ED00E0B0
:10B6B0000400FA0500231846704700231846704717
:10B6C00000231846704700231846704782B0124B7B
:10B6D0001B680193114B1B680093019B082B17D12A
:10B6E000009B032B12D801A252F823F0FDB60200F2
:10B6F00001B7020005B7020009B70200012308E004
:10B70000012306E0012304E0012302E0012300E01D
:10B710000023184602B070473001001034010010B9
:10B7200000231846704700231846704782B0124B1A
:10B730001B680193114B1B680093019B082B17D1C9
:10B74000009B032B12D801A252F823F05DB7020030
:10B7500061B7020065B7020069B70200012308E083
:10B76000012306E0012304E0012302E0012300E0BD
:10B770000023184602B07047300100103401001059
:10B78000002318467047000082B0124B1B680193DB
:10B79000114B1B680093019B082B17D1009B032BB7
:10B7A00012D801A252F823F0B9B70200BDB70200C7
:10B7B000C1B70200C5B70200012308E0012306E07B
:10B7C000012304E0012302E0012300E000231846E6
:10B7D00002B07047300100103401001000231846F9
:10B7E00070470000024B034A1A6000BF704700BF59
:10B7F000042B00200090D00308B5FFF75BFF034641
:10B80000002B06D0A04B1B681B0AA04A03F01F03A5
:10B810001360FFF752FF0346002B02D09C4B9D4A5A
:10B820001A60FFF74DFF0346002B06D09A4B1B68AA
:10B830005B0B9A4A03F007031360FFF744FF0346CC
:10B84000002B05D0964BDB68954A23F08073D360BC
:10B85000FFF73CFF0346002B0ED04FF08043002241
:10B86000C3F80C214FF080430022C3F810214FF0A1
:10B8700080430022C3F83825FFF752FF0346002B10
:10B8800002D0884B03221A60FFF74DFF0346002BBE
:10B890000BD0854B05221A60844B01221A60844B21
:10B8A00000221A60834B3F221A60FFF73FFF0346D6
:10B8B000002B76D04FF080537F4AD3F80434C2F87F
:10B8C00020354FF080537C4AD3F80834C2F8243531
:10B8D0004FF08053784AD3F80C34C2F828354FF033
:10B8E0008053754AD3F81034C2F82C354FF080538A
:10B8F000714AD3F81434C2F830354FF080536E4A91
:10B90000D3F81834C2F834354FF080536A4AD3F86C
:10B910001C34C2F840354FF08053674AD3F82034C6
:10B92000C2F844354FF08053634AD3F82434C2F848
:10B9300048354FF08053604AD3F82834C2F84C356C
:10B940004FF080535C4AD3F82C34C2F850354FF096
:10B950008053594AD3F83034C2F854354FF08053ED
:10B96000554AD3F83434C2F860354FF08053524A08
:10B97000D3F83834C2F864354FF080534E4AD3F8C8
:10B980003C34C2F868354FF080534B4AD3F840340A
:10B99000C2F86C354FF08053474AD3F84434C2F8AC
:10B9A0007035FFF7EDFE0346002B05D0434B1B68B7
:10B9B000434A03F04F031360FFF7E6FE0346002BF4
:10B9C0000DD04FF08043D3F8003403F00103002B77
:10B9D00005D04FF080436FF00102C3F80024FFF759
:10B9E000FDFE0346002B05D0364B1B68354A43F459
:10B9F00080631360344BD3F88830334A43F47003C8
:10BA0000C2F88830BFF34F8F00BFBFF36F8F00BF06
:10BA10004FF01023D3F80032002B05DB4FF010233A
:10BA2000D3F80432002B2BDA284B0122C3F804256B
:10BA300000BF264BD3F80034002BFAD04FF0102370
:10BA40001522C3F8002200BF204BD3F80034002B8E
:10BA5000FAD04FF010231522C3F8042200BF1B4B6D
:10BA6000D3F80034002BFAD0184B0022C3F8042579
:10BA700000BF164BD3F80034002BFAD0FFF706FEB8
:10BA8000FFF7B0FE00BF08BD2403001040350140A1
:10BA900074C007400DF0ADBA440200103C050040F0
:10BAA000F0ED00E0A0050040105600408856004030
:10BAB000185600401456004000C0004058020010C4
:10BAC000E40E00403C17004000ED00E000E00140C3
:10BAD00082B003468DF807309DF90730002B13DB49
:10BAE0009DF8073003F01F0209499DF907305B09F3
:10BAF000012000FA02F2203341F82320BFF34F8FD8
:10BB000000BFBFF36F8F00BF00BF02B0704700BF20
:10BB100000E100E0044BD3F80034002B14BF0123F4
:10BB20000023DBB2184670470000014008B5FFF75C
:10BB3000F1FF034683F00103DBB2002B04D000F0D9
:10BB400051FC024B00229A7000BF08BD482D002016
:10BB500000B583B000230193184B1B78002B02D053
:10BB6000852301931CE0154B00229A60134B0022A1
:10BB70005A60124B00221A61104B0022DA60104802
:10BB800000F00EFC01900CF0CFF8034683F00103A7
:10BB9000DBB2002B01D000F01DFC084B01221A7013
:10BBA000FFF7B8FF0346002B02D0044B01229A7026
:10BBB000019B184603B05DF804FB00BF482D002030
:10BBC00071BC020084B00190019B1B680393039B2E
:10BBD000002B03D0039B1A68019B1A60039B184635
:10BBE00004B0704700B583B000238DF807300DF125
:10BBF00007031846FBF7F2FF094BDB68013B084AD5
:10BC0000D360074BDB68002B01D1FFF78FFF9DF856
:10BC100007301846FBF7ECFF00BF03B05DF804FBEC
:10BC2000482D002000B585B003468DF807309DF8FB
:10BC30000730002B02D10C4B039301E00B4B039315
:10BC40000398FFF7BFFF0290029B002B06D0029BD8
:10BC50005B689DF8072010469847F1E700BF00BFDA
:10BC600005B05DF804FB00BF502D0020582D0020CA
:10BC700000B583B003468DF807309DF80730002BE0
:10BC800005D10A4B01225A700020FFF7CBFF9DF827
:10BC90000730012B05D1054B01229A700120FFF7D7
:10BCA000C1FF00BF03B05DF804FB00BF482D0020BA
:10BCB00000B583B001900091019B002B05D1054B8D
:10BCC00001225A700020FFF7ADFF00BF03B05DF8FE
:10BCD00004FB00BF482D002000B585B0034600914D
:10BCE0008DF807309DF80730032B29D0032B2CDC6F
:10BCF000002B02D0012B04D027E00020FFF7E8FE44
:10BD000024E000238DF80F300DF10F031846FBF7E8
:10BD100065FF104B1B7883F00103DBB2002B01D0D1
:10BD2000FFF716FF0B4BDB6801330A4AD360094B60
:10BD300001229A709DF80F301846FBF759FF05E075
:10BD400000F048FBFFF74EFF00E000BF00BF05B06A
:10BD50005DF804FB482D002000B585B00190019BE3
:10BD6000002B0AD0074B43F001030393019B9B0177
:10BD70000293039B0298984700E000BF05B05DF86E
:10BD800004FB00BF20C1030082B00190019B1B682F
:10BD90001F2B02D84FF0A04306E0019B1B6803F065
:10BDA0001F02019B1A60024B184602B0704700BF89
:10BDB0000003005000B585B0019001AB1846FFF7B5
:10BDC000E3FF0390019B012202FA03F31946039853
:10BDD00000F035F800BF05B05DF804FB00B585B094
:10BDE000019001AB1846FFF7CFFF0390019B0122A2
:10BDF00002FA03F31946039800F02BF800BF05B0D0
:10BE00005DF804FB00B585B0019001AB1846FFF763
:10BE1000BBFF0390039800F00AF80246019B22FA48
:10BE200003F303F00103184605B05DF804FB82B08C
:10BE30000190019BD3F81035184602B0704782B0CC
:10BE400001900091019B009AC3F8082500BF02B041
:10BE5000704782B001900091019B009AC3F80C25B5
:10BE600000BF02B0704700B585B001904FF0A0420E
:10BE7000019B1B6803F5E07340F20C6142F823104C
:10BE80004FF0A042019B5B6803F5E07340F20C6148
:10BE900042F82310019B1B681846FFF78BFF019B9C
:10BEA0005B681846FFF786FF4FF0A042019B1B68B6
:10BEB00003F5E07340F20D6142F823104FF0A04209
:10BEC000019B5B6803F5E07340F20D6142F82310BB
:10BED0000420FFF741FF002303931EE0019B5B68F2
:10BEE0001846FFF78FFF0346002B03D0039B002B60
:10BEF00017D124E0019B1B681846FFF76FFF042051
:10BF0000FFF72AFF019B1B681846FFF753FF042029
:10BF1000FFF722FF039B01330393039B082BDDDD17
:10BF200000E000BF019B5B681846FFF757FF042045
:10BF3000FFF712FF019B5B681846FFF73BFF05B058
:10BF40005DF804FB00B589B001900091009B079358
:10BF5000019B1B788DF80C30019B1B798DF81030FC
:10BF6000019B5B798DF81130019B9B68DBB28DF8EA
:10BF70001230019BDB68DBB28DF81330019B1B692B
:10BF80000593019B5B690693074A079B52F8233090
:10BF90000649079A51F8221003AA1046984700BF95
:10BFA00009B05DF804FB00BF5C2D0020642D00206B
:10BFB00000B587B00390029101920093039B1B7818
:10BFC00005931249059B019A41F823201049059BCE
:10BFD000009A41F82320029B5B7B002B02D0029841
:10BFE000FFF741FF00230493039B181D019B002BC7
:10BFF00001D0084A00E00022059B029901F074F884
:10C000000490049B184607B05DF804FB5C2D0020EB
:10C01000642D002045BF020000B589B00190009159
:10C02000009B0793019B1B788DF80C30019B5B688C
:10C030000493019B9B68DBB28DF81430019BDB6895
:10C040000693074A079B52F823300649079A51F88E
:10C05000221003AA1046984700BF09B05DF804FB00
:10C060006C2D0020742D002000B589B00190009146
:10C07000009B0793019B1B788DF80C30019B5B683C
:10C080000493019B9B68DBB28DF81430019BDB6845
:10C090000693074A079B52F823300649079A51F83E
:10C0A000221003AA1046984700BF09B05DF804FBB0
:10C0B0006C2D0020742D002030B58FB003900291BC
:10C0C0000192039B1B780C9326490C9B019A41F823
:10C0D0002320029B1A6924490C9B41F82320029BD0
:10C0E0005B7F1946214A0C9B13440A461A70029B37
:10C0F00004AC1D460FCD0FC495E80F0084E80F0077
:10C100000C9B089300230D93039B1B781A46174B37
:10C110009B5C002B0DD0039B181D019B002B01D0B5
:10C12000134A00E0002204AB194602F0DFFD0D9037
:10C1300014E0039B1B781A460C4B9B5C002B0DD123
:10C14000039B03F10C00019B002B01D0094A00E086
:10C15000002204AB194601F0B5FF0D900D9B184667
:10C160000FB030BD6C2D0020742D00207C2D0020E0
:10C1700019C0020069C0020082B003468DF8073082
:10C180009DF90730002B0CDB9DF8073003F01F02F0
:10C1900005499DF907305B09012000FA02F241F8D8
:10C1A000232000BF02B0704700E100E082B00346E8
:10C1B00000918DF807309DF90730002B0ADB009BBA
:10C1C000DAB20C499DF907305201D2B20B4483F820
:10C1D00000230BE0009BDAB207499DF8073003F01B
:10C1E0000F03043B5201D2B20B441A7600BF02B0D7
:10C1F000704700BF00E100E000ED00E082B0019078
:10C20000019B1B0B5BB2184602B0704700B583B0B0
:10C2100003460A468DF8073013468DF806309DF820
:10C2200006209DF9073011461846FFF7BFFF00BFF3
:10C2300003B05DF804FB00B583B003468DF807300A
:10C240009DF907301846FFF797FF00BF03B05DF870
:10C2500004FB000082B003468DF807300F4A9DF9B9
:10C260000730002B00DA1F335B115BB252F823203A
:10C270009DF90730594203F01F0301F01F0158BF19
:10C280004B425BB222FA03F303F00103002B14BF0D
:10C2900001230023DBB2184602B0704700E100E042
:10C2A00082B001904FF08042019BC2F8083300BF7A
:10C2B00002B0704782B003468DF807309DF8073012
:10C2C00003F1804301221A6000BF02B0704784B0BE
:10C2D0000346ADF80630BDF8063003F18043002276
:10C2E0001A60BDF8063003F180431B680393039B7B
:10C2F00000BF04B0704782B00346ADF80630BDF809
:10C30000063003F180431B68002B14BF0123002378
:10C31000DBB2184602B0704782B001904FF0804205
:10C32000019BC2F8183500BF02B070474FF0804340
:10C33000D3F818341B0C03F00103002B14BF0123A6
:10C340000023DBB21846704700B583B006238DF892
:10C3500007304FF08040FFF751FF03461846FFF7C4
:10C3600079FF034683F00103DBB2002B13D04FF0BB
:10C370008040FFF743FF03461A469DF807301946F1
:10C380001046FFF743FF4FF08040FFF737FF0346AB
:10C390001846FFF750FF00BF03B05DF804FB000034
:10C3A00084B0019000230393094B1B79002B02D02A
:10C3B0008523039308E0064A019B1360044B012286
:10C3C0001A71034B00225A71039B184604B0704740
:10C3D000802D002008B5FFF7B7FF0120FFF79CFF75
:10C3E00000BF08BD08B50220FFF75AFF4FF4827066
:10C3F000FFF76DFF0C20FFF75DFF00BFFFF796FF13
:10C400000346002BFAD100BF00BF08BD08B54FF4AA
:10C410008070FFF770FF0346002B14D04FF480703C
:10C42000FFF755FF0120FFF73BFF114B5B7983F0CE
:10C430000103DBB2002B06D00D4B01225A710C4BCD
:10C440001B68002098474FF48270FFF754FF0346A3
:10C45000002B0AD04FF48270FFF739FF0220FFF75C
:10C460001FFF034B1B680120984700BF08BD00BF9A
:10C47000802D002082B003468DF807309DF90730EB
:10C48000002B0CDB9DF8073003F01F0205499DF9D6
:10C4900007305B09012000FA02F241F8232000BFB7
:10C4A00002B0704700E100E082B0034600918DF8D1
:10C4B00007309DF90730002B0ADB009BDAB20C49EC
:10C4C0009DF907305201D2B20B4483F800230BE0F0
:10C4D000009BDAB207499DF8073003F00F03043BD5
:10C4E0005201D2B20B441A7600BF02B0704700BFAF
:10C4F00000E100E000ED00E082B00190019B1B0B29
:10C500005BB2184602B0704700B583B003460A46D6
:10C510008DF8073013468DF806309DF806209DF9FA
:10C52000073011461846FFF7BFFF00BF03B05DF8A4
:10C5300004FB00B583B003468DF807309DF9073042
:10C540001846FFF797FF00BF03B05DF804FB00B586
:10C5500083B00346ADF80630BDF80630184600F04B
:10C5600026F803461B68012B0CBF01230023DBB216
:10C57000184603B05DF804FB00B585B00346ADF87E
:10C580000630BDF80630184600F011F803461A468A
:10C5900000231360BDF80630184600F008F8034683
:10C5A0001B680393039B00BF05B05DF804FB82B0DA
:10C5B0000346ADF80630BDF8063003F1804303F5BD
:10C5C000C043184602B0704782B00190034A019BF5
:10C5D000C2F8043300BF02B0704700BF00600040E3
:10C5E00082B00190034BD3F80423019B13401846FB
:10C5F00002B070470060004082B00190054A019B84
:10C6000003F5A27352F823301B0A03F03F031846C8
:10C6100002B070470060004082B00190064A019B62
:10C6200003F5A27352F823301B0C03F00303DBB2B3
:10C63000184602B0704700BF0060004082B0019011
:10C64000019B1B681F2B02D84FF0A04306E0019B03
:10C650001B6803F01F02019B1A60024B184602B0D0
:10C66000704700BF0003005000B585B001900B4635
:10C670008DF8033001AB1846FFF7E0FF0390019AF5
:10C68000039B02F5E07253F82230019A23F4403103
:10C69000039B02F5E07243F82210019A039B02F516
:10C6A000E07253F822309DF8032012041146019ADB
:10C6B0001943039B02F5E07243F8221000BF05B056
:10C6C0005DF804FB00B585B0019001AB1846FFF79B
:10C6D000B5FF0390019A039B02F5E07253F82230F4
:10C6E0001B0C03F00303DBB2184605B05DF804FB36
:10C6F00088B0039002910192164A05AB92E80300BC
:10C7000083E80300039B079319E0079B9B0008AA9B
:10C71000134453F80C3CD3F82025019B1A60079B67
:10C720009B0008AA134453F80C3C019A1268C3F802
:10C730002025019B04330193079B01330793039A40
:10C74000029B1344079A9A42DFD300BF00BF08B090
:10C75000704700BF30C1030000B585B0019001AB48
:10C760001846FFF76BFF0390019B012202FA03F3C7
:10C770001A46039BC3F8202500BF05B05DF804FBF3
:10C7800084B00190019B5B09029300230393029BF9
:10C79000002B03D0029B012B04D007E04FF0FF33A6
:10C7A000039303E04FF6FF73039300BF019B03F075
:10C7B0001F030193039A019B22FA03F303F0010381
:10C7C000002B14BF01230023DBB2184604B07047CE
:10C7D00084B001900091009B0393019BDB080293BE
:10C7E000019B03F0070301930122019B02FA03F36B
:10C7F0000399029A0A4412781340184604B070470D
:10C8000082B00190044A019B13443033FF221A7016
:10C8100000BF02B0704700BF882D002082B0019099
:10C82000044A019B1344303393F90030184602B098
:10C83000704700BF882D002082B00190034A019B01
:10C8400052F82330184602B0704700BF882D0020F0
:10C8500084B00190074A019B1344603393F9003080
:10C860008DF80F309DF80F3023F0C003184604B048
:10C87000704700BF882D002084B00190074A019BBB
:10C880001344603393F900308DF80F309DF80F306A
:10C890009B09DBB2184604B0704700BF882D00200A
:10C8A00082B003468DF807309DF80730094A4FF0F3
:10C8B000FF3142F823109DF80730072B07D99DF868
:10C8C0000730083B034A1344FF2283F8602000BF6F
:10C8D00002B07047882D002000B583B02D4B93F82F
:10C8E0006A30002B03D008230093009B4EE0002306
:10C8F0008DF8073011E09DF807301846FFF740FF2C
:10C900000346002B04D09DF807301846FFF778FF48
:10C910009DF8073001338DF807309DF807302F2B35
:10C92000E9D900238DF8073009E09DF80730184653
:10C93000FFF7B6FF9DF8073001338DF807309DF8FB
:10C9400007300B2BF1D90622002113480DF055FCBE
:10C950001248FFF7D1FD034606211846FFF7D4FD24
:10C960000E48FFF7C9FD03461846FFF7E2FD4FF4F6
:10C97000BE70FFF701FE4FF00040FFF725FE054BAC
:10C98000012283F86A2000230093009B184603B01D
:10C990005DF804FB882D0020EC2D00200060004095
:10C9A00000B585B00190019A02210020FFF7A0FE9A
:10C9B000002303930BE0039B9B00019A13441B6825
:10C9C000002B01D0012306E0039B01330393039B5B
:10C9D000012BF0D90023184605B05DF804FB0000D8
:10C9E00000B587B00190002305935BE0344A059BB6
:10C9F0001344603393F90030B3F1FF3F4ED00598F4
:10CA0000FFF726FF049001990498FFF7E1FE034623
:10CA1000002B44D00598FFF72FFF03468DF80F3009
:10CA20000498FFF74FFE03468DF80E309DF80E3048
:10CA3000022B01D1032300E002238DF80D309DF875
:10CA40000D3019460498FFF70FFE0498FFF784FE97
:10CA50000498FFF7E3FE03461846FFF7EDFE029049
:10CA6000029B002B1BD09DF80F30032B0FD09DF89D
:10CA70000E30022B03D19DF80F30012B07D09DF80B
:10CA80000E30032B0BD19DF80F30022B07D19DF8F0
:10CA90000F20029B11460498984700E000BF059BB9
:10CAA00001330593059B032BA0D90198FFF778FF6D
:10CAB0000346002B97D100BF00BF07B05DF804FB11
:10CAC000882D002000B58BB00023089301AB002215
:10CAD0001A605A604FF48073ADF81A30012309933D
